{
  "contractName": "IpfsHash",
  "abi": [
    {
      "constant": false,
      "inputs": [
        {
          "name": "self",
          "type": "IpfsHash.Multihash storage"
        },
        {
          "name": "_hash",
          "type": "bytes32"
        },
        {
          "name": "_fn",
          "type": "uint8"
        },
        {
          "name": "_digestSize",
          "type": "uint8"
        }
      ],
      "name": "create",
      "outputs": [
        {
          "name": "",
          "type": "bool"
        }
      ],
      "payable": false,
      "stateMutability": "nonpayable",
      "type": "function"
    }
  ],
  "bytecode": "0x6060604052341561000f57600080fd5b6101328061001e6000396000f300606060405260043610610041576000357c0100000000000000000000000000000000000000000000000000000000900463ffffffff168063294ba8e714610046575b600080fd5b61008160048080359060200190919080356000191690602001909190803560ff1690602001909190803560ff1690602001909190505061009b565b604051808215151515815260200191505060405180910390f35b600060208260ff1611156100b257600090506100fe565b83856000018160001916905550828560010160006101000a81548160ff021916908360ff160217905550818560010160016101000a81548160ff021916908360ff160217905550600190505b9493505050505600a165627a7a7230582055a873c1b62b09ba2083a576733d7296c1f1d5e46d844db2765576fdb1d5f0290029",
  "source": "",
  "sourcePath": "contracts/IpfsHash.sol",
  "compiler": {
    "name": "solc",
    "version": "0.4.18+commit.9cf6e910.Emscripten.clang"
  },
  "schemaVersion": "1.0.1",
  "updatedAt": "2017-12-19T15:35:25.322Z"
}