{
  "contractName": "OngoingSale",
  "abi": [
    {
      "constant": true,
      "inputs": [],
      "name": "rate",
      "outputs": [
        {
          "name": "",
          "type": "uint256"
        }
      ],
      "payable": false,
      "stateMutability": "view",
      "type": "function"
    },
    {
      "constant": true,
      "inputs": [],
      "name": "endTime",
      "outputs": [
        {
          "name": "",
          "type": "uint256"
        }
      ],
      "payable": false,
      "stateMutability": "view",
      "type": "function"
    },
    {
      "constant": true,
      "inputs": [],
      "name": "cap",
      "outputs": [
        {
          "name": "",
          "type": "uint256"
        }
      ],
      "payable": false,
      "stateMutability": "view",
      "type": "function"
    },
    {
      "constant": true,
      "inputs": [],
      "name": "weiRaised",
      "outputs": [
        {
          "name": "",
          "type": "uint256"
        }
      ],
      "payable": false,
      "stateMutability": "view",
      "type": "function"
    },
    {
      "constant": false,
      "inputs": [],
      "name": "finalize",
      "outputs": [],
      "payable": false,
      "stateMutability": "nonpayable",
      "type": "function"
    },
    {
      "constant": true,
      "inputs": [],
      "name": "wallet",
      "outputs": [
        {
          "name": "",
          "type": "address"
        }
      ],
      "payable": false,
      "stateMutability": "view",
      "type": "function"
    },
    {
      "constant": true,
      "inputs": [],
      "name": "startTime",
      "outputs": [
        {
          "name": "",
          "type": "uint256"
        }
      ],
      "payable": false,
      "stateMutability": "view",
      "type": "function"
    },
    {
      "constant": true,
      "inputs": [],
      "name": "isFinalized",
      "outputs": [
        {
          "name": "",
          "type": "bool"
        }
      ],
      "payable": false,
      "stateMutability": "view",
      "type": "function"
    },
    {
      "constant": true,
      "inputs": [],
      "name": "owner",
      "outputs": [
        {
          "name": "",
          "type": "address"
        }
      ],
      "payable": false,
      "stateMutability": "view",
      "type": "function"
    },
    {
      "constant": false,
      "inputs": [
        {
          "name": "beneficiary",
          "type": "address"
        }
      ],
      "name": "buyTokens",
      "outputs": [],
      "payable": true,
      "stateMutability": "payable",
      "type": "function"
    },
    {
      "constant": true,
      "inputs": [],
      "name": "hasEnded",
      "outputs": [
        {
          "name": "",
          "type": "bool"
        }
      ],
      "payable": false,
      "stateMutability": "view",
      "type": "function"
    },
    {
      "constant": false,
      "inputs": [
        {
          "name": "newOwner",
          "type": "address"
        }
      ],
      "name": "transferOwnership",
      "outputs": [],
      "payable": false,
      "stateMutability": "nonpayable",
      "type": "function"
    },
    {
      "constant": true,
      "inputs": [],
      "name": "token",
      "outputs": [
        {
          "name": "",
          "type": "address"
        }
      ],
      "payable": false,
      "stateMutability": "view",
      "type": "function"
    },
    {
      "inputs": [
        {
          "name": "_startBlock",
          "type": "uint256"
        },
        {
          "name": "_endBlock",
          "type": "uint256"
        },
        {
          "name": "_rate",
          "type": "uint256"
        },
        {
          "name": "_wallet",
          "type": "address"
        },
        {
          "name": "_cap",
          "type": "uint256"
        }
      ],
      "payable": false,
      "stateMutability": "nonpayable",
      "type": "constructor"
    },
    {
      "payable": true,
      "stateMutability": "payable",
      "type": "fallback"
    },
    {
      "anonymous": false,
      "inputs": [],
      "name": "Finalized",
      "type": "event"
    },
    {
      "anonymous": false,
      "inputs": [
        {
          "indexed": true,
          "name": "previousOwner",
          "type": "address"
        },
        {
          "indexed": true,
          "name": "newOwner",
          "type": "address"
        }
      ],
      "name": "OwnershipTransferred",
      "type": "event"
    },
    {
      "anonymous": false,
      "inputs": [
        {
          "indexed": true,
          "name": "purchaser",
          "type": "address"
        },
        {
          "indexed": true,
          "name": "beneficiary",
          "type": "address"
        },
        {
          "indexed": false,
          "name": "value",
          "type": "uint256"
        },
        {
          "indexed": false,
          "name": "amount",
          "type": "uint256"
        }
      ],
      "name": "TokenPurchase",
      "type": "event"
    }
  ],
  "bytecode": "0x60606040526000600760146101000a81548160ff021916908315150217905550341561002a57600080fd5b60405160a0806200817583398101604052808051906020019091908051906020019091908051906020019091908051906020019091908051906020019091905050808585858542841015151561007f57600080fd5b83831015151561008e57600080fd5b60008211151561009d57600080fd5b600073ffffffffffffffffffffffffffffffffffffffff168173ffffffffffffffffffffffffffffffffffffffff16141515156100d957600080fd5b6100f46101ef64010000000002610b00176401000000009004565b6000806101000a81548173ffffffffffffffffffffffffffffffffffffffff021916908373ffffffffffffffffffffffffffffffffffffffff16021790555083600181905550826002819055508160048190555080600360006101000a81548173ffffffffffffffffffffffffffffffffffffffff021916908373ffffffffffffffffffffffffffffffffffffffff1602179055505050505060008111151561019c57600080fd5b806006819055505033600760006101000a81548173ffffffffffffffffffffffffffffffffffffffff021916908373ffffffffffffffffffffffffffffffffffffffff1602179055505050505050610225565b60006101f9610214565b604051809103906000f080151561020f57600080fd5b905090565b6040516139ef806200478683390190565b61455180620002356000396000f3006060604052600436106100c5576000357c0100000000000000000000000000000000000000000000000000000000900463ffffffff1680632c4e722e146100d05780633197cbb6146100f9578063355274ea146101225780634042b66f1461014b5780634bb278f314610174578063521eb2731461018957806378e97925146101de5780638d4e4083146102075780638da5cb5b14610234578063ec8ac4d814610289578063ecb70fb7146102b7578063f2fde38b146102e4578063fc0c546a1461031d575b6100ce33610372565b005b34156100db57600080fd5b6100e361055b565b6040518082815260200191505060405180910390f35b341561010457600080fd5b61010c610561565b6040518082815260200191505060405180910390f35b341561012d57600080fd5b610135610567565b6040518082815260200191505060405180910390f35b341561015657600080fd5b61015e61056d565b6040518082815260200191505060405180910390f35b341561017f57600080fd5b610187610573565b005b341561019457600080fd5b61019c61071e565b604051808273ffffffffffffffffffffffffffffffffffffffff1673ffffffffffffffffffffffffffffffffffffffff16815260200191505060405180910390f35b34156101e957600080fd5b6101f1610744565b6040518082815260200191505060405180910390f35b341561021257600080fd5b61021a61074a565b604051808215151515815260200191505060405180910390f35b341561023f57600080fd5b61024761075d565b604051808273ffffffffffffffffffffffffffffffffffffffff1673ffffffffffffffffffffffffffffffffffffffff16815260200191505060405180910390f35b6102b5600480803573ffffffffffffffffffffffffffffffffffffffff16906020019091905050610372565b005b34156102c257600080fd5b6102ca610783565b604051808215151515815260200191505060405180910390f35b34156102ef57600080fd5b61031b600480803573ffffffffffffffffffffffffffffffffffffffff169060200190919050506107a6565b005b341561032857600080fd5b6103306108fe565b604051808273ffffffffffffffffffffffffffffffffffffffff1673ffffffffffffffffffffffffffffffffffffffff16815260200191505060405180910390f35b600080600073ffffffffffffffffffffffffffffffffffffffff168373ffffffffffffffffffffffffffffffffffffffff16141515156103b157600080fd5b6103b9610923565b15156103c457600080fd5b3491506103dc6004548361095990919063ffffffff16565b90506103f38260055461099490919063ffffffff16565b6005819055506000809054906101000a900473ffffffffffffffffffffffffffffffffffffffff1673ffffffffffffffffffffffffffffffffffffffff166340c10f1984836000604051602001526040518363ffffffff167c0100000000000000000000000000000000000000000000000000000000028152600401808373ffffffffffffffffffffffffffffffffffffffff1673ffffffffffffffffffffffffffffffffffffffff16815260200182815260200192505050602060405180830381600087803b15156104c557600080fd5b6102c65a03f115156104d657600080fd5b50505060405180519050508273ffffffffffffffffffffffffffffffffffffffff163373ffffffffffffffffffffffffffffffffffffffff167f623b3804fa71d67900d064613da8f94b9617215ee90799290593e1745087ad188484604051808381526020018281526020019250505060405180910390a36105566109b2565b505050565b60045481565b60025481565b60065481565b60055481565b600760009054906101000a900473ffffffffffffffffffffffffffffffffffffffff1673ffffffffffffffffffffffffffffffffffffffff163373ffffffffffffffffffffffffffffffffffffffff161415156105cf57600080fd5b600760149054906101000a900460ff161515156105eb57600080fd5b6105f3610783565b15156105fe57600080fd5b610606610a16565b7f6823b073d48d6e3a7d385eeb601452d680e74bb46afe3255a7d778f3a9b1768160405160405180910390a16001600760146101000a81548160ff0219169083151502179055506000809054906101000a900473ffffffffffffffffffffffffffffffffffffffff1673ffffffffffffffffffffffffffffffffffffffff1663f2fde38b336040518263ffffffff167c0100000000000000000000000000000000000000000000000000000000028152600401808273ffffffffffffffffffffffffffffffffffffffff1673ffffffffffffffffffffffffffffffffffffffff168152602001915050600060405180830381600087803b151561070857600080fd5b6102c65a03f1151561071957600080fd5b505050565b600360009054906101000a900473ffffffffffffffffffffffffffffffffffffffff1681565b60015481565b600760149054906101000a900460ff1681565b600760009054906101000a900473ffffffffffffffffffffffffffffffffffffffff1681565b60008060065460055410159050610798610ac1565b806107a05750805b91505090565b600760009054906101000a900473ffffffffffffffffffffffffffffffffffffffff1673ffffffffffffffffffffffffffffffffffffffff163373ffffffffffffffffffffffffffffffffffffffff1614151561080257600080fd5b600073ffffffffffffffffffffffffffffffffffffffff168173ffffffffffffffffffffffffffffffffffffffff161415151561083e57600080fd5b8073ffffffffffffffffffffffffffffffffffffffff16600760009054906101000a900473ffffffffffffffffffffffffffffffffffffffff1673ffffffffffffffffffffffffffffffffffffffff167f8be0079c531659141344cd1fd0a4f28419497f9722a3daafe3b4186f6b6457e060405160405180910390a380600760006101000a81548173ffffffffffffffffffffffffffffffffffffffff021916908373ffffffffffffffffffffffffffffffffffffffff16021790555050565b6000809054906101000a900473ffffffffffffffffffffffffffffffffffffffff1681565b60008060065461093e3460055461099490919063ffffffff16565b1115905061094a610acd565b80156109535750805b91505090565b600080600084141561096e576000915061098d565b828402905082848281151561097f57fe5b0414151561098957fe5b8091505b5092915050565b60008082840190508381101515156109a857fe5b8091505092915050565b600360009054906101000a900473ffffffffffffffffffffffffffffffffffffffff1673ffffffffffffffffffffffffffffffffffffffff166108fc349081150290604051600060405180830381858888f193505050501515610a1457600080fd5b565b6000809054906101000a900473ffffffffffffffffffffffffffffffffffffffff1673ffffffffffffffffffffffffffffffffffffffff16637d64bcb46000604051602001526040518163ffffffff167c0100000000000000000000000000000000000000000000000000000000028152600401602060405180830381600087803b1515610aa357600080fd5b6102c65a03f11515610ab457600080fd5b5050506040518051905050565b60006002544211905090565b60008060006001544210158015610ae657506002544211155b915060003414159050818015610af95750805b9250505090565b6000610b0a610b25565b604051809103906000f0801515610b2057600080fd5b905090565b6040516139ef8062000b3783390190560060606040526000600360146101000a81548160ff0219169083151502179055506000600360156101000a81548160ff0219169083151502179055506040805190810160405280601981526020017f416b617368612042657461205465737420546f6b656e20233100000000000000815250600490805190602001906200008792919062000140565b506040805190810160405280600481526020017f414554480000000000000000000000000000000000000000000000000000000081525060059080519060200190620000d592919062000140565b506012600660006101000a81548160ff021916908360ff1602179055506201518060075533600360006101000a81548173ffffffffffffffffffffffffffffffffffffffff021916908373ffffffffffffffffffffffffffffffffffffffff160217905550620001ef565b828054600181600116156101000203166002900490600052602060002090601f016020900481019282601f106200018357805160ff1916838001178555620001b4565b82800160010185558215620001b4579182015b82811115620001b357825182559160200191906001019062000196565b5b509050620001c39190620001c7565b5090565b620001ec91905b80821115620001e8576000816000905550600101620001ce565b5090565b90565b6137f080620001ff6000396000f3006060604052600436106101a1576000357c0100000000000000000000000000000000000000000000000000000000900463ffffffff16806305d2035b146101a657806306fdde03146101d3578063095ea7b3146102615780630d668087146102bb57806318160ddd146102e45780632108b3541461030d57806323b872dd146103765780632a3f5080146103ef578063313ce5671461045c5780633f4ba83a1461048b57806340c10f19146104a05780634e543b26146104fa578063501951ed146105335780635c975abb1461056e5780635f8962461461059b57806366188463146105c85780636ab465bd146106225780636d2b9de01461065d57806370a08231146106aa5780637d64bcb4146106f75780638456cb59146107245780638488893a146107395780638da5cb5b146107cb5780638f0ecae21461082057806395d89b4114610859578063a9059cbb146108e7578063ae04d45d14610941578063d73dd62314610964578063dd62ed3e146109be578063f19e2a2114610a2a578063f2a3668414610a77578063f2fde38b14610ad2578063f51724df14610b0b575b600080fd5b34156101b157600080fd5b6101b9610b65565b604051808215151515815260200191505060405180910390f35b34156101de57600080fd5b6101e6610b78565b6040518080602001828103825283818151815260200191508051906020019080838360005b8381101561022657808201518184015260208101905061020b565b50505050905090810190601f1680156102535780820380516001836020036101000a031916815260200191505b509250505060405180910390f35b341561026c57600080fd5b6102a1600480803573ffffffffffffffffffffffffffffffffffffffff16906020019091908035906020019091905050610c16565b604051808215151515815260200191505060405180910390f35b34156102c657600080fd5b6102ce610c46565b6040518082815260200191505060405180910390f35b34156102ef57600080fd5b6102f7610c4c565b6040518082815260200191505060405180910390f35b341561031857600080fd5b61034d600480803573ffffffffffffffffffffffffffffffffffffffff16906020019091908035906020019091905050610c52565b604051808360ff1660ff1681526020018260ff1660ff1681526020019250505060405180910390f35b341561038157600080fd5b6103d5600480803573ffffffffffffffffffffffffffffffffffffffff1690602001909190803573ffffffffffffffffffffffffffffffffffffffff16906020019091908035906020019091905050610d65565b604051808215151515815260200191505060405180910390f35b34156103fa57600080fd5b610432600480803573ffffffffffffffffffffffffffffffffffffffff1690602001909190803560ff16906020019091905050610d97565b604051808481526020018381526020018260ff1660ff168152602001935050505060405180910390f35b341561046757600080fd5b61046f610ee4565b604051808260ff1660ff16815260200191505060405180910390f35b341561049657600080fd5b61049e610ef7565b005b34156104ab57600080fd5b6104e0600480803573ffffffffffffffffffffffffffffffffffffffff16906020019091908035906020019091905050610fb7565b604051808215151515815260200191505060405180910390f35b341561050557600080fd5b610531600480803573ffffffffffffffffffffffffffffffffffffffff1690602001909190505061119f565b005b341561053e57600080fd5b610554600480803590602001909190505061123f565b604051808215151515815260200191505060405180910390f35b341561057957600080fd5b6105816114d5565b604051808215151515815260200191505060405180910390f35b34156105a657600080fd5b6105ae6114e8565b604051808215151515815260200191505060405180910390f35b34156105d357600080fd5b610608600480803573ffffffffffffffffffffffffffffffffffffffff169060200190919080359060200190919050506118ea565b604051808215151515815260200191505060405180910390f35b341561062d57600080fd5b610643600480803590602001909190505061191a565b604051808215151515815260200191505060405180910390f35b341561066857600080fd5b610694600480803573ffffffffffffffffffffffffffffffffffffffff16906020019091905050611f6b565b6040518082815260200191505060405180910390f35b34156106b557600080fd5b6106e1600480803573ffffffffffffffffffffffffffffffffffffffff16906020019091905050611fd7565b6040518082815260200191505060405180910390f35b341561070257600080fd5b61070a612020565b604051808215151515815260200191505060405180910390f35b341561072f57600080fd5b6107376120e8565b005b6107b1600480803573ffffffffffffffffffffffffffffffffffffffff1690602001909190803590602001909190803590602001908201803590602001908080601f016020809104026020016040519081016040528093929190818152602001838380828437820191505050505050919050506121a9565b604051808215151515815260200191505060405180910390f35b34156107d657600080fd5b6107de6124d0565b604051808273ffffffffffffffffffffffffffffffffffffffff1673ffffffffffffffffffffffffffffffffffffffff16815260200191505060405180910390f35b341561082b57600080fd5b610857600480803573ffffffffffffffffffffffffffffffffffffffff169060200190919050506124f6565b005b341561086457600080fd5b61086c612596565b6040518080602001828103825283818151815260200191508051906020019080838360005b838110156108ac578082015181840152602081019050610891565b50505050905090810190601f1680156108d95780820380516001836020036101000a031916815260200191505b509250505060405180910390f35b34156108f257600080fd5b610927600480803573ffffffffffffffffffffffffffffffffffffffff16906020019091908035906020019091905050612634565b604051808215151515815260200191505060405180910390f35b341561094c57600080fd5b6109626004808035906020019091905050612664565b005b341561096f57600080fd5b6109a4600480803573ffffffffffffffffffffffffffffffffffffffff169060200190919080359060200190919050506126ca565b604051808215151515815260200191505060405180910390f35b34156109c957600080fd5b610a14600480803573ffffffffffffffffffffffffffffffffffffffff1690602001909190803573ffffffffffffffffffffffffffffffffffffffff169060200190919050506126fa565b6040518082815260200191505060405180910390f35b3415610a3557600080fd5b610a61600480803573ffffffffffffffffffffffffffffffffffffffff16906020019091905050612781565b6040518082815260200191505060405180910390f35b3415610a8257600080fd5b610aae600480803573ffffffffffffffffffffffffffffffffffffffff169060200190919050506127ec565b60405180848152602001838152602001828152602001935050505060405180910390f35b3415610add57600080fd5b610b09600480803573ffffffffffffffffffffffffffffffffffffffff16906020019091905050612903565b005b3415610b1657600080fd5b610b4b600480803573ffffffffffffffffffffffffffffffffffffffff16906020019091908035906020019091905050612a5b565b604051808215151515815260200191505060405180910390f35b600360149054906101000a900460ff1681565b60048054600181600116156101000203166002900480601f016020809104026020016040519081016040528092919081815260200182805460018160011615610100020316600290048015610c0e5780601f10610be357610100808354040283529160200191610c0e565b820191906000526020600020905b815481529060010190602001808311610bf157829003601f168201915b505050505081565b6000600360159054906101000a900460ff16151515610c3457600080fd5b610c3e8383612c11565b905092915050565b60075481565b60005481565b600080600080600080925060009150600090505b60208160ff161015610d55576000600b60008973ffffffffffffffffffffffffffffffffffffffff1673ffffffffffffffffffffffffffffffffffffffff1681526020019081526020016000206000018260ff16602081101515610cc657fe5b60020201600001541115610d4857828060010193505085600b60008973ffffffffffffffffffffffffffffffffffffffff1673ffffffffffffffffffffffffffffffffffffffff1681526020019081526020016000206000018260ff16602081101515610d2f57fe5b6002020160010154111515610d475781806001019250505b5b8080600101915050610c66565b8282945094505050509250929050565b6000600360159054906101000a900460ff16151515610d8357600080fd5b610d8e848484612d03565b90509392505050565b6000806000808490505b60208160ff161015610edc576000600b60008873ffffffffffffffffffffffffffffffffffffffff1673ffffffffffffffffffffffffffffffffffffffff1681526020019081526020016000206000018260ff16602081101515610e0157fe5b60020201600001541115610ecf57600b60008773ffffffffffffffffffffffffffffffffffffffff1673ffffffffffffffffffffffffffffffffffffffff1681526020019081526020016000206000018160ff16602081101515610e6157fe5b60020201600001549350600b60008773ffffffffffffffffffffffffffffffffffffffff1673ffffffffffffffffffffffffffffffffffffffff1681526020019081526020016000206000018160ff16602081101515610ebd57fe5b60020201600101549250809150610edc565b8080600101915050610da1565b509250925092565b600660009054906101000a900460ff1681565b600360009054906101000a900473ffffffffffffffffffffffffffffffffffffffff1673ffffffffffffffffffffffffffffffffffffffff163373ffffffffffffffffffffffffffffffffffffffff16141515610f5357600080fd5b600360159054906101000a900460ff161515610f6e57600080fd5b6000600360156101000a81548160ff0219169083151502179055507f7805862f689e2f13df9f062ff482ad3ad112aca9e0847911ed832e158c525b3360405160405180910390a1565b6000600360009054906101000a900473ffffffffffffffffffffffffffffffffffffffff1673ffffffffffffffffffffffffffffffffffffffff163373ffffffffffffffffffffffffffffffffffffffff1614151561101557600080fd5b600360149054906101000a900460ff1615151561103157600080fd5b611046826000546130c290919063ffffffff16565b60008190555061109e82600160008673ffffffffffffffffffffffffffffffffffffffff1673ffffffffffffffffffffffffffffffffffffffff168152602001908152602001600020546130c290919063ffffffff16565b600160008573ffffffffffffffffffffffffffffffffffffffff1673ffffffffffffffffffffffffffffffffffffffff168152602001908152602001600020819055508273ffffffffffffffffffffffffffffffffffffffff167f0f6798a560793a54c3bcfe86a93cde1e73087d944c0ea20544137d4121396885836040518082815260200191505060405180910390a28273ffffffffffffffffffffffffffffffffffffffff16600073ffffffffffffffffffffffffffffffffffffffff167fddf252ad1be2c89b69c2b068fc378daa952ba7f163c4a11628f55a4df523b3ef846040518082815260200191505060405180910390a36001905092915050565b600360009054906101000a900473ffffffffffffffffffffffffffffffffffffffff1673ffffffffffffffffffffffffffffffffffffffff163373ffffffffffffffffffffffffffffffffffffffff161415156111fb57600080fd5b80600960006101000a81548173ffffffffffffffffffffffffffffffffffffffff021916908373ffffffffffffffffffffffffffffffffffffffff16021790555050565b600081600160003373ffffffffffffffffffffffffffffffffffffffff1673ffffffffffffffffffffffffffffffffffffffff168152602001908152602001600020541015151561128c57fe5b6112de82600160003373ffffffffffffffffffffffffffffffffffffffff1673ffffffffffffffffffffffffffffffffffffffff168152602001908152602001600020546130e090919063ffffffff16565b600160003373ffffffffffffffffffffffffffffffffffffffff1673ffffffffffffffffffffffffffffffffffffffff1681526020019081526020016000208190555061139582600a60003373ffffffffffffffffffffffffffffffffffffffff1673ffffffffffffffffffffffffffffffffffffffff168152602001908152602001600020600080600281111561137257fe5b60ff1660ff168152602001908152602001600020546130c290919063ffffffff16565b600a60003373ffffffffffffffffffffffffffffffffffffffff1673ffffffffffffffffffffffffffffffffffffffff16815260200190815260200160002060008060028111156113e257fe5b60ff1660ff1681526020019081526020016000208190555060003373ffffffffffffffffffffffffffffffffffffffff167fddf252ad1be2c89b69c2b068fc378daa952ba7f163c4a11628f55a4df523b3ef846040518082815260200191505060405180910390a37f0f30aa5a186db94018a20857f8cbe6f1156cb35de19b2f988e78733e44f6590f33600084604051808473ffffffffffffffffffffffffffffffffffffffff1673ffffffffffffffffffffffffffffffffffffffff1681526020018360028111156114b157fe5b60ff168152602001828152602001935050505060405180910390a160019050919050565b600360159054906101000a900460ff1681565b60008060008090505b60208160ff1610156118e15742600b60003373ffffffffffffffffffffffffffffffffffffffff1673ffffffffffffffffffffffffffffffffffffffff1681526020019081526020016000206000018260ff1660208110151561155057fe5b600202016001015410156118d4576000600b60003373ffffffffffffffffffffffffffffffffffffffff1673ffffffffffffffffffffffffffffffffffffffff1681526020019081526020016000206000018260ff166020811015156115b257fe5b600202016000015411156118d357600b60003373ffffffffffffffffffffffffffffffffffffffff1673ffffffffffffffffffffffffffffffffffffffff1681526020019081526020016000206000018160ff1660208110151561161257fe5b6002020160000154915061169182600a60003373ffffffffffffffffffffffffffffffffffffffff1673ffffffffffffffffffffffffffffffffffffffff16815260200190815260200160002060006001600281111561166e57fe5b60ff1660ff168152602001908152602001600020546130e090919063ffffffff16565b600a60003373ffffffffffffffffffffffffffffffffffffffff1673ffffffffffffffffffffffffffffffffffffffff1681526020019081526020016000206000600160028111156116df57fe5b60ff1660ff1681526020019081526020016000208190555061174982600160003373ffffffffffffffffffffffffffffffffffffffff1673ffffffffffffffffffffffffffffffffffffffff168152602001908152602001600020546130c290919063ffffffff16565b600160003373ffffffffffffffffffffffffffffffffffffffff1673ffffffffffffffffffffffffffffffffffffffff16815260200190815260200160002081905550600b60003373ffffffffffffffffffffffffffffffffffffffff1673ffffffffffffffffffffffffffffffffffffffff1681526020019081526020016000206000018160ff166020811015156117de57fe5b600202016000808201600090556001820160009055505080600b60003373ffffffffffffffffffffffffffffffffffffffff1673ffffffffffffffffffffffffffffffffffffffff16815260200190815260200160002060400160006101000a81548160ff021916908360ff1602179055507f0f30aa5a186db94018a20857f8cbe6f1156cb35de19b2f988e78733e44f6590f33600284604051808473ffffffffffffffffffffffffffffffffffffffff1673ffffffffffffffffffffffffffffffffffffffff1681526020018360028111156118b757fe5b60ff168152602001828152602001935050505060405180910390a15b5b80806001019150506114f1565b60019250505090565b6000600360159054906101000a900460ff1615151561190857600080fd5b61191283836130f9565b905092915050565b60006119246137aa565b6000808411151561193457600080fd5b6020600b60003373ffffffffffffffffffffffffffffffffffffffff1673ffffffffffffffffffffffffffffffffffffffff16815260200190815260200160002060400160009054906101000a900460ff1660ff1610151561199257fe5b611a0684600a60003373ffffffffffffffffffffffffffffffffffffffff1673ffffffffffffffffffffffffffffffffffffffff16815260200190815260200160002060008060028111156119e357fe5b60ff1660ff168152602001908152602001600020546130e090919063ffffffff16565b600a60003373ffffffffffffffffffffffffffffffffffffffff1673ffffffffffffffffffffffffffffffffffffffff1681526020019081526020016000206000806002811115611a5357fe5b60ff1660ff16815260200190815260200160002081905550611ae084600a60003373ffffffffffffffffffffffffffffffffffffffff1673ffffffffffffffffffffffffffffffffffffffff168152602001908152602001600020600060016002811115611abd57fe5b60ff1660ff168152602001908152602001600020546130c290919063ffffffff16565b600a60003373ffffffffffffffffffffffffffffffffffffffff1673ffffffffffffffffffffffffffffffffffffffff168152602001908152602001600020600060016002811115611b2e57fe5b60ff1660ff1681526020019081526020016000208190555060408051908101604052808581526020016007544201815250915081600b60003373ffffffffffffffffffffffffffffffffffffffff1673ffffffffffffffffffffffffffffffffffffffff168152602001908152602001600020600001600b60003373ffffffffffffffffffffffffffffffffffffffff1673ffffffffffffffffffffffffffffffffffffffff16815260200190815260200160002060400160009054906101000a900460ff1660ff16602081101515611c0357fe5b600202016000820151816000015560208201518160010155905050601f600b60003373ffffffffffffffffffffffffffffffffffffffff1673ffffffffffffffffffffffffffffffffffffffff16815260200190815260200160002060400160009054906101000a900460ff1660ff161415611cda576000600b60003373ffffffffffffffffffffffffffffffffffffffff1673ffffffffffffffffffffffffffffffffffffffff16815260200190815260200160002060400160006101000a81548160ff021916908360ff160217905550611d4d565b600b60003373ffffffffffffffffffffffffffffffffffffffff1673ffffffffffffffffffffffffffffffffffffffff168152602001908152602001600020604001600081819054906101000a900460ff168092919060010191906101000a81548160ff021916908360ff160217905550505b600090505b6020600b60003373ffffffffffffffffffffffffffffffffffffffff1673ffffffffffffffffffffffffffffffffffffffff16815260200190815260200160002060400160009054906101000a900460ff1660ff161015611ede576000600b60003373ffffffffffffffffffffffffffffffffffffffff1673ffffffffffffffffffffffffffffffffffffffff168152602001908152602001600020600001600b60003373ffffffffffffffffffffffffffffffffffffffff1673ffffffffffffffffffffffffffffffffffffffff16815260200190815260200160002060400160009054906101000a900460ff1660ff16602081101515611e5057fe5b60020201600101541415611e675760019050611ede565b600b60003373ffffffffffffffffffffffffffffffffffffffff1673ffffffffffffffffffffffffffffffffffffffff168152602001908152602001600020604001600081819054906101000a900460ff168092919060010191906101000a81548160ff021916908360ff16021790555050611d52565b7f0f30aa5a186db94018a20857f8cbe6f1156cb35de19b2f988e78733e44f6590f33600186604051808473ffffffffffffffffffffffffffffffffffffffff1673ffffffffffffffffffffffffffffffffffffffff168152602001836002811115611f4557fe5b60ff168152602001828152602001935050505060405180910390a1600192505050919050565b6000600a60008373ffffffffffffffffffffffffffffffffffffffff1673ffffffffffffffffffffffffffffffffffffffff168152602001908152602001600020600060016002811115611fbb57fe5b60ff1660ff168152602001908152602001600020549050919050565b6000600160008373ffffffffffffffffffffffffffffffffffffffff1673ffffffffffffffffffffffffffffffffffffffff168152602001908152602001600020549050919050565b6000600360009054906101000a900473ffffffffffffffffffffffffffffffffffffffff1673ffffffffffffffffffffffffffffffffffffffff163373ffffffffffffffffffffffffffffffffffffffff1614151561207e57600080fd5b600360149054906101000a900460ff1615151561209a57600080fd5b6001600360146101000a81548160ff0219169083151502179055507fae5184fba832cb2b1f702aca6117b8d265eaf03ad33eb133f19dde0f5920fa0860405160405180910390a16001905090565b600360009054906101000a900473ffffffffffffffffffffffffffffffffffffffff1673ffffffffffffffffffffffffffffffffffffffff163373ffffffffffffffffffffffffffffffffffffffff1614151561214457600080fd5b600360159054906101000a900460ff1615151561216057600080fd5b6001600360156101000a81548160ff0219169083151502179055507f6985a02210a168e66602d3235cb6db0e70f92b3ba4d376a33c0f3d9434bff62560405160405180910390a1565b60008060008411806121bb5750600034115b15156121c657600080fd5b600960009054906101000a900473ffffffffffffffffffffffffffffffffffffffff1673ffffffffffffffffffffffffffffffffffffffff1663e30bd740866000604051602001526040518263ffffffff167c0100000000000000000000000000000000000000000000000000000000028152600401808273ffffffffffffffffffffffffffffffffffffffff1673ffffffffffffffffffffffffffffffffffffffff168152602001915050602060405180830381600087803b151561228b57600080fd5b6102c65a03f1151561229c57600080fd5b505050604051805190509050600060010260001916816000191614151561238557600960009054906101000a900473ffffffffffffffffffffffffffffffffffffffff1673ffffffffffffffffffffffffffffffffffffffff1663c59315bf826000604051602001526040518263ffffffff167c0100000000000000000000000000000000000000000000000000000000028152600401808260001916600019168152602001915050602060405180830381600087803b151561235e57600080fd5b6102c65a03f1151561236f57600080fd5b50505060405180519050151561238457600080fd5b5b60008411156123a4576123988585612634565b15156123a357600080fd5b5b60003411156123ee578473ffffffffffffffffffffffffffffffffffffffff166108fc349081150290604051600060405180830381858888f1935050505015156123ed57600080fd5b5b8473ffffffffffffffffffffffffffffffffffffffff163373ffffffffffffffffffffffffffffffffffffffff167ff0867503c5147c27b10a8e12f7c0ca20f597dc2174d3a6b51a25cb7c5191460a8634876040518084815260200183815260200180602001828103825283818151815260200191508051906020019080838360005b8381101561248c578082015181840152602081019050612471565b50505050905090810190601f1680156124b95780820380516001836020036101000a031916815260200191505b5094505050505060405180910390a3509392505050565b600360009054906101000a900473ffffffffffffffffffffffffffffffffffffffff1681565b600360009054906101000a900473ffffffffffffffffffffffffffffffffffffffff1673ffffffffffffffffffffffffffffffffffffffff163373ffffffffffffffffffffffffffffffffffffffff1614151561255257600080fd5b80600860006101000a81548173ffffffffffffffffffffffffffffffffffffffff021916908373ffffffffffffffffffffffffffffffffffffffff16021790555050565b60058054600181600116156101000203166002900480601f01602080910402602001604051908101604052809291908181526020018280546001816001161561010002031660029004801561262c5780601f106126015761010080835404028352916020019161262c565b820191906000526020600020905b81548152906001019060200180831161260f57829003601f168201915b505050505081565b6000600360159054906101000a900460ff1615151561265257600080fd5b61265c838361338a565b905092915050565b600360009054906101000a900473ffffffffffffffffffffffffffffffffffffffff1673ffffffffffffffffffffffffffffffffffffffff163373ffffffffffffffffffffffffffffffffffffffff161415156126c057600080fd5b8060078190555050565b6000600360159054906101000a900460ff161515156126e857600080fd5b6126f283836135ae565b905092915050565b6000600260008473ffffffffffffffffffffffffffffffffffffffff1673ffffffffffffffffffffffffffffffffffffffff16815260200190815260200160002060008373ffffffffffffffffffffffffffffffffffffffff1673ffffffffffffffffffffffffffffffffffffffff16815260200190815260200160002054905092915050565b6000600a60008373ffffffffffffffffffffffffffffffffffffffff1673ffffffffffffffffffffffffffffffffffffffff16815260200190815260200160002060008060028111156127d057fe5b60ff1660ff168152602001908152602001600020549050919050565b6000806000600160008573ffffffffffffffffffffffffffffffffffffffff1673ffffffffffffffffffffffffffffffffffffffff168152602001908152602001600020549250600a60008573ffffffffffffffffffffffffffffffffffffffff1673ffffffffffffffffffffffffffffffffffffffff168152602001908152602001600020600080600281111561288057fe5b60ff1660ff168152602001908152602001600020549150600a60008573ffffffffffffffffffffffffffffffffffffffff1673ffffffffffffffffffffffffffffffffffffffff1681526020019081526020016000206000600160028111156128e557fe5b60ff1660ff1681526020019081526020016000205490509193909250565b600360009054906101000a900473ffffffffffffffffffffffffffffffffffffffff1673ffffffffffffffffffffffffffffffffffffffff163373ffffffffffffffffffffffffffffffffffffffff1614151561295f57600080fd5b600073ffffffffffffffffffffffffffffffffffffffff168173ffffffffffffffffffffffffffffffffffffffff161415151561299b57600080fd5b8073ffffffffffffffffffffffffffffffffffffffff16600360009054906101000a900473ffffffffffffffffffffffffffffffffffffffff1673ffffffffffffffffffffffffffffffffffffffff167f8be0079c531659141344cd1fd0a4f28419497f9722a3daafe3b4186f6b6457e060405160405180910390a380600360006101000a81548173ffffffffffffffffffffffffffffffffffffffff021916908373ffffffffffffffffffffffffffffffffffffffff16021790555050565b6000600860009054906101000a900473ffffffffffffffffffffffffffffffffffffffff1673ffffffffffffffffffffffffffffffffffffffff163373ffffffffffffffffffffffffffffffffffffffff16141515612ab957600080fd5b612ace826000546130c290919063ffffffff16565b600081905550612b2682600160008673ffffffffffffffffffffffffffffffffffffffff1673ffffffffffffffffffffffffffffffffffffffff168152602001908152602001600020546130c290919063ffffffff16565b600160008573ffffffffffffffffffffffffffffffffffffffff1673ffffffffffffffffffffffffffffffffffffffff168152602001908152602001600020819055508273ffffffffffffffffffffffffffffffffffffffff167f0f6798a560793a54c3bcfe86a93cde1e73087d944c0ea20544137d4121396885836040518082815260200191505060405180910390a28273ffffffffffffffffffffffffffffffffffffffff1660007fddf252ad1be2c89b69c2b068fc378daa952ba7f163c4a11628f55a4df523b3ef846040518082815260200191505060405180910390a36001905092915050565b600081600260003373ffffffffffffffffffffffffffffffffffffffff1673ffffffffffffffffffffffffffffffffffffffff16815260200190815260200160002060008573ffffffffffffffffffffffffffffffffffffffff1673ffffffffffffffffffffffffffffffffffffffff168152602001908152602001600020819055508273ffffffffffffffffffffffffffffffffffffffff163373ffffffffffffffffffffffffffffffffffffffff167f8c5be1e5ebec7d5bd14f71427d1e84f3dd0314c0f7b2291e5b200ac8c7c3b925846040518082815260200191505060405180910390a36001905092915050565b60008073ffffffffffffffffffffffffffffffffffffffff168373ffffffffffffffffffffffffffffffffffffffff1614151515612d4057600080fd5b600160008573ffffffffffffffffffffffffffffffffffffffff1673ffffffffffffffffffffffffffffffffffffffff168152602001908152602001600020548211151515612d8e57600080fd5b600260008573ffffffffffffffffffffffffffffffffffffffff1673ffffffffffffffffffffffffffffffffffffffff16815260200190815260200160002060003373ffffffffffffffffffffffffffffffffffffffff1673ffffffffffffffffffffffffffffffffffffffff168152602001908152602001600020548211151515612e1957600080fd5b612e6b82600160008773ffffffffffffffffffffffffffffffffffffffff1673ffffffffffffffffffffffffffffffffffffffff168152602001908152602001600020546130e090919063ffffffff16565b600160008673ffffffffffffffffffffffffffffffffffffffff1673ffffffffffffffffffffffffffffffffffffffff16815260200190815260200160002081905550612f0082600160008673ffffffffffffffffffffffffffffffffffffffff1673ffffffffffffffffffffffffffffffffffffffff168152602001908152602001600020546130c290919063ffffffff16565b600160008573ffffffffffffffffffffffffffffffffffffffff1673ffffffffffffffffffffffffffffffffffffffff16815260200190815260200160002081905550612fd282600260008773ffffffffffffffffffffffffffffffffffffffff1673ffffffffffffffffffffffffffffffffffffffff16815260200190815260200160002060003373ffffffffffffffffffffffffffffffffffffffff1673ffffffffffffffffffffffffffffffffffffffff168152602001908152602001600020546130e090919063ffffffff16565b600260008673ffffffffffffffffffffffffffffffffffffffff1673ffffffffffffffffffffffffffffffffffffffff16815260200190815260200160002060003373ffffffffffffffffffffffffffffffffffffffff1673ffffffffffffffffffffffffffffffffffffffff168152602001908152602001600020819055508273ffffffffffffffffffffffffffffffffffffffff168473ffffffffffffffffffffffffffffffffffffffff167fddf252ad1be2c89b69c2b068fc378daa952ba7f163c4a11628f55a4df523b3ef846040518082815260200191505060405180910390a3600190509392505050565b60008082840190508381101515156130d657fe5b8091505092915050565b60008282111515156130ee57fe5b818303905092915050565b600080600260003373ffffffffffffffffffffffffffffffffffffffff1673ffffffffffffffffffffffffffffffffffffffff16815260200190815260200160002060008573ffffffffffffffffffffffffffffffffffffffff1673ffffffffffffffffffffffffffffffffffffffff1681526020019081526020016000205490508083111561320a576000600260003373ffffffffffffffffffffffffffffffffffffffff1673ffffffffffffffffffffffffffffffffffffffff16815260200190815260200160002060008673ffffffffffffffffffffffffffffffffffffffff1673ffffffffffffffffffffffffffffffffffffffff1681526020019081526020016000208190555061329e565b61321d83826130e090919063ffffffff16565b600260003373ffffffffffffffffffffffffffffffffffffffff1673ffffffffffffffffffffffffffffffffffffffff16815260200190815260200160002060008673ffffffffffffffffffffffffffffffffffffffff1673ffffffffffffffffffffffffffffffffffffffff168152602001908152602001600020819055505b8373ffffffffffffffffffffffffffffffffffffffff163373ffffffffffffffffffffffffffffffffffffffff167f8c5be1e5ebec7d5bd14f71427d1e84f3dd0314c0f7b2291e5b200ac8c7c3b925600260003373ffffffffffffffffffffffffffffffffffffffff1673ffffffffffffffffffffffffffffffffffffffff16815260200190815260200160002060008873ffffffffffffffffffffffffffffffffffffffff1673ffffffffffffffffffffffffffffffffffffffff168152602001908152602001600020546040518082815260200191505060405180910390a3600191505092915050565b60008073ffffffffffffffffffffffffffffffffffffffff168373ffffffffffffffffffffffffffffffffffffffff16141515156133c757600080fd5b600160003373ffffffffffffffffffffffffffffffffffffffff1673ffffffffffffffffffffffffffffffffffffffff16815260200190815260200160002054821115151561341557600080fd5b61346782600160003373ffffffffffffffffffffffffffffffffffffffff1673ffffffffffffffffffffffffffffffffffffffff168152602001908152602001600020546130e090919063ffffffff16565b600160003373ffffffffffffffffffffffffffffffffffffffff1673ffffffffffffffffffffffffffffffffffffffff168152602001908152602001600020819055506134fc82600160008673ffffffffffffffffffffffffffffffffffffffff1673ffffffffffffffffffffffffffffffffffffffff168152602001908152602001600020546130c290919063ffffffff16565b600160008573ffffffffffffffffffffffffffffffffffffffff1673ffffffffffffffffffffffffffffffffffffffff168152602001908152602001600020819055508273ffffffffffffffffffffffffffffffffffffffff163373ffffffffffffffffffffffffffffffffffffffff167fddf252ad1be2c89b69c2b068fc378daa952ba7f163c4a11628f55a4df523b3ef846040518082815260200191505060405180910390a36001905092915050565b600061363f82600260003373ffffffffffffffffffffffffffffffffffffffff1673ffffffffffffffffffffffffffffffffffffffff16815260200190815260200160002060008673ffffffffffffffffffffffffffffffffffffffff1673ffffffffffffffffffffffffffffffffffffffff168152602001908152602001600020546130c290919063ffffffff16565b600260003373ffffffffffffffffffffffffffffffffffffffff1673ffffffffffffffffffffffffffffffffffffffff16815260200190815260200160002060008573ffffffffffffffffffffffffffffffffffffffff1673ffffffffffffffffffffffffffffffffffffffff168152602001908152602001600020819055508273ffffffffffffffffffffffffffffffffffffffff163373ffffffffffffffffffffffffffffffffffffffff167f8c5be1e5ebec7d5bd14f71427d1e84f3dd0314c0f7b2291e5b200ac8c7c3b925600260003373ffffffffffffffffffffffffffffffffffffffff1673ffffffffffffffffffffffffffffffffffffffff16815260200190815260200160002060008773ffffffffffffffffffffffffffffffffffffffff1673ffffffffffffffffffffffffffffffffffffffff168152602001908152602001600020546040518082815260200191505060405180910390a36001905092915050565b6040805190810160405280600081526020016000815250905600a165627a7a723058208ae46d5b701e178ce1537555a301ff7389df1638321c0e821937b7fb905589a20029a165627a7a72305820958ac7215ac8d828e1f0f8fec9c040d3450d9d3c17f3770355ffbd63276fa83e002960606040526000600360146101000a81548160ff0219169083151502179055506000600360156101000a81548160ff0219169083151502179055506040805190810160405280601981526020017f416b617368612042657461205465737420546f6b656e20233100000000000000815250600490805190602001906200008792919062000140565b506040805190810160405280600481526020017f414554480000000000000000000000000000000000000000000000000000000081525060059080519060200190620000d592919062000140565b506012600660006101000a81548160ff021916908360ff1602179055506201518060075533600360006101000a81548173ffffffffffffffffffffffffffffffffffffffff021916908373ffffffffffffffffffffffffffffffffffffffff160217905550620001ef565b828054600181600116156101000203166002900490600052602060002090601f016020900481019282601f106200018357805160ff1916838001178555620001b4565b82800160010185558215620001b4579182015b82811115620001b357825182559160200191906001019062000196565b5b509050620001c39190620001c7565b5090565b620001ec91905b80821115620001e8576000816000905550600101620001ce565b5090565b90565b6137f080620001ff6000396000f3006060604052600436106101a1576000357c0100000000000000000000000000000000000000000000000000000000900463ffffffff16806305d2035b146101a657806306fdde03146101d3578063095ea7b3146102615780630d668087146102bb57806318160ddd146102e45780632108b3541461030d57806323b872dd146103765780632a3f5080146103ef578063313ce5671461045c5780633f4ba83a1461048b57806340c10f19146104a05780634e543b26146104fa578063501951ed146105335780635c975abb1461056e5780635f8962461461059b57806366188463146105c85780636ab465bd146106225780636d2b9de01461065d57806370a08231146106aa5780637d64bcb4146106f75780638456cb59146107245780638488893a146107395780638da5cb5b146107cb5780638f0ecae21461082057806395d89b4114610859578063a9059cbb146108e7578063ae04d45d14610941578063d73dd62314610964578063dd62ed3e146109be578063f19e2a2114610a2a578063f2a3668414610a77578063f2fde38b14610ad2578063f51724df14610b0b575b600080fd5b34156101b157600080fd5b6101b9610b65565b604051808215151515815260200191505060405180910390f35b34156101de57600080fd5b6101e6610b78565b6040518080602001828103825283818151815260200191508051906020019080838360005b8381101561022657808201518184015260208101905061020b565b50505050905090810190601f1680156102535780820380516001836020036101000a031916815260200191505b509250505060405180910390f35b341561026c57600080fd5b6102a1600480803573ffffffffffffffffffffffffffffffffffffffff16906020019091908035906020019091905050610c16565b604051808215151515815260200191505060405180910390f35b34156102c657600080fd5b6102ce610c46565b6040518082815260200191505060405180910390f35b34156102ef57600080fd5b6102f7610c4c565b6040518082815260200191505060405180910390f35b341561031857600080fd5b61034d600480803573ffffffffffffffffffffffffffffffffffffffff16906020019091908035906020019091905050610c52565b604051808360ff1660ff1681526020018260ff1660ff1681526020019250505060405180910390f35b341561038157600080fd5b6103d5600480803573ffffffffffffffffffffffffffffffffffffffff1690602001909190803573ffffffffffffffffffffffffffffffffffffffff16906020019091908035906020019091905050610d65565b604051808215151515815260200191505060405180910390f35b34156103fa57600080fd5b610432600480803573ffffffffffffffffffffffffffffffffffffffff1690602001909190803560ff16906020019091905050610d97565b604051808481526020018381526020018260ff1660ff168152602001935050505060405180910390f35b341561046757600080fd5b61046f610ee4565b604051808260ff1660ff16815260200191505060405180910390f35b341561049657600080fd5b61049e610ef7565b005b34156104ab57600080fd5b6104e0600480803573ffffffffffffffffffffffffffffffffffffffff16906020019091908035906020019091905050610fb7565b604051808215151515815260200191505060405180910390f35b341561050557600080fd5b610531600480803573ffffffffffffffffffffffffffffffffffffffff1690602001909190505061119f565b005b341561053e57600080fd5b610554600480803590602001909190505061123f565b604051808215151515815260200191505060405180910390f35b341561057957600080fd5b6105816114d5565b604051808215151515815260200191505060405180910390f35b34156105a657600080fd5b6105ae6114e8565b604051808215151515815260200191505060405180910390f35b34156105d357600080fd5b610608600480803573ffffffffffffffffffffffffffffffffffffffff169060200190919080359060200190919050506118ea565b604051808215151515815260200191505060405180910390f35b341561062d57600080fd5b610643600480803590602001909190505061191a565b604051808215151515815260200191505060405180910390f35b341561066857600080fd5b610694600480803573ffffffffffffffffffffffffffffffffffffffff16906020019091905050611f6b565b6040518082815260200191505060405180910390f35b34156106b557600080fd5b6106e1600480803573ffffffffffffffffffffffffffffffffffffffff16906020019091905050611fd7565b6040518082815260200191505060405180910390f35b341561070257600080fd5b61070a612020565b604051808215151515815260200191505060405180910390f35b341561072f57600080fd5b6107376120e8565b005b6107b1600480803573ffffffffffffffffffffffffffffffffffffffff1690602001909190803590602001909190803590602001908201803590602001908080601f016020809104026020016040519081016040528093929190818152602001838380828437820191505050505050919050506121a9565b604051808215151515815260200191505060405180910390f35b34156107d657600080fd5b6107de6124d0565b604051808273ffffffffffffffffffffffffffffffffffffffff1673ffffffffffffffffffffffffffffffffffffffff16815260200191505060405180910390f35b341561082b57600080fd5b610857600480803573ffffffffffffffffffffffffffffffffffffffff169060200190919050506124f6565b005b341561086457600080fd5b61086c612596565b6040518080602001828103825283818151815260200191508051906020019080838360005b838110156108ac578082015181840152602081019050610891565b50505050905090810190601f1680156108d95780820380516001836020036101000a031916815260200191505b509250505060405180910390f35b34156108f257600080fd5b610927600480803573ffffffffffffffffffffffffffffffffffffffff16906020019091908035906020019091905050612634565b604051808215151515815260200191505060405180910390f35b341561094c57600080fd5b6109626004808035906020019091905050612664565b005b341561096f57600080fd5b6109a4600480803573ffffffffffffffffffffffffffffffffffffffff169060200190919080359060200190919050506126ca565b604051808215151515815260200191505060405180910390f35b34156109c957600080fd5b610a14600480803573ffffffffffffffffffffffffffffffffffffffff1690602001909190803573ffffffffffffffffffffffffffffffffffffffff169060200190919050506126fa565b6040518082815260200191505060405180910390f35b3415610a3557600080fd5b610a61600480803573ffffffffffffffffffffffffffffffffffffffff16906020019091905050612781565b6040518082815260200191505060405180910390f35b3415610a8257600080fd5b610aae600480803573ffffffffffffffffffffffffffffffffffffffff169060200190919050506127ec565b60405180848152602001838152602001828152602001935050505060405180910390f35b3415610add57600080fd5b610b09600480803573ffffffffffffffffffffffffffffffffffffffff16906020019091905050612903565b005b3415610b1657600080fd5b610b4b600480803573ffffffffffffffffffffffffffffffffffffffff16906020019091908035906020019091905050612a5b565b604051808215151515815260200191505060405180910390f35b600360149054906101000a900460ff1681565b60048054600181600116156101000203166002900480601f016020809104026020016040519081016040528092919081815260200182805460018160011615610100020316600290048015610c0e5780601f10610be357610100808354040283529160200191610c0e565b820191906000526020600020905b815481529060010190602001808311610bf157829003601f168201915b505050505081565b6000600360159054906101000a900460ff16151515610c3457600080fd5b610c3e8383612c11565b905092915050565b60075481565b60005481565b600080600080600080925060009150600090505b60208160ff161015610d55576000600b60008973ffffffffffffffffffffffffffffffffffffffff1673ffffffffffffffffffffffffffffffffffffffff1681526020019081526020016000206000018260ff16602081101515610cc657fe5b60020201600001541115610d4857828060010193505085600b60008973ffffffffffffffffffffffffffffffffffffffff1673ffffffffffffffffffffffffffffffffffffffff1681526020019081526020016000206000018260ff16602081101515610d2f57fe5b6002020160010154111515610d475781806001019250505b5b8080600101915050610c66565b8282945094505050509250929050565b6000600360159054906101000a900460ff16151515610d8357600080fd5b610d8e848484612d03565b90509392505050565b6000806000808490505b60208160ff161015610edc576000600b60008873ffffffffffffffffffffffffffffffffffffffff1673ffffffffffffffffffffffffffffffffffffffff1681526020019081526020016000206000018260ff16602081101515610e0157fe5b60020201600001541115610ecf57600b60008773ffffffffffffffffffffffffffffffffffffffff1673ffffffffffffffffffffffffffffffffffffffff1681526020019081526020016000206000018160ff16602081101515610e6157fe5b60020201600001549350600b60008773ffffffffffffffffffffffffffffffffffffffff1673ffffffffffffffffffffffffffffffffffffffff1681526020019081526020016000206000018160ff16602081101515610ebd57fe5b60020201600101549250809150610edc565b8080600101915050610da1565b509250925092565b600660009054906101000a900460ff1681565b600360009054906101000a900473ffffffffffffffffffffffffffffffffffffffff1673ffffffffffffffffffffffffffffffffffffffff163373ffffffffffffffffffffffffffffffffffffffff16141515610f5357600080fd5b600360159054906101000a900460ff161515610f6e57600080fd5b6000600360156101000a81548160ff0219169083151502179055507f7805862f689e2f13df9f062ff482ad3ad112aca9e0847911ed832e158c525b3360405160405180910390a1565b6000600360009054906101000a900473ffffffffffffffffffffffffffffffffffffffff1673ffffffffffffffffffffffffffffffffffffffff163373ffffffffffffffffffffffffffffffffffffffff1614151561101557600080fd5b600360149054906101000a900460ff1615151561103157600080fd5b611046826000546130c290919063ffffffff16565b60008190555061109e82600160008673ffffffffffffffffffffffffffffffffffffffff1673ffffffffffffffffffffffffffffffffffffffff168152602001908152602001600020546130c290919063ffffffff16565b600160008573ffffffffffffffffffffffffffffffffffffffff1673ffffffffffffffffffffffffffffffffffffffff168152602001908152602001600020819055508273ffffffffffffffffffffffffffffffffffffffff167f0f6798a560793a54c3bcfe86a93cde1e73087d944c0ea20544137d4121396885836040518082815260200191505060405180910390a28273ffffffffffffffffffffffffffffffffffffffff16600073ffffffffffffffffffffffffffffffffffffffff167fddf252ad1be2c89b69c2b068fc378daa952ba7f163c4a11628f55a4df523b3ef846040518082815260200191505060405180910390a36001905092915050565b600360009054906101000a900473ffffffffffffffffffffffffffffffffffffffff1673ffffffffffffffffffffffffffffffffffffffff163373ffffffffffffffffffffffffffffffffffffffff161415156111fb57600080fd5b80600960006101000a81548173ffffffffffffffffffffffffffffffffffffffff021916908373ffffffffffffffffffffffffffffffffffffffff16021790555050565b600081600160003373ffffffffffffffffffffffffffffffffffffffff1673ffffffffffffffffffffffffffffffffffffffff168152602001908152602001600020541015151561128c57fe5b6112de82600160003373ffffffffffffffffffffffffffffffffffffffff1673ffffffffffffffffffffffffffffffffffffffff168152602001908152602001600020546130e090919063ffffffff16565b600160003373ffffffffffffffffffffffffffffffffffffffff1673ffffffffffffffffffffffffffffffffffffffff1681526020019081526020016000208190555061139582600a60003373ffffffffffffffffffffffffffffffffffffffff1673ffffffffffffffffffffffffffffffffffffffff168152602001908152602001600020600080600281111561137257fe5b60ff1660ff168152602001908152602001600020546130c290919063ffffffff16565b600a60003373ffffffffffffffffffffffffffffffffffffffff1673ffffffffffffffffffffffffffffffffffffffff16815260200190815260200160002060008060028111156113e257fe5b60ff1660ff1681526020019081526020016000208190555060003373ffffffffffffffffffffffffffffffffffffffff167fddf252ad1be2c89b69c2b068fc378daa952ba7f163c4a11628f55a4df523b3ef846040518082815260200191505060405180910390a37f0f30aa5a186db94018a20857f8cbe6f1156cb35de19b2f988e78733e44f6590f33600084604051808473ffffffffffffffffffffffffffffffffffffffff1673ffffffffffffffffffffffffffffffffffffffff1681526020018360028111156114b157fe5b60ff168152602001828152602001935050505060405180910390a160019050919050565b600360159054906101000a900460ff1681565b60008060008090505b60208160ff1610156118e15742600b60003373ffffffffffffffffffffffffffffffffffffffff1673ffffffffffffffffffffffffffffffffffffffff1681526020019081526020016000206000018260ff1660208110151561155057fe5b600202016001015410156118d4576000600b60003373ffffffffffffffffffffffffffffffffffffffff1673ffffffffffffffffffffffffffffffffffffffff1681526020019081526020016000206000018260ff166020811015156115b257fe5b600202016000015411156118d357600b60003373ffffffffffffffffffffffffffffffffffffffff1673ffffffffffffffffffffffffffffffffffffffff1681526020019081526020016000206000018160ff1660208110151561161257fe5b6002020160000154915061169182600a60003373ffffffffffffffffffffffffffffffffffffffff1673ffffffffffffffffffffffffffffffffffffffff16815260200190815260200160002060006001600281111561166e57fe5b60ff1660ff168152602001908152602001600020546130e090919063ffffffff16565b600a60003373ffffffffffffffffffffffffffffffffffffffff1673ffffffffffffffffffffffffffffffffffffffff1681526020019081526020016000206000600160028111156116df57fe5b60ff1660ff1681526020019081526020016000208190555061174982600160003373ffffffffffffffffffffffffffffffffffffffff1673ffffffffffffffffffffffffffffffffffffffff168152602001908152602001600020546130c290919063ffffffff16565b600160003373ffffffffffffffffffffffffffffffffffffffff1673ffffffffffffffffffffffffffffffffffffffff16815260200190815260200160002081905550600b60003373ffffffffffffffffffffffffffffffffffffffff1673ffffffffffffffffffffffffffffffffffffffff1681526020019081526020016000206000018160ff166020811015156117de57fe5b600202016000808201600090556001820160009055505080600b60003373ffffffffffffffffffffffffffffffffffffffff1673ffffffffffffffffffffffffffffffffffffffff16815260200190815260200160002060400160006101000a81548160ff021916908360ff1602179055507f0f30aa5a186db94018a20857f8cbe6f1156cb35de19b2f988e78733e44f6590f33600284604051808473ffffffffffffffffffffffffffffffffffffffff1673ffffffffffffffffffffffffffffffffffffffff1681526020018360028111156118b757fe5b60ff168152602001828152602001935050505060405180910390a15b5b80806001019150506114f1565b60019250505090565b6000600360159054906101000a900460ff1615151561190857600080fd5b61191283836130f9565b905092915050565b60006119246137aa565b6000808411151561193457600080fd5b6020600b60003373ffffffffffffffffffffffffffffffffffffffff1673ffffffffffffffffffffffffffffffffffffffff16815260200190815260200160002060400160009054906101000a900460ff1660ff1610151561199257fe5b611a0684600a60003373ffffffffffffffffffffffffffffffffffffffff1673ffffffffffffffffffffffffffffffffffffffff16815260200190815260200160002060008060028111156119e357fe5b60ff1660ff168152602001908152602001600020546130e090919063ffffffff16565b600a60003373ffffffffffffffffffffffffffffffffffffffff1673ffffffffffffffffffffffffffffffffffffffff1681526020019081526020016000206000806002811115611a5357fe5b60ff1660ff16815260200190815260200160002081905550611ae084600a60003373ffffffffffffffffffffffffffffffffffffffff1673ffffffffffffffffffffffffffffffffffffffff168152602001908152602001600020600060016002811115611abd57fe5b60ff1660ff168152602001908152602001600020546130c290919063ffffffff16565b600a60003373ffffffffffffffffffffffffffffffffffffffff1673ffffffffffffffffffffffffffffffffffffffff168152602001908152602001600020600060016002811115611b2e57fe5b60ff1660ff1681526020019081526020016000208190555060408051908101604052808581526020016007544201815250915081600b60003373ffffffffffffffffffffffffffffffffffffffff1673ffffffffffffffffffffffffffffffffffffffff168152602001908152602001600020600001600b60003373ffffffffffffffffffffffffffffffffffffffff1673ffffffffffffffffffffffffffffffffffffffff16815260200190815260200160002060400160009054906101000a900460ff1660ff16602081101515611c0357fe5b600202016000820151816000015560208201518160010155905050601f600b60003373ffffffffffffffffffffffffffffffffffffffff1673ffffffffffffffffffffffffffffffffffffffff16815260200190815260200160002060400160009054906101000a900460ff1660ff161415611cda576000600b60003373ffffffffffffffffffffffffffffffffffffffff1673ffffffffffffffffffffffffffffffffffffffff16815260200190815260200160002060400160006101000a81548160ff021916908360ff160217905550611d4d565b600b60003373ffffffffffffffffffffffffffffffffffffffff1673ffffffffffffffffffffffffffffffffffffffff168152602001908152602001600020604001600081819054906101000a900460ff168092919060010191906101000a81548160ff021916908360ff160217905550505b600090505b6020600b60003373ffffffffffffffffffffffffffffffffffffffff1673ffffffffffffffffffffffffffffffffffffffff16815260200190815260200160002060400160009054906101000a900460ff1660ff161015611ede576000600b60003373ffffffffffffffffffffffffffffffffffffffff1673ffffffffffffffffffffffffffffffffffffffff168152602001908152602001600020600001600b60003373ffffffffffffffffffffffffffffffffffffffff1673ffffffffffffffffffffffffffffffffffffffff16815260200190815260200160002060400160009054906101000a900460ff1660ff16602081101515611e5057fe5b60020201600101541415611e675760019050611ede565b600b60003373ffffffffffffffffffffffffffffffffffffffff1673ffffffffffffffffffffffffffffffffffffffff168152602001908152602001600020604001600081819054906101000a900460ff168092919060010191906101000a81548160ff021916908360ff16021790555050611d52565b7f0f30aa5a186db94018a20857f8cbe6f1156cb35de19b2f988e78733e44f6590f33600186604051808473ffffffffffffffffffffffffffffffffffffffff1673ffffffffffffffffffffffffffffffffffffffff168152602001836002811115611f4557fe5b60ff168152602001828152602001935050505060405180910390a1600192505050919050565b6000600a60008373ffffffffffffffffffffffffffffffffffffffff1673ffffffffffffffffffffffffffffffffffffffff168152602001908152602001600020600060016002811115611fbb57fe5b60ff1660ff168152602001908152602001600020549050919050565b6000600160008373ffffffffffffffffffffffffffffffffffffffff1673ffffffffffffffffffffffffffffffffffffffff168152602001908152602001600020549050919050565b6000600360009054906101000a900473ffffffffffffffffffffffffffffffffffffffff1673ffffffffffffffffffffffffffffffffffffffff163373ffffffffffffffffffffffffffffffffffffffff1614151561207e57600080fd5b600360149054906101000a900460ff1615151561209a57600080fd5b6001600360146101000a81548160ff0219169083151502179055507fae5184fba832cb2b1f702aca6117b8d265eaf03ad33eb133f19dde0f5920fa0860405160405180910390a16001905090565b600360009054906101000a900473ffffffffffffffffffffffffffffffffffffffff1673ffffffffffffffffffffffffffffffffffffffff163373ffffffffffffffffffffffffffffffffffffffff1614151561214457600080fd5b600360159054906101000a900460ff1615151561216057600080fd5b6001600360156101000a81548160ff0219169083151502179055507f6985a02210a168e66602d3235cb6db0e70f92b3ba4d376a33c0f3d9434bff62560405160405180910390a1565b60008060008411806121bb5750600034115b15156121c657600080fd5b600960009054906101000a900473ffffffffffffffffffffffffffffffffffffffff1673ffffffffffffffffffffffffffffffffffffffff1663e30bd740866000604051602001526040518263ffffffff167c0100000000000000000000000000000000000000000000000000000000028152600401808273ffffffffffffffffffffffffffffffffffffffff1673ffffffffffffffffffffffffffffffffffffffff168152602001915050602060405180830381600087803b151561228b57600080fd5b6102c65a03f1151561229c57600080fd5b505050604051805190509050600060010260001916816000191614151561238557600960009054906101000a900473ffffffffffffffffffffffffffffffffffffffff1673ffffffffffffffffffffffffffffffffffffffff1663c59315bf826000604051602001526040518263ffffffff167c0100000000000000000000000000000000000000000000000000000000028152600401808260001916600019168152602001915050602060405180830381600087803b151561235e57600080fd5b6102c65a03f1151561236f57600080fd5b50505060405180519050151561238457600080fd5b5b60008411156123a4576123988585612634565b15156123a357600080fd5b5b60003411156123ee578473ffffffffffffffffffffffffffffffffffffffff166108fc349081150290604051600060405180830381858888f1935050505015156123ed57600080fd5b5b8473ffffffffffffffffffffffffffffffffffffffff163373ffffffffffffffffffffffffffffffffffffffff167ff0867503c5147c27b10a8e12f7c0ca20f597dc2174d3a6b51a25cb7c5191460a8634876040518084815260200183815260200180602001828103825283818151815260200191508051906020019080838360005b8381101561248c578082015181840152602081019050612471565b50505050905090810190601f1680156124b95780820380516001836020036101000a031916815260200191505b5094505050505060405180910390a3509392505050565b600360009054906101000a900473ffffffffffffffffffffffffffffffffffffffff1681565b600360009054906101000a900473ffffffffffffffffffffffffffffffffffffffff1673ffffffffffffffffffffffffffffffffffffffff163373ffffffffffffffffffffffffffffffffffffffff1614151561255257600080fd5b80600860006101000a81548173ffffffffffffffffffffffffffffffffffffffff021916908373ffffffffffffffffffffffffffffffffffffffff16021790555050565b60058054600181600116156101000203166002900480601f01602080910402602001604051908101604052809291908181526020018280546001816001161561010002031660029004801561262c5780601f106126015761010080835404028352916020019161262c565b820191906000526020600020905b81548152906001019060200180831161260f57829003601f168201915b505050505081565b6000600360159054906101000a900460ff1615151561265257600080fd5b61265c838361338a565b905092915050565b600360009054906101000a900473ffffffffffffffffffffffffffffffffffffffff1673ffffffffffffffffffffffffffffffffffffffff163373ffffffffffffffffffffffffffffffffffffffff161415156126c057600080fd5b8060078190555050565b6000600360159054906101000a900460ff161515156126e857600080fd5b6126f283836135ae565b905092915050565b6000600260008473ffffffffffffffffffffffffffffffffffffffff1673ffffffffffffffffffffffffffffffffffffffff16815260200190815260200160002060008373ffffffffffffffffffffffffffffffffffffffff1673ffffffffffffffffffffffffffffffffffffffff16815260200190815260200160002054905092915050565b6000600a60008373ffffffffffffffffffffffffffffffffffffffff1673ffffffffffffffffffffffffffffffffffffffff16815260200190815260200160002060008060028111156127d057fe5b60ff1660ff168152602001908152602001600020549050919050565b6000806000600160008573ffffffffffffffffffffffffffffffffffffffff1673ffffffffffffffffffffffffffffffffffffffff168152602001908152602001600020549250600a60008573ffffffffffffffffffffffffffffffffffffffff1673ffffffffffffffffffffffffffffffffffffffff168152602001908152602001600020600080600281111561288057fe5b60ff1660ff168152602001908152602001600020549150600a60008573ffffffffffffffffffffffffffffffffffffffff1673ffffffffffffffffffffffffffffffffffffffff1681526020019081526020016000206000600160028111156128e557fe5b60ff1660ff1681526020019081526020016000205490509193909250565b600360009054906101000a900473ffffffffffffffffffffffffffffffffffffffff1673ffffffffffffffffffffffffffffffffffffffff163373ffffffffffffffffffffffffffffffffffffffff1614151561295f57600080fd5b600073ffffffffffffffffffffffffffffffffffffffff168173ffffffffffffffffffffffffffffffffffffffff161415151561299b57600080fd5b8073ffffffffffffffffffffffffffffffffffffffff16600360009054906101000a900473ffffffffffffffffffffffffffffffffffffffff1673ffffffffffffffffffffffffffffffffffffffff167f8be0079c531659141344cd1fd0a4f28419497f9722a3daafe3b4186f6b6457e060405160405180910390a380600360006101000a81548173ffffffffffffffffffffffffffffffffffffffff021916908373ffffffffffffffffffffffffffffffffffffffff16021790555050565b6000600860009054906101000a900473ffffffffffffffffffffffffffffffffffffffff1673ffffffffffffffffffffffffffffffffffffffff163373ffffffffffffffffffffffffffffffffffffffff16141515612ab957600080fd5b612ace826000546130c290919063ffffffff16565b600081905550612b2682600160008673ffffffffffffffffffffffffffffffffffffffff1673ffffffffffffffffffffffffffffffffffffffff168152602001908152602001600020546130c290919063ffffffff16565b600160008573ffffffffffffffffffffffffffffffffffffffff1673ffffffffffffffffffffffffffffffffffffffff168152602001908152602001600020819055508273ffffffffffffffffffffffffffffffffffffffff167f0f6798a560793a54c3bcfe86a93cde1e73087d944c0ea20544137d4121396885836040518082815260200191505060405180910390a28273ffffffffffffffffffffffffffffffffffffffff1660007fddf252ad1be2c89b69c2b068fc378daa952ba7f163c4a11628f55a4df523b3ef846040518082815260200191505060405180910390a36001905092915050565b600081600260003373ffffffffffffffffffffffffffffffffffffffff1673ffffffffffffffffffffffffffffffffffffffff16815260200190815260200160002060008573ffffffffffffffffffffffffffffffffffffffff1673ffffffffffffffffffffffffffffffffffffffff168152602001908152602001600020819055508273ffffffffffffffffffffffffffffffffffffffff163373ffffffffffffffffffffffffffffffffffffffff167f8c5be1e5ebec7d5bd14f71427d1e84f3dd0314c0f7b2291e5b200ac8c7c3b925846040518082815260200191505060405180910390a36001905092915050565b60008073ffffffffffffffffffffffffffffffffffffffff168373ffffffffffffffffffffffffffffffffffffffff1614151515612d4057600080fd5b600160008573ffffffffffffffffffffffffffffffffffffffff1673ffffffffffffffffffffffffffffffffffffffff168152602001908152602001600020548211151515612d8e57600080fd5b600260008573ffffffffffffffffffffffffffffffffffffffff1673ffffffffffffffffffffffffffffffffffffffff16815260200190815260200160002060003373ffffffffffffffffffffffffffffffffffffffff1673ffffffffffffffffffffffffffffffffffffffff168152602001908152602001600020548211151515612e1957600080fd5b612e6b82600160008773ffffffffffffffffffffffffffffffffffffffff1673ffffffffffffffffffffffffffffffffffffffff168152602001908152602001600020546130e090919063ffffffff16565b600160008673ffffffffffffffffffffffffffffffffffffffff1673ffffffffffffffffffffffffffffffffffffffff16815260200190815260200160002081905550612f0082600160008673ffffffffffffffffffffffffffffffffffffffff1673ffffffffffffffffffffffffffffffffffffffff168152602001908152602001600020546130c290919063ffffffff16565b600160008573ffffffffffffffffffffffffffffffffffffffff1673ffffffffffffffffffffffffffffffffffffffff16815260200190815260200160002081905550612fd282600260008773ffffffffffffffffffffffffffffffffffffffff1673ffffffffffffffffffffffffffffffffffffffff16815260200190815260200160002060003373ffffffffffffffffffffffffffffffffffffffff1673ffffffffffffffffffffffffffffffffffffffff168152602001908152602001600020546130e090919063ffffffff16565b600260008673ffffffffffffffffffffffffffffffffffffffff1673ffffffffffffffffffffffffffffffffffffffff16815260200190815260200160002060003373ffffffffffffffffffffffffffffffffffffffff1673ffffffffffffffffffffffffffffffffffffffff168152602001908152602001600020819055508273ffffffffffffffffffffffffffffffffffffffff168473ffffffffffffffffffffffffffffffffffffffff167fddf252ad1be2c89b69c2b068fc378daa952ba7f163c4a11628f55a4df523b3ef846040518082815260200191505060405180910390a3600190509392505050565b60008082840190508381101515156130d657fe5b8091505092915050565b60008282111515156130ee57fe5b818303905092915050565b600080600260003373ffffffffffffffffffffffffffffffffffffffff1673ffffffffffffffffffffffffffffffffffffffff16815260200190815260200160002060008573ffffffffffffffffffffffffffffffffffffffff1673ffffffffffffffffffffffffffffffffffffffff1681526020019081526020016000205490508083111561320a576000600260003373ffffffffffffffffffffffffffffffffffffffff1673ffffffffffffffffffffffffffffffffffffffff16815260200190815260200160002060008673ffffffffffffffffffffffffffffffffffffffff1673ffffffffffffffffffffffffffffffffffffffff1681526020019081526020016000208190555061329e565b61321d83826130e090919063ffffffff16565b600260003373ffffffffffffffffffffffffffffffffffffffff1673ffffffffffffffffffffffffffffffffffffffff16815260200190815260200160002060008673ffffffffffffffffffffffffffffffffffffffff1673ffffffffffffffffffffffffffffffffffffffff168152602001908152602001600020819055505b8373ffffffffffffffffffffffffffffffffffffffff163373ffffffffffffffffffffffffffffffffffffffff167f8c5be1e5ebec7d5bd14f71427d1e84f3dd0314c0f7b2291e5b200ac8c7c3b925600260003373ffffffffffffffffffffffffffffffffffffffff1673ffffffffffffffffffffffffffffffffffffffff16815260200190815260200160002060008873ffffffffffffffffffffffffffffffffffffffff1673ffffffffffffffffffffffffffffffffffffffff168152602001908152602001600020546040518082815260200191505060405180910390a3600191505092915050565b60008073ffffffffffffffffffffffffffffffffffffffff168373ffffffffffffffffffffffffffffffffffffffff16141515156133c757600080fd5b600160003373ffffffffffffffffffffffffffffffffffffffff1673ffffffffffffffffffffffffffffffffffffffff16815260200190815260200160002054821115151561341557600080fd5b61346782600160003373ffffffffffffffffffffffffffffffffffffffff1673ffffffffffffffffffffffffffffffffffffffff168152602001908152602001600020546130e090919063ffffffff16565b600160003373ffffffffffffffffffffffffffffffffffffffff1673ffffffffffffffffffffffffffffffffffffffff168152602001908152602001600020819055506134fc82600160008673ffffffffffffffffffffffffffffffffffffffff1673ffffffffffffffffffffffffffffffffffffffff168152602001908152602001600020546130c290919063ffffffff16565b600160008573ffffffffffffffffffffffffffffffffffffffff1673ffffffffffffffffffffffffffffffffffffffff168152602001908152602001600020819055508273ffffffffffffffffffffffffffffffffffffffff163373ffffffffffffffffffffffffffffffffffffffff167fddf252ad1be2c89b69c2b068fc378daa952ba7f163c4a11628f55a4df523b3ef846040518082815260200191505060405180910390a36001905092915050565b600061363f82600260003373ffffffffffffffffffffffffffffffffffffffff1673ffffffffffffffffffffffffffffffffffffffff16815260200190815260200160002060008673ffffffffffffffffffffffffffffffffffffffff1673ffffffffffffffffffffffffffffffffffffffff168152602001908152602001600020546130c290919063ffffffff16565b600260003373ffffffffffffffffffffffffffffffffffffffff1673ffffffffffffffffffffffffffffffffffffffff16815260200190815260200160002060008573ffffffffffffffffffffffffffffffffffffffff1673ffffffffffffffffffffffffffffffffffffffff168152602001908152602001600020819055508273ffffffffffffffffffffffffffffffffffffffff163373ffffffffffffffffffffffffffffffffffffffff167f8c5be1e5ebec7d5bd14f71427d1e84f3dd0314c0f7b2291e5b200ac8c7c3b925600260003373ffffffffffffffffffffffffffffffffffffffff1673ffffffffffffffffffffffffffffffffffffffff16815260200190815260200160002060008773ffffffffffffffffffffffffffffffffffffffff1673ffffffffffffffffffffffffffffffffffffffff168152602001908152602001600020546040518082815260200191505060405180910390a36001905092915050565b6040805190810160405280600081526020016000815250905600a165627a7a723058208ae46d5b701e178ce1537555a301ff7389df1638321c0e821937b7fb905589a20029",
  "source": "",
  "sourcePath": "contracts/token/OngoingSale.sol",
  "compiler": {
    "name": "solc",
    "version": "0.4.18+commit.9cf6e910.Emscripten.clang"
  },
  "schemaVersion": "1.0.1",
  "updatedAt": "2017-12-19T15:13:40.170Z"
}