{
  "contractName": "OngoingSale",
  "abi": [
    {
      "constant": true,
      "inputs": [],
      "name": "rate",
      "outputs": [
        {
          "name": "",
          "type": "uint256"
        }
      ],
      "payable": false,
      "stateMutability": "view",
      "type": "function"
    },
    {
      "constant": true,
      "inputs": [],
      "name": "endTime",
      "outputs": [
        {
          "name": "",
          "type": "uint256"
        }
      ],
      "payable": false,
      "stateMutability": "view",
      "type": "function"
    },
    {
      "constant": true,
      "inputs": [],
      "name": "cap",
      "outputs": [
        {
          "name": "",
          "type": "uint256"
        }
      ],
      "payable": false,
      "stateMutability": "view",
      "type": "function"
    },
    {
      "constant": true,
      "inputs": [],
      "name": "weiRaised",
      "outputs": [
        {
          "name": "",
          "type": "uint256"
        }
      ],
      "payable": false,
      "stateMutability": "view",
      "type": "function"
    },
    {
      "constant": false,
      "inputs": [],
      "name": "finalize",
      "outputs": [],
      "payable": false,
      "stateMutability": "nonpayable",
      "type": "function"
    },
    {
      "constant": true,
      "inputs": [],
      "name": "wallet",
      "outputs": [
        {
          "name": "",
          "type": "address"
        }
      ],
      "payable": false,
      "stateMutability": "view",
      "type": "function"
    },
    {
      "constant": true,
      "inputs": [],
      "name": "startTime",
      "outputs": [
        {
          "name": "",
          "type": "uint256"
        }
      ],
      "payable": false,
      "stateMutability": "view",
      "type": "function"
    },
    {
      "constant": true,
      "inputs": [],
      "name": "isFinalized",
      "outputs": [
        {
          "name": "",
          "type": "bool"
        }
      ],
      "payable": false,
      "stateMutability": "view",
      "type": "function"
    },
    {
      "constant": true,
      "inputs": [],
      "name": "owner",
      "outputs": [
        {
          "name": "",
          "type": "address"
        }
      ],
      "payable": false,
      "stateMutability": "view",
      "type": "function"
    },
    {
      "constant": false,
      "inputs": [
        {
          "name": "beneficiary",
          "type": "address"
        }
      ],
      "name": "buyTokens",
      "outputs": [],
      "payable": true,
      "stateMutability": "payable",
      "type": "function"
    },
    {
      "constant": true,
      "inputs": [],
      "name": "hasEnded",
      "outputs": [
        {
          "name": "",
          "type": "bool"
        }
      ],
      "payable": false,
      "stateMutability": "view",
      "type": "function"
    },
    {
      "constant": false,
      "inputs": [
        {
          "name": "newOwner",
          "type": "address"
        }
      ],
      "name": "transferOwnership",
      "outputs": [],
      "payable": false,
      "stateMutability": "nonpayable",
      "type": "function"
    },
    {
      "constant": true,
      "inputs": [],
      "name": "token",
      "outputs": [
        {
          "name": "",
          "type": "address"
        }
      ],
      "payable": false,
      "stateMutability": "view",
      "type": "function"
    },
    {
      "inputs": [
        {
          "name": "_startBlock",
          "type": "uint256"
        },
        {
          "name": "_endBlock",
          "type": "uint256"
        },
        {
          "name": "_rate",
          "type": "uint256"
        },
        {
          "name": "_wallet",
          "type": "address"
        },
        {
          "name": "_cap",
          "type": "uint256"
        }
      ],
      "payable": false,
      "stateMutability": "nonpayable",
      "type": "constructor"
    },
    {
      "payable": true,
      "stateMutability": "payable",
      "type": "fallback"
    },
    {
      "anonymous": false,
      "inputs": [],
      "name": "Finalized",
      "type": "event"
    },
    {
      "anonymous": false,
      "inputs": [
        {
          "indexed": true,
          "name": "previousOwner",
          "type": "address"
        },
        {
          "indexed": true,
          "name": "newOwner",
          "type": "address"
        }
      ],
      "name": "OwnershipTransferred",
      "type": "event"
    },
    {
      "anonymous": false,
      "inputs": [
        {
          "indexed": true,
          "name": "purchaser",
          "type": "address"
        },
        {
          "indexed": true,
          "name": "beneficiary",
          "type": "address"
        },
        {
          "indexed": false,
          "name": "value",
          "type": "uint256"
        },
        {
          "indexed": false,
          "name": "amount",
          "type": "uint256"
        }
      ],
      "name": "TokenPurchase",
      "type": "event"
    }
  ],
  "bytecode": "0x60606040526000600760146101000a81548160ff021916908315150217905550341561002a57600080fd5b60405160a08062007e9b83398101604052808051906020019091908051906020019091908051906020019091908051906020019091908051906020019091905050808585858542841015151561007f57600080fd5b83831015151561008e57600080fd5b60008211151561009d57600080fd5b60008173ffffffffffffffffffffffffffffffffffffffff16141515156100c357600080fd5b6100de6101d964010000000002610ae2176401000000009004565b6000806101000a81548173ffffffffffffffffffffffffffffffffffffffff021916908373ffffffffffffffffffffffffffffffffffffffff16021790555083600181905550826002819055508160048190555080600360006101000a81548173ffffffffffffffffffffffffffffffffffffffff021916908373ffffffffffffffffffffffffffffffffffffffff1602179055505050505060008111151561018657600080fd5b806006819055505033600760006101000a81548173ffffffffffffffffffffffffffffffffffffffff021916908373ffffffffffffffffffffffffffffffffffffffff160217905550505050505061020f565b60006101e36101fe565b604051809103906000f08015156101f957600080fd5b905090565b60405161389c80620045ff83390190565b6143e0806200021f6000396000f3006060604052600436106100c5576000357c0100000000000000000000000000000000000000000000000000000000900463ffffffff1680632c4e722e146100d05780633197cbb6146100f9578063355274ea146101225780634042b66f1461014b5780634bb278f314610174578063521eb2731461018957806378e97925146101de5780638d4e4083146102075780638da5cb5b14610234578063ec8ac4d814610289578063ecb70fb7146102b7578063f2fde38b146102e4578063fc0c546a1461031d575b6100ce33610372565b005b34156100db57600080fd5b6100e3610545565b6040518082815260200191505060405180910390f35b341561010457600080fd5b61010c61054b565b6040518082815260200191505060405180910390f35b341561012d57600080fd5b610135610551565b6040518082815260200191505060405180910390f35b341561015657600080fd5b61015e610557565b6040518082815260200191505060405180910390f35b341561017f57600080fd5b61018761055d565b005b341561019457600080fd5b61019c610708565b604051808273ffffffffffffffffffffffffffffffffffffffff1673ffffffffffffffffffffffffffffffffffffffff16815260200191505060405180910390f35b34156101e957600080fd5b6101f161072e565b6040518082815260200191505060405180910390f35b341561021257600080fd5b61021a610734565b604051808215151515815260200191505060405180910390f35b341561023f57600080fd5b610247610747565b604051808273ffffffffffffffffffffffffffffffffffffffff1673ffffffffffffffffffffffffffffffffffffffff16815260200191505060405180910390f35b6102b5600480803573ffffffffffffffffffffffffffffffffffffffff16906020019091905050610372565b005b34156102c257600080fd5b6102ca61076d565b604051808215151515815260200191505060405180910390f35b34156102ef57600080fd5b61031b600480803573ffffffffffffffffffffffffffffffffffffffff16906020019091905050610790565b005b341561032857600080fd5b6103306108e8565b604051808273ffffffffffffffffffffffffffffffffffffffff1673ffffffffffffffffffffffffffffffffffffffff16815260200191505060405180910390f35b60008060008373ffffffffffffffffffffffffffffffffffffffff161415151561039b57600080fd5b6103a361090d565b15156103ae57600080fd5b3491506103c66004548361094390919063ffffffff16565b90506103dd8260055461097690919063ffffffff16565b6005819055506000809054906101000a900473ffffffffffffffffffffffffffffffffffffffff1673ffffffffffffffffffffffffffffffffffffffff166340c10f1984836000604051602001526040518363ffffffff167c0100000000000000000000000000000000000000000000000000000000028152600401808373ffffffffffffffffffffffffffffffffffffffff1673ffffffffffffffffffffffffffffffffffffffff16815260200182815260200192505050602060405180830381600087803b15156104af57600080fd5b6102c65a03f115156104c057600080fd5b50505060405180519050508273ffffffffffffffffffffffffffffffffffffffff163373ffffffffffffffffffffffffffffffffffffffff167f623b3804fa71d67900d064613da8f94b9617215ee90799290593e1745087ad188484604051808381526020018281526020019250505060405180910390a3610540610994565b505050565b60045481565b60025481565b60065481565b60055481565b600760009054906101000a900473ffffffffffffffffffffffffffffffffffffffff1673ffffffffffffffffffffffffffffffffffffffff163373ffffffffffffffffffffffffffffffffffffffff161415156105b957600080fd5b600760149054906101000a900460ff161515156105d557600080fd5b6105dd61076d565b15156105e857600080fd5b6105f06109f8565b7f6823b073d48d6e3a7d385eeb601452d680e74bb46afe3255a7d778f3a9b1768160405160405180910390a16001600760146101000a81548160ff0219169083151502179055506000809054906101000a900473ffffffffffffffffffffffffffffffffffffffff1673ffffffffffffffffffffffffffffffffffffffff1663f2fde38b336040518263ffffffff167c0100000000000000000000000000000000000000000000000000000000028152600401808273ffffffffffffffffffffffffffffffffffffffff1673ffffffffffffffffffffffffffffffffffffffff168152602001915050600060405180830381600087803b15156106f257600080fd5b6102c65a03f1151561070357600080fd5b505050565b600360009054906101000a900473ffffffffffffffffffffffffffffffffffffffff1681565b60015481565b600760149054906101000a900460ff1681565b600760009054906101000a900473ffffffffffffffffffffffffffffffffffffffff1681565b60008060065460055410159050610782610aa3565b8061078a5750805b91505090565b600760009054906101000a900473ffffffffffffffffffffffffffffffffffffffff1673ffffffffffffffffffffffffffffffffffffffff163373ffffffffffffffffffffffffffffffffffffffff161415156107ec57600080fd5b600073ffffffffffffffffffffffffffffffffffffffff168173ffffffffffffffffffffffffffffffffffffffff161415151561082857600080fd5b8073ffffffffffffffffffffffffffffffffffffffff16600760009054906101000a900473ffffffffffffffffffffffffffffffffffffffff1673ffffffffffffffffffffffffffffffffffffffff167f8be0079c531659141344cd1fd0a4f28419497f9722a3daafe3b4186f6b6457e060405160405180910390a380600760006101000a81548173ffffffffffffffffffffffffffffffffffffffff021916908373ffffffffffffffffffffffffffffffffffffffff16021790555050565b6000809054906101000a900473ffffffffffffffffffffffffffffffffffffffff1681565b6000806006546109283460055461097690919063ffffffff16565b11159050610934610aaf565b801561093d5750805b91505090565b60008082840290506000841480610964575082848281151561096157fe5b04145b151561096c57fe5b8091505092915050565b600080828401905083811015151561098a57fe5b8091505092915050565b600360009054906101000a900473ffffffffffffffffffffffffffffffffffffffff1673ffffffffffffffffffffffffffffffffffffffff166108fc349081150290604051600060405180830381858888f1935050505015156109f657600080fd5b565b6000809054906101000a900473ffffffffffffffffffffffffffffffffffffffff1673ffffffffffffffffffffffffffffffffffffffff16637d64bcb46000604051602001526040518163ffffffff167c0100000000000000000000000000000000000000000000000000000000028152600401602060405180830381600087803b1515610a8557600080fd5b6102c65a03f11515610a9657600080fd5b5050506040518051905050565b60006002544211905090565b60008060006001544210158015610ac857506002544211155b915060003414159050818015610adb5750805b9250505090565b6000610aec610b07565b604051809103906000f0801515610b0257600080fd5b905090565b60405161389c8062000b1983390190560060606040526000600360146101000a81548160ff0219169083151502179055506000600360156101000a81548160ff0219169083151502179055506040805190810160405280600981526020017f54657374546f6b656e0000000000000000000000000000000000000000000000815250600490805190602001906200008792919062000140565b506040805190810160405280600381526020017f545f54000000000000000000000000000000000000000000000000000000000081525060059080519060200190620000d592919062000140565b506012600660006101000a81548160ff021916908360ff1602179055506201518060075533600360006101000a81548173ffffffffffffffffffffffffffffffffffffffff021916908373ffffffffffffffffffffffffffffffffffffffff160217905550620001ef565b828054600181600116156101000203166002900490600052602060002090601f016020900481019282601f106200018357805160ff1916838001178555620001b4565b82800160010185558215620001b4579182015b82811115620001b357825182559160200191906001019062000196565b5b509050620001c39190620001c7565b5090565b620001ec91905b80821115620001e8576000816000905550600101620001ce565b5090565b90565b61369d80620001ff6000396000f3006060604052600436106101a1576000357c0100000000000000000000000000000000000000000000000000000000900463ffffffff16806305d2035b146101a657806306fdde03146101d3578063095ea7b3146102615780630d668087146102bb57806318160ddd146102e45780632108b3541461030d57806323b872dd146103765780632a3f5080146103ef578063313ce5671461045c5780633f4ba83a1461048b57806340c10f19146104a05780634e543b26146104fa578063501951ed146105335780635c975abb1461056e5780635f8962461461059b57806366188463146105c85780636ab465bd146106225780636d2b9de01461065d57806370a08231146106aa5780637d64bcb4146106f75780638456cb59146107245780638488893a146107395780638da5cb5b146107cb5780638f0ecae21461082057806395d89b4114610859578063a9059cbb146108e7578063ae04d45d14610941578063d73dd62314610964578063dd62ed3e146109be578063f19e2a2114610a2a578063f2a3668414610a77578063f2fde38b14610ad2578063f51724df14610b0b575b600080fd5b34156101b157600080fd5b6101b9610b65565b604051808215151515815260200191505060405180910390f35b34156101de57600080fd5b6101e6610b78565b6040518080602001828103825283818151815260200191508051906020019080838360005b8381101561022657808201518184015260208101905061020b565b50505050905090810190601f1680156102535780820380516001836020036101000a031916815260200191505b509250505060405180910390f35b341561026c57600080fd5b6102a1600480803573ffffffffffffffffffffffffffffffffffffffff16906020019091908035906020019091905050610c16565b604051808215151515815260200191505060405180910390f35b34156102c657600080fd5b6102ce610c46565b6040518082815260200191505060405180910390f35b34156102ef57600080fd5b6102f7610c4c565b6040518082815260200191505060405180910390f35b341561031857600080fd5b61034d600480803573ffffffffffffffffffffffffffffffffffffffff16906020019091908035906020019091905050610c52565b604051808360ff1660ff1681526020018260ff1660ff1681526020019250505060405180910390f35b341561038157600080fd5b6103d5600480803573ffffffffffffffffffffffffffffffffffffffff1690602001909190803573ffffffffffffffffffffffffffffffffffffffff16906020019091908035906020019091905050610d65565b604051808215151515815260200191505060405180910390f35b34156103fa57600080fd5b610432600480803573ffffffffffffffffffffffffffffffffffffffff1690602001909190803560ff16906020019091905050610d97565b604051808481526020018381526020018260ff1660ff168152602001935050505060405180910390f35b341561046757600080fd5b61046f610ee4565b604051808260ff1660ff16815260200191505060405180910390f35b341561049657600080fd5b61049e610ef7565b005b34156104ab57600080fd5b6104e0600480803573ffffffffffffffffffffffffffffffffffffffff16906020019091908035906020019091905050610fb7565b604051808215151515815260200191505060405180910390f35b341561050557600080fd5b610531600480803573ffffffffffffffffffffffffffffffffffffffff16906020019091905050611189565b005b341561053e57600080fd5b6105546004808035906020019091905050611229565b604051808215151515815260200191505060405180910390f35b341561057957600080fd5b6105816114bf565b604051808215151515815260200191505060405180910390f35b34156105a657600080fd5b6105ae6114d2565b604051808215151515815260200191505060405180910390f35b34156105d357600080fd5b610608600480803573ffffffffffffffffffffffffffffffffffffffff169060200190919080359060200190919050506118d4565b604051808215151515815260200191505060405180910390f35b341561062d57600080fd5b6106436004808035906020019091905050611904565b604051808215151515815260200191505060405180910390f35b341561066857600080fd5b610694600480803573ffffffffffffffffffffffffffffffffffffffff16906020019091905050611f55565b6040518082815260200191505060405180910390f35b34156106b557600080fd5b6106e1600480803573ffffffffffffffffffffffffffffffffffffffff16906020019091905050611fc1565b6040518082815260200191505060405180910390f35b341561070257600080fd5b61070a61200a565b604051808215151515815260200191505060405180910390f35b341561072f57600080fd5b6107376120b6565b005b6107b1600480803573ffffffffffffffffffffffffffffffffffffffff1690602001909190803590602001909190803590602001908201803590602001908080601f01602080910402602001604051908101604052809392919081815260200183838082843782019150505050505091905050612177565b604051808215151515815260200191505060405180910390f35b34156107d657600080fd5b6107de61249e565b604051808273ffffffffffffffffffffffffffffffffffffffff1673ffffffffffffffffffffffffffffffffffffffff16815260200191505060405180910390f35b341561082b57600080fd5b610857600480803573ffffffffffffffffffffffffffffffffffffffff169060200190919050506124c4565b005b341561086457600080fd5b61086c612564565b6040518080602001828103825283818151815260200191508051906020019080838360005b838110156108ac578082015181840152602081019050610891565b50505050905090810190601f1680156108d95780820380516001836020036101000a031916815260200191505b509250505060405180910390f35b34156108f257600080fd5b610927600480803573ffffffffffffffffffffffffffffffffffffffff16906020019091908035906020019091905050612602565b604051808215151515815260200191505060405180910390f35b341561094c57600080fd5b6109626004808035906020019091905050612632565b005b341561096f57600080fd5b6109a4600480803573ffffffffffffffffffffffffffffffffffffffff16906020019091908035906020019091905050612698565b604051808215151515815260200191505060405180910390f35b34156109c957600080fd5b610a14600480803573ffffffffffffffffffffffffffffffffffffffff1690602001909190803573ffffffffffffffffffffffffffffffffffffffff169060200190919050506126c8565b6040518082815260200191505060405180910390f35b3415610a3557600080fd5b610a61600480803573ffffffffffffffffffffffffffffffffffffffff1690602001909190505061274f565b6040518082815260200191505060405180910390f35b3415610a8257600080fd5b610aae600480803573ffffffffffffffffffffffffffffffffffffffff169060200190919050506127ba565b60405180848152602001838152602001828152602001935050505060405180910390f35b3415610add57600080fd5b610b09600480803573ffffffffffffffffffffffffffffffffffffffff169060200190919050506128d1565b005b3415610b1657600080fd5b610b4b600480803573ffffffffffffffffffffffffffffffffffffffff16906020019091908035906020019091905050612a29565b604051808215151515815260200191505060405180910390f35b600360149054906101000a900460ff1681565b60048054600181600116156101000203166002900480601f016020809104026020016040519081016040528092919081815260200182805460018160011615610100020316600290048015610c0e5780601f10610be357610100808354040283529160200191610c0e565b820191906000526020600020905b815481529060010190602001808311610bf157829003601f168201915b505050505081565b6000600360159054906101000a900460ff16151515610c3457600080fd5b610c3e8383612bdf565b905092915050565b60075481565b60005481565b600080600080600080925060009150600090505b60208160ff161015610d55576000600b60008973ffffffffffffffffffffffffffffffffffffffff1673ffffffffffffffffffffffffffffffffffffffff1681526020019081526020016000206000018260ff16602081101515610cc657fe5b60020201600001541115610d4857828060010193505085600b60008973ffffffffffffffffffffffffffffffffffffffff1673ffffffffffffffffffffffffffffffffffffffff1681526020019081526020016000206000018260ff16602081101515610d2f57fe5b6002020160010154111515610d475781806001019250505b5b8080600101915050610c66565b8282945094505050509250929050565b6000600360159054906101000a900460ff16151515610d8357600080fd5b610d8e848484612cd1565b90509392505050565b6000806000808490505b60208160ff161015610edc576000600b60008873ffffffffffffffffffffffffffffffffffffffff1673ffffffffffffffffffffffffffffffffffffffff1681526020019081526020016000206000018260ff16602081101515610e0157fe5b60020201600001541115610ecf57600b60008773ffffffffffffffffffffffffffffffffffffffff1673ffffffffffffffffffffffffffffffffffffffff1681526020019081526020016000206000018160ff16602081101515610e6157fe5b60020201600001549350600b60008773ffffffffffffffffffffffffffffffffffffffff1673ffffffffffffffffffffffffffffffffffffffff1681526020019081526020016000206000018160ff16602081101515610ebd57fe5b60020201600101549250809150610edc565b8080600101915050610da1565b509250925092565b600660009054906101000a900460ff1681565b600360009054906101000a900473ffffffffffffffffffffffffffffffffffffffff1673ffffffffffffffffffffffffffffffffffffffff163373ffffffffffffffffffffffffffffffffffffffff16141515610f5357600080fd5b600360159054906101000a900460ff161515610f6e57600080fd5b6000600360156101000a81548160ff0219169083151502179055507f7805862f689e2f13df9f062ff482ad3ad112aca9e0847911ed832e158c525b3360405160405180910390a1565b6000600360009054906101000a900473ffffffffffffffffffffffffffffffffffffffff1673ffffffffffffffffffffffffffffffffffffffff163373ffffffffffffffffffffffffffffffffffffffff1614151561101557600080fd5b600360149054906101000a900460ff1615151561103157600080fd5b61104682600054612fbd90919063ffffffff16565b60008190555061109e82600160008673ffffffffffffffffffffffffffffffffffffffff1673ffffffffffffffffffffffffffffffffffffffff16815260200190815260200160002054612fbd90919063ffffffff16565b600160008573ffffffffffffffffffffffffffffffffffffffff1673ffffffffffffffffffffffffffffffffffffffff168152602001908152602001600020819055508273ffffffffffffffffffffffffffffffffffffffff167f0f6798a560793a54c3bcfe86a93cde1e73087d944c0ea20544137d4121396885836040518082815260200191505060405180910390a28273ffffffffffffffffffffffffffffffffffffffff1660007fddf252ad1be2c89b69c2b068fc378daa952ba7f163c4a11628f55a4df523b3ef846040518082815260200191505060405180910390a36001905092915050565b600360009054906101000a900473ffffffffffffffffffffffffffffffffffffffff1673ffffffffffffffffffffffffffffffffffffffff163373ffffffffffffffffffffffffffffffffffffffff161415156111e557600080fd5b80600960006101000a81548173ffffffffffffffffffffffffffffffffffffffff021916908373ffffffffffffffffffffffffffffffffffffffff16021790555050565b600081600160003373ffffffffffffffffffffffffffffffffffffffff1673ffffffffffffffffffffffffffffffffffffffff168152602001908152602001600020541015151561127657fe5b6112c882600160003373ffffffffffffffffffffffffffffffffffffffff1673ffffffffffffffffffffffffffffffffffffffff16815260200190815260200160002054612fdb90919063ffffffff16565b600160003373ffffffffffffffffffffffffffffffffffffffff1673ffffffffffffffffffffffffffffffffffffffff1681526020019081526020016000208190555061137f82600a60003373ffffffffffffffffffffffffffffffffffffffff1673ffffffffffffffffffffffffffffffffffffffff168152602001908152602001600020600080600281111561135c57fe5b60ff1660ff16815260200190815260200160002054612fbd90919063ffffffff16565b600a60003373ffffffffffffffffffffffffffffffffffffffff1673ffffffffffffffffffffffffffffffffffffffff16815260200190815260200160002060008060028111156113cc57fe5b60ff1660ff1681526020019081526020016000208190555060003373ffffffffffffffffffffffffffffffffffffffff167fddf252ad1be2c89b69c2b068fc378daa952ba7f163c4a11628f55a4df523b3ef846040518082815260200191505060405180910390a37f0f30aa5a186db94018a20857f8cbe6f1156cb35de19b2f988e78733e44f6590f33600084604051808473ffffffffffffffffffffffffffffffffffffffff1673ffffffffffffffffffffffffffffffffffffffff16815260200183600281111561149b57fe5b60ff168152602001828152602001935050505060405180910390a160019050919050565b600360159054906101000a900460ff1681565b60008060008090505b60208160ff1610156118cb5742600b60003373ffffffffffffffffffffffffffffffffffffffff1673ffffffffffffffffffffffffffffffffffffffff1681526020019081526020016000206000018260ff1660208110151561153a57fe5b600202016001015410156118be576000600b60003373ffffffffffffffffffffffffffffffffffffffff1673ffffffffffffffffffffffffffffffffffffffff1681526020019081526020016000206000018260ff1660208110151561159c57fe5b600202016000015411156118bd57600b60003373ffffffffffffffffffffffffffffffffffffffff1673ffffffffffffffffffffffffffffffffffffffff1681526020019081526020016000206000018160ff166020811015156115fc57fe5b6002020160000154915061167b82600a60003373ffffffffffffffffffffffffffffffffffffffff1673ffffffffffffffffffffffffffffffffffffffff16815260200190815260200160002060006001600281111561165857fe5b60ff1660ff16815260200190815260200160002054612fdb90919063ffffffff16565b600a60003373ffffffffffffffffffffffffffffffffffffffff1673ffffffffffffffffffffffffffffffffffffffff1681526020019081526020016000206000600160028111156116c957fe5b60ff1660ff1681526020019081526020016000208190555061173382600160003373ffffffffffffffffffffffffffffffffffffffff1673ffffffffffffffffffffffffffffffffffffffff16815260200190815260200160002054612fbd90919063ffffffff16565b600160003373ffffffffffffffffffffffffffffffffffffffff1673ffffffffffffffffffffffffffffffffffffffff16815260200190815260200160002081905550600b60003373ffffffffffffffffffffffffffffffffffffffff1673ffffffffffffffffffffffffffffffffffffffff1681526020019081526020016000206000018160ff166020811015156117c857fe5b600202016000808201600090556001820160009055505080600b60003373ffffffffffffffffffffffffffffffffffffffff1673ffffffffffffffffffffffffffffffffffffffff16815260200190815260200160002060400160006101000a81548160ff021916908360ff1602179055507f0f30aa5a186db94018a20857f8cbe6f1156cb35de19b2f988e78733e44f6590f33600284604051808473ffffffffffffffffffffffffffffffffffffffff1673ffffffffffffffffffffffffffffffffffffffff1681526020018360028111156118a157fe5b60ff168152602001828152602001935050505060405180910390a15b5b80806001019150506114db565b60019250505090565b6000600360159054906101000a900460ff161515156118f257600080fd5b6118fc8383612ff4565b905092915050565b600061190e613657565b6000808411151561191e57600080fd5b6020600b60003373ffffffffffffffffffffffffffffffffffffffff1673ffffffffffffffffffffffffffffffffffffffff16815260200190815260200160002060400160009054906101000a900460ff1660ff1610151561197c57fe5b6119f084600a60003373ffffffffffffffffffffffffffffffffffffffff1673ffffffffffffffffffffffffffffffffffffffff16815260200190815260200160002060008060028111156119cd57fe5b60ff1660ff16815260200190815260200160002054612fdb90919063ffffffff16565b600a60003373ffffffffffffffffffffffffffffffffffffffff1673ffffffffffffffffffffffffffffffffffffffff1681526020019081526020016000206000806002811115611a3d57fe5b60ff1660ff16815260200190815260200160002081905550611aca84600a60003373ffffffffffffffffffffffffffffffffffffffff1673ffffffffffffffffffffffffffffffffffffffff168152602001908152602001600020600060016002811115611aa757fe5b60ff1660ff16815260200190815260200160002054612fbd90919063ffffffff16565b600a60003373ffffffffffffffffffffffffffffffffffffffff1673ffffffffffffffffffffffffffffffffffffffff168152602001908152602001600020600060016002811115611b1857fe5b60ff1660ff1681526020019081526020016000208190555060408051908101604052808581526020016007544201815250915081600b60003373ffffffffffffffffffffffffffffffffffffffff1673ffffffffffffffffffffffffffffffffffffffff168152602001908152602001600020600001600b60003373ffffffffffffffffffffffffffffffffffffffff1673ffffffffffffffffffffffffffffffffffffffff16815260200190815260200160002060400160009054906101000a900460ff1660ff16602081101515611bed57fe5b600202016000820151816000015560208201518160010155905050601f600b60003373ffffffffffffffffffffffffffffffffffffffff1673ffffffffffffffffffffffffffffffffffffffff16815260200190815260200160002060400160009054906101000a900460ff1660ff161415611cc4576000600b60003373ffffffffffffffffffffffffffffffffffffffff1673ffffffffffffffffffffffffffffffffffffffff16815260200190815260200160002060400160006101000a81548160ff021916908360ff160217905550611d37565b600b60003373ffffffffffffffffffffffffffffffffffffffff1673ffffffffffffffffffffffffffffffffffffffff168152602001908152602001600020604001600081819054906101000a900460ff168092919060010191906101000a81548160ff021916908360ff160217905550505b600090505b6020600b60003373ffffffffffffffffffffffffffffffffffffffff1673ffffffffffffffffffffffffffffffffffffffff16815260200190815260200160002060400160009054906101000a900460ff1660ff161015611ec8576000600b60003373ffffffffffffffffffffffffffffffffffffffff1673ffffffffffffffffffffffffffffffffffffffff168152602001908152602001600020600001600b60003373ffffffffffffffffffffffffffffffffffffffff1673ffffffffffffffffffffffffffffffffffffffff16815260200190815260200160002060400160009054906101000a900460ff1660ff16602081101515611e3a57fe5b60020201600101541415611e515760019050611ec8565b600b60003373ffffffffffffffffffffffffffffffffffffffff1673ffffffffffffffffffffffffffffffffffffffff168152602001908152602001600020604001600081819054906101000a900460ff168092919060010191906101000a81548160ff021916908360ff16021790555050611d3c565b7f0f30aa5a186db94018a20857f8cbe6f1156cb35de19b2f988e78733e44f6590f33600186604051808473ffffffffffffffffffffffffffffffffffffffff1673ffffffffffffffffffffffffffffffffffffffff168152602001836002811115611f2f57fe5b60ff168152602001828152602001935050505060405180910390a1600192505050919050565b6000600a60008373ffffffffffffffffffffffffffffffffffffffff1673ffffffffffffffffffffffffffffffffffffffff168152602001908152602001600020600060016002811115611fa557fe5b60ff1660ff168152602001908152602001600020549050919050565b6000600160008373ffffffffffffffffffffffffffffffffffffffff1673ffffffffffffffffffffffffffffffffffffffff168152602001908152602001600020549050919050565b6000600360009054906101000a900473ffffffffffffffffffffffffffffffffffffffff1673ffffffffffffffffffffffffffffffffffffffff163373ffffffffffffffffffffffffffffffffffffffff1614151561206857600080fd5b6001600360146101000a81548160ff0219169083151502179055507fae5184fba832cb2b1f702aca6117b8d265eaf03ad33eb133f19dde0f5920fa0860405160405180910390a16001905090565b600360009054906101000a900473ffffffffffffffffffffffffffffffffffffffff1673ffffffffffffffffffffffffffffffffffffffff163373ffffffffffffffffffffffffffffffffffffffff1614151561211257600080fd5b600360159054906101000a900460ff1615151561212e57600080fd5b6001600360156101000a81548160ff0219169083151502179055507f6985a02210a168e66602d3235cb6db0e70f92b3ba4d376a33c0f3d9434bff62560405160405180910390a1565b60008060008411806121895750600034115b151561219457600080fd5b600960009054906101000a900473ffffffffffffffffffffffffffffffffffffffff1673ffffffffffffffffffffffffffffffffffffffff1663e30bd740866000604051602001526040518263ffffffff167c0100000000000000000000000000000000000000000000000000000000028152600401808273ffffffffffffffffffffffffffffffffffffffff1673ffffffffffffffffffffffffffffffffffffffff168152602001915050602060405180830381600087803b151561225957600080fd5b6102c65a03f1151561226a57600080fd5b505050604051805190509050600060010260001916816000191614151561235357600960009054906101000a900473ffffffffffffffffffffffffffffffffffffffff1673ffffffffffffffffffffffffffffffffffffffff1663c59315bf826000604051602001526040518263ffffffff167c0100000000000000000000000000000000000000000000000000000000028152600401808260001916600019168152602001915050602060405180830381600087803b151561232c57600080fd5b6102c65a03f1151561233d57600080fd5b50505060405180519050151561235257600080fd5b5b6000841115612372576123668585612602565b151561237157600080fd5b5b60003411156123bc578473ffffffffffffffffffffffffffffffffffffffff166108fc349081150290604051600060405180830381858888f1935050505015156123bb57600080fd5b5b8473ffffffffffffffffffffffffffffffffffffffff163373ffffffffffffffffffffffffffffffffffffffff167ff0867503c5147c27b10a8e12f7c0ca20f597dc2174d3a6b51a25cb7c5191460a8634876040518084815260200183815260200180602001828103825283818151815260200191508051906020019080838360005b8381101561245a57808201518184015260208101905061243f565b50505050905090810190601f1680156124875780820380516001836020036101000a031916815260200191505b5094505050505060405180910390a3509392505050565b600360009054906101000a900473ffffffffffffffffffffffffffffffffffffffff1681565b600360009054906101000a900473ffffffffffffffffffffffffffffffffffffffff1673ffffffffffffffffffffffffffffffffffffffff163373ffffffffffffffffffffffffffffffffffffffff1614151561252057600080fd5b80600860006101000a81548173ffffffffffffffffffffffffffffffffffffffff021916908373ffffffffffffffffffffffffffffffffffffffff16021790555050565b60058054600181600116156101000203166002900480601f0160208091040260200160405190810160405280929190818152602001828054600181600116156101000203166002900480156125fa5780601f106125cf576101008083540402835291602001916125fa565b820191906000526020600020905b8154815290600101906020018083116125dd57829003601f168201915b505050505081565b6000600360159054906101000a900460ff1615151561262057600080fd5b61262a8383613285565b905092915050565b600360009054906101000a900473ffffffffffffffffffffffffffffffffffffffff1673ffffffffffffffffffffffffffffffffffffffff163373ffffffffffffffffffffffffffffffffffffffff1614151561268e57600080fd5b8060078190555050565b6000600360159054906101000a900460ff161515156126b657600080fd5b6126c0838361345b565b905092915050565b6000600260008473ffffffffffffffffffffffffffffffffffffffff1673ffffffffffffffffffffffffffffffffffffffff16815260200190815260200160002060008373ffffffffffffffffffffffffffffffffffffffff1673ffffffffffffffffffffffffffffffffffffffff16815260200190815260200160002054905092915050565b6000600a60008373ffffffffffffffffffffffffffffffffffffffff1673ffffffffffffffffffffffffffffffffffffffff168152602001908152602001600020600080600281111561279e57fe5b60ff1660ff168152602001908152602001600020549050919050565b6000806000600160008573ffffffffffffffffffffffffffffffffffffffff1673ffffffffffffffffffffffffffffffffffffffff168152602001908152602001600020549250600a60008573ffffffffffffffffffffffffffffffffffffffff1673ffffffffffffffffffffffffffffffffffffffff168152602001908152602001600020600080600281111561284e57fe5b60ff1660ff168152602001908152602001600020549150600a60008573ffffffffffffffffffffffffffffffffffffffff1673ffffffffffffffffffffffffffffffffffffffff1681526020019081526020016000206000600160028111156128b357fe5b60ff1660ff1681526020019081526020016000205490509193909250565b600360009054906101000a900473ffffffffffffffffffffffffffffffffffffffff1673ffffffffffffffffffffffffffffffffffffffff163373ffffffffffffffffffffffffffffffffffffffff1614151561292d57600080fd5b600073ffffffffffffffffffffffffffffffffffffffff168173ffffffffffffffffffffffffffffffffffffffff161415151561296957600080fd5b8073ffffffffffffffffffffffffffffffffffffffff16600360009054906101000a900473ffffffffffffffffffffffffffffffffffffffff1673ffffffffffffffffffffffffffffffffffffffff167f8be0079c531659141344cd1fd0a4f28419497f9722a3daafe3b4186f6b6457e060405160405180910390a380600360006101000a81548173ffffffffffffffffffffffffffffffffffffffff021916908373ffffffffffffffffffffffffffffffffffffffff16021790555050565b6000600860009054906101000a900473ffffffffffffffffffffffffffffffffffffffff1673ffffffffffffffffffffffffffffffffffffffff163373ffffffffffffffffffffffffffffffffffffffff16141515612a8757600080fd5b612a9c82600054612fbd90919063ffffffff16565b600081905550612af482600160008673ffffffffffffffffffffffffffffffffffffffff1673ffffffffffffffffffffffffffffffffffffffff16815260200190815260200160002054612fbd90919063ffffffff16565b600160008573ffffffffffffffffffffffffffffffffffffffff1673ffffffffffffffffffffffffffffffffffffffff168152602001908152602001600020819055508273ffffffffffffffffffffffffffffffffffffffff167f0f6798a560793a54c3bcfe86a93cde1e73087d944c0ea20544137d4121396885836040518082815260200191505060405180910390a28273ffffffffffffffffffffffffffffffffffffffff1660007fddf252ad1be2c89b69c2b068fc378daa952ba7f163c4a11628f55a4df523b3ef846040518082815260200191505060405180910390a36001905092915050565b600081600260003373ffffffffffffffffffffffffffffffffffffffff1673ffffffffffffffffffffffffffffffffffffffff16815260200190815260200160002060008573ffffffffffffffffffffffffffffffffffffffff1673ffffffffffffffffffffffffffffffffffffffff168152602001908152602001600020819055508273ffffffffffffffffffffffffffffffffffffffff163373ffffffffffffffffffffffffffffffffffffffff167f8c5be1e5ebec7d5bd14f71427d1e84f3dd0314c0f7b2291e5b200ac8c7c3b925846040518082815260200191505060405180910390a36001905092915050565b600080600073ffffffffffffffffffffffffffffffffffffffff168473ffffffffffffffffffffffffffffffffffffffff1614151515612d1057600080fd5b600260008673ffffffffffffffffffffffffffffffffffffffff1673ffffffffffffffffffffffffffffffffffffffff16815260200190815260200160002060003373ffffffffffffffffffffffffffffffffffffffff1673ffffffffffffffffffffffffffffffffffffffff168152602001908152602001600020549050612de183600160008873ffffffffffffffffffffffffffffffffffffffff1673ffffffffffffffffffffffffffffffffffffffff16815260200190815260200160002054612fdb90919063ffffffff16565b600160008773ffffffffffffffffffffffffffffffffffffffff1673ffffffffffffffffffffffffffffffffffffffff16815260200190815260200160002081905550612e7683600160008773ffffffffffffffffffffffffffffffffffffffff1673ffffffffffffffffffffffffffffffffffffffff16815260200190815260200160002054612fbd90919063ffffffff16565b600160008673ffffffffffffffffffffffffffffffffffffffff1673ffffffffffffffffffffffffffffffffffffffff16815260200190815260200160002081905550612ecc8382612fdb90919063ffffffff16565b600260008773ffffffffffffffffffffffffffffffffffffffff1673ffffffffffffffffffffffffffffffffffffffff16815260200190815260200160002060003373ffffffffffffffffffffffffffffffffffffffff1673ffffffffffffffffffffffffffffffffffffffff168152602001908152602001600020819055508373ffffffffffffffffffffffffffffffffffffffff168573ffffffffffffffffffffffffffffffffffffffff167fddf252ad1be2c89b69c2b068fc378daa952ba7f163c4a11628f55a4df523b3ef856040518082815260200191505060405180910390a360019150509392505050565b6000808284019050838110151515612fd157fe5b8091505092915050565b6000828211151515612fe957fe5b818303905092915050565b600080600260003373ffffffffffffffffffffffffffffffffffffffff1673ffffffffffffffffffffffffffffffffffffffff16815260200190815260200160002060008573ffffffffffffffffffffffffffffffffffffffff1673ffffffffffffffffffffffffffffffffffffffff16815260200190815260200160002054905080831115613105576000600260003373ffffffffffffffffffffffffffffffffffffffff1673ffffffffffffffffffffffffffffffffffffffff16815260200190815260200160002060008673ffffffffffffffffffffffffffffffffffffffff1673ffffffffffffffffffffffffffffffffffffffff16815260200190815260200160002081905550613199565b6131188382612fdb90919063ffffffff16565b600260003373ffffffffffffffffffffffffffffffffffffffff1673ffffffffffffffffffffffffffffffffffffffff16815260200190815260200160002060008673ffffffffffffffffffffffffffffffffffffffff1673ffffffffffffffffffffffffffffffffffffffff168152602001908152602001600020819055505b8373ffffffffffffffffffffffffffffffffffffffff163373ffffffffffffffffffffffffffffffffffffffff167f8c5be1e5ebec7d5bd14f71427d1e84f3dd0314c0f7b2291e5b200ac8c7c3b925600260003373ffffffffffffffffffffffffffffffffffffffff1673ffffffffffffffffffffffffffffffffffffffff16815260200190815260200160002060008873ffffffffffffffffffffffffffffffffffffffff1673ffffffffffffffffffffffffffffffffffffffff168152602001908152602001600020546040518082815260200191505060405180910390a3600191505092915050565b60008073ffffffffffffffffffffffffffffffffffffffff168373ffffffffffffffffffffffffffffffffffffffff16141515156132c257600080fd5b61331482600160003373ffffffffffffffffffffffffffffffffffffffff1673ffffffffffffffffffffffffffffffffffffffff16815260200190815260200160002054612fdb90919063ffffffff16565b600160003373ffffffffffffffffffffffffffffffffffffffff1673ffffffffffffffffffffffffffffffffffffffff168152602001908152602001600020819055506133a982600160008673ffffffffffffffffffffffffffffffffffffffff1673ffffffffffffffffffffffffffffffffffffffff16815260200190815260200160002054612fbd90919063ffffffff16565b600160008573ffffffffffffffffffffffffffffffffffffffff1673ffffffffffffffffffffffffffffffffffffffff168152602001908152602001600020819055508273ffffffffffffffffffffffffffffffffffffffff163373ffffffffffffffffffffffffffffffffffffffff167fddf252ad1be2c89b69c2b068fc378daa952ba7f163c4a11628f55a4df523b3ef846040518082815260200191505060405180910390a36001905092915050565b60006134ec82600260003373ffffffffffffffffffffffffffffffffffffffff1673ffffffffffffffffffffffffffffffffffffffff16815260200190815260200160002060008673ffffffffffffffffffffffffffffffffffffffff1673ffffffffffffffffffffffffffffffffffffffff16815260200190815260200160002054612fbd90919063ffffffff16565b600260003373ffffffffffffffffffffffffffffffffffffffff1673ffffffffffffffffffffffffffffffffffffffff16815260200190815260200160002060008573ffffffffffffffffffffffffffffffffffffffff1673ffffffffffffffffffffffffffffffffffffffff168152602001908152602001600020819055508273ffffffffffffffffffffffffffffffffffffffff163373ffffffffffffffffffffffffffffffffffffffff167f8c5be1e5ebec7d5bd14f71427d1e84f3dd0314c0f7b2291e5b200ac8c7c3b925600260003373ffffffffffffffffffffffffffffffffffffffff1673ffffffffffffffffffffffffffffffffffffffff16815260200190815260200160002060008773ffffffffffffffffffffffffffffffffffffffff1673ffffffffffffffffffffffffffffffffffffffff168152602001908152602001600020546040518082815260200191505060405180910390a36001905092915050565b6040805190810160405280600081526020016000815250905600a165627a7a72305820b61df28a60cba745c98f4f3782c56a957983acf04a0310cb402a9fa01dcec18b0029a165627a7a723058208c605620f08edbc429d6a7a3e41e0298fc36d67d96201df50d510202ce423d9b002960606040526000600360146101000a81548160ff0219169083151502179055506000600360156101000a81548160ff0219169083151502179055506040805190810160405280600981526020017f54657374546f6b656e0000000000000000000000000000000000000000000000815250600490805190602001906200008792919062000140565b506040805190810160405280600381526020017f545f54000000000000000000000000000000000000000000000000000000000081525060059080519060200190620000d592919062000140565b506012600660006101000a81548160ff021916908360ff1602179055506201518060075533600360006101000a81548173ffffffffffffffffffffffffffffffffffffffff021916908373ffffffffffffffffffffffffffffffffffffffff160217905550620001ef565b828054600181600116156101000203166002900490600052602060002090601f016020900481019282601f106200018357805160ff1916838001178555620001b4565b82800160010185558215620001b4579182015b82811115620001b357825182559160200191906001019062000196565b5b509050620001c39190620001c7565b5090565b620001ec91905b80821115620001e8576000816000905550600101620001ce565b5090565b90565b61369d80620001ff6000396000f3006060604052600436106101a1576000357c0100000000000000000000000000000000000000000000000000000000900463ffffffff16806305d2035b146101a657806306fdde03146101d3578063095ea7b3146102615780630d668087146102bb57806318160ddd146102e45780632108b3541461030d57806323b872dd146103765780632a3f5080146103ef578063313ce5671461045c5780633f4ba83a1461048b57806340c10f19146104a05780634e543b26146104fa578063501951ed146105335780635c975abb1461056e5780635f8962461461059b57806366188463146105c85780636ab465bd146106225780636d2b9de01461065d57806370a08231146106aa5780637d64bcb4146106f75780638456cb59146107245780638488893a146107395780638da5cb5b146107cb5780638f0ecae21461082057806395d89b4114610859578063a9059cbb146108e7578063ae04d45d14610941578063d73dd62314610964578063dd62ed3e146109be578063f19e2a2114610a2a578063f2a3668414610a77578063f2fde38b14610ad2578063f51724df14610b0b575b600080fd5b34156101b157600080fd5b6101b9610b65565b604051808215151515815260200191505060405180910390f35b34156101de57600080fd5b6101e6610b78565b6040518080602001828103825283818151815260200191508051906020019080838360005b8381101561022657808201518184015260208101905061020b565b50505050905090810190601f1680156102535780820380516001836020036101000a031916815260200191505b509250505060405180910390f35b341561026c57600080fd5b6102a1600480803573ffffffffffffffffffffffffffffffffffffffff16906020019091908035906020019091905050610c16565b604051808215151515815260200191505060405180910390f35b34156102c657600080fd5b6102ce610c46565b6040518082815260200191505060405180910390f35b34156102ef57600080fd5b6102f7610c4c565b6040518082815260200191505060405180910390f35b341561031857600080fd5b61034d600480803573ffffffffffffffffffffffffffffffffffffffff16906020019091908035906020019091905050610c52565b604051808360ff1660ff1681526020018260ff1660ff1681526020019250505060405180910390f35b341561038157600080fd5b6103d5600480803573ffffffffffffffffffffffffffffffffffffffff1690602001909190803573ffffffffffffffffffffffffffffffffffffffff16906020019091908035906020019091905050610d65565b604051808215151515815260200191505060405180910390f35b34156103fa57600080fd5b610432600480803573ffffffffffffffffffffffffffffffffffffffff1690602001909190803560ff16906020019091905050610d97565b604051808481526020018381526020018260ff1660ff168152602001935050505060405180910390f35b341561046757600080fd5b61046f610ee4565b604051808260ff1660ff16815260200191505060405180910390f35b341561049657600080fd5b61049e610ef7565b005b34156104ab57600080fd5b6104e0600480803573ffffffffffffffffffffffffffffffffffffffff16906020019091908035906020019091905050610fb7565b604051808215151515815260200191505060405180910390f35b341561050557600080fd5b610531600480803573ffffffffffffffffffffffffffffffffffffffff16906020019091905050611189565b005b341561053e57600080fd5b6105546004808035906020019091905050611229565b604051808215151515815260200191505060405180910390f35b341561057957600080fd5b6105816114bf565b604051808215151515815260200191505060405180910390f35b34156105a657600080fd5b6105ae6114d2565b604051808215151515815260200191505060405180910390f35b34156105d357600080fd5b610608600480803573ffffffffffffffffffffffffffffffffffffffff169060200190919080359060200190919050506118d4565b604051808215151515815260200191505060405180910390f35b341561062d57600080fd5b6106436004808035906020019091905050611904565b604051808215151515815260200191505060405180910390f35b341561066857600080fd5b610694600480803573ffffffffffffffffffffffffffffffffffffffff16906020019091905050611f55565b6040518082815260200191505060405180910390f35b34156106b557600080fd5b6106e1600480803573ffffffffffffffffffffffffffffffffffffffff16906020019091905050611fc1565b6040518082815260200191505060405180910390f35b341561070257600080fd5b61070a61200a565b604051808215151515815260200191505060405180910390f35b341561072f57600080fd5b6107376120b6565b005b6107b1600480803573ffffffffffffffffffffffffffffffffffffffff1690602001909190803590602001909190803590602001908201803590602001908080601f01602080910402602001604051908101604052809392919081815260200183838082843782019150505050505091905050612177565b604051808215151515815260200191505060405180910390f35b34156107d657600080fd5b6107de61249e565b604051808273ffffffffffffffffffffffffffffffffffffffff1673ffffffffffffffffffffffffffffffffffffffff16815260200191505060405180910390f35b341561082b57600080fd5b610857600480803573ffffffffffffffffffffffffffffffffffffffff169060200190919050506124c4565b005b341561086457600080fd5b61086c612564565b6040518080602001828103825283818151815260200191508051906020019080838360005b838110156108ac578082015181840152602081019050610891565b50505050905090810190601f1680156108d95780820380516001836020036101000a031916815260200191505b509250505060405180910390f35b34156108f257600080fd5b610927600480803573ffffffffffffffffffffffffffffffffffffffff16906020019091908035906020019091905050612602565b604051808215151515815260200191505060405180910390f35b341561094c57600080fd5b6109626004808035906020019091905050612632565b005b341561096f57600080fd5b6109a4600480803573ffffffffffffffffffffffffffffffffffffffff16906020019091908035906020019091905050612698565b604051808215151515815260200191505060405180910390f35b34156109c957600080fd5b610a14600480803573ffffffffffffffffffffffffffffffffffffffff1690602001909190803573ffffffffffffffffffffffffffffffffffffffff169060200190919050506126c8565b6040518082815260200191505060405180910390f35b3415610a3557600080fd5b610a61600480803573ffffffffffffffffffffffffffffffffffffffff1690602001909190505061274f565b6040518082815260200191505060405180910390f35b3415610a8257600080fd5b610aae600480803573ffffffffffffffffffffffffffffffffffffffff169060200190919050506127ba565b60405180848152602001838152602001828152602001935050505060405180910390f35b3415610add57600080fd5b610b09600480803573ffffffffffffffffffffffffffffffffffffffff169060200190919050506128d1565b005b3415610b1657600080fd5b610b4b600480803573ffffffffffffffffffffffffffffffffffffffff16906020019091908035906020019091905050612a29565b604051808215151515815260200191505060405180910390f35b600360149054906101000a900460ff1681565b60048054600181600116156101000203166002900480601f016020809104026020016040519081016040528092919081815260200182805460018160011615610100020316600290048015610c0e5780601f10610be357610100808354040283529160200191610c0e565b820191906000526020600020905b815481529060010190602001808311610bf157829003601f168201915b505050505081565b6000600360159054906101000a900460ff16151515610c3457600080fd5b610c3e8383612bdf565b905092915050565b60075481565b60005481565b600080600080600080925060009150600090505b60208160ff161015610d55576000600b60008973ffffffffffffffffffffffffffffffffffffffff1673ffffffffffffffffffffffffffffffffffffffff1681526020019081526020016000206000018260ff16602081101515610cc657fe5b60020201600001541115610d4857828060010193505085600b60008973ffffffffffffffffffffffffffffffffffffffff1673ffffffffffffffffffffffffffffffffffffffff1681526020019081526020016000206000018260ff16602081101515610d2f57fe5b6002020160010154111515610d475781806001019250505b5b8080600101915050610c66565b8282945094505050509250929050565b6000600360159054906101000a900460ff16151515610d8357600080fd5b610d8e848484612cd1565b90509392505050565b6000806000808490505b60208160ff161015610edc576000600b60008873ffffffffffffffffffffffffffffffffffffffff1673ffffffffffffffffffffffffffffffffffffffff1681526020019081526020016000206000018260ff16602081101515610e0157fe5b60020201600001541115610ecf57600b60008773ffffffffffffffffffffffffffffffffffffffff1673ffffffffffffffffffffffffffffffffffffffff1681526020019081526020016000206000018160ff16602081101515610e6157fe5b60020201600001549350600b60008773ffffffffffffffffffffffffffffffffffffffff1673ffffffffffffffffffffffffffffffffffffffff1681526020019081526020016000206000018160ff16602081101515610ebd57fe5b60020201600101549250809150610edc565b8080600101915050610da1565b509250925092565b600660009054906101000a900460ff1681565b600360009054906101000a900473ffffffffffffffffffffffffffffffffffffffff1673ffffffffffffffffffffffffffffffffffffffff163373ffffffffffffffffffffffffffffffffffffffff16141515610f5357600080fd5b600360159054906101000a900460ff161515610f6e57600080fd5b6000600360156101000a81548160ff0219169083151502179055507f7805862f689e2f13df9f062ff482ad3ad112aca9e0847911ed832e158c525b3360405160405180910390a1565b6000600360009054906101000a900473ffffffffffffffffffffffffffffffffffffffff1673ffffffffffffffffffffffffffffffffffffffff163373ffffffffffffffffffffffffffffffffffffffff1614151561101557600080fd5b600360149054906101000a900460ff1615151561103157600080fd5b61104682600054612fbd90919063ffffffff16565b60008190555061109e82600160008673ffffffffffffffffffffffffffffffffffffffff1673ffffffffffffffffffffffffffffffffffffffff16815260200190815260200160002054612fbd90919063ffffffff16565b600160008573ffffffffffffffffffffffffffffffffffffffff1673ffffffffffffffffffffffffffffffffffffffff168152602001908152602001600020819055508273ffffffffffffffffffffffffffffffffffffffff167f0f6798a560793a54c3bcfe86a93cde1e73087d944c0ea20544137d4121396885836040518082815260200191505060405180910390a28273ffffffffffffffffffffffffffffffffffffffff1660007fddf252ad1be2c89b69c2b068fc378daa952ba7f163c4a11628f55a4df523b3ef846040518082815260200191505060405180910390a36001905092915050565b600360009054906101000a900473ffffffffffffffffffffffffffffffffffffffff1673ffffffffffffffffffffffffffffffffffffffff163373ffffffffffffffffffffffffffffffffffffffff161415156111e557600080fd5b80600960006101000a81548173ffffffffffffffffffffffffffffffffffffffff021916908373ffffffffffffffffffffffffffffffffffffffff16021790555050565b600081600160003373ffffffffffffffffffffffffffffffffffffffff1673ffffffffffffffffffffffffffffffffffffffff168152602001908152602001600020541015151561127657fe5b6112c882600160003373ffffffffffffffffffffffffffffffffffffffff1673ffffffffffffffffffffffffffffffffffffffff16815260200190815260200160002054612fdb90919063ffffffff16565b600160003373ffffffffffffffffffffffffffffffffffffffff1673ffffffffffffffffffffffffffffffffffffffff1681526020019081526020016000208190555061137f82600a60003373ffffffffffffffffffffffffffffffffffffffff1673ffffffffffffffffffffffffffffffffffffffff168152602001908152602001600020600080600281111561135c57fe5b60ff1660ff16815260200190815260200160002054612fbd90919063ffffffff16565b600a60003373ffffffffffffffffffffffffffffffffffffffff1673ffffffffffffffffffffffffffffffffffffffff16815260200190815260200160002060008060028111156113cc57fe5b60ff1660ff1681526020019081526020016000208190555060003373ffffffffffffffffffffffffffffffffffffffff167fddf252ad1be2c89b69c2b068fc378daa952ba7f163c4a11628f55a4df523b3ef846040518082815260200191505060405180910390a37f0f30aa5a186db94018a20857f8cbe6f1156cb35de19b2f988e78733e44f6590f33600084604051808473ffffffffffffffffffffffffffffffffffffffff1673ffffffffffffffffffffffffffffffffffffffff16815260200183600281111561149b57fe5b60ff168152602001828152602001935050505060405180910390a160019050919050565b600360159054906101000a900460ff1681565b60008060008090505b60208160ff1610156118cb5742600b60003373ffffffffffffffffffffffffffffffffffffffff1673ffffffffffffffffffffffffffffffffffffffff1681526020019081526020016000206000018260ff1660208110151561153a57fe5b600202016001015410156118be576000600b60003373ffffffffffffffffffffffffffffffffffffffff1673ffffffffffffffffffffffffffffffffffffffff1681526020019081526020016000206000018260ff1660208110151561159c57fe5b600202016000015411156118bd57600b60003373ffffffffffffffffffffffffffffffffffffffff1673ffffffffffffffffffffffffffffffffffffffff1681526020019081526020016000206000018160ff166020811015156115fc57fe5b6002020160000154915061167b82600a60003373ffffffffffffffffffffffffffffffffffffffff1673ffffffffffffffffffffffffffffffffffffffff16815260200190815260200160002060006001600281111561165857fe5b60ff1660ff16815260200190815260200160002054612fdb90919063ffffffff16565b600a60003373ffffffffffffffffffffffffffffffffffffffff1673ffffffffffffffffffffffffffffffffffffffff1681526020019081526020016000206000600160028111156116c957fe5b60ff1660ff1681526020019081526020016000208190555061173382600160003373ffffffffffffffffffffffffffffffffffffffff1673ffffffffffffffffffffffffffffffffffffffff16815260200190815260200160002054612fbd90919063ffffffff16565b600160003373ffffffffffffffffffffffffffffffffffffffff1673ffffffffffffffffffffffffffffffffffffffff16815260200190815260200160002081905550600b60003373ffffffffffffffffffffffffffffffffffffffff1673ffffffffffffffffffffffffffffffffffffffff1681526020019081526020016000206000018160ff166020811015156117c857fe5b600202016000808201600090556001820160009055505080600b60003373ffffffffffffffffffffffffffffffffffffffff1673ffffffffffffffffffffffffffffffffffffffff16815260200190815260200160002060400160006101000a81548160ff021916908360ff1602179055507f0f30aa5a186db94018a20857f8cbe6f1156cb35de19b2f988e78733e44f6590f33600284604051808473ffffffffffffffffffffffffffffffffffffffff1673ffffffffffffffffffffffffffffffffffffffff1681526020018360028111156118a157fe5b60ff168152602001828152602001935050505060405180910390a15b5b80806001019150506114db565b60019250505090565b6000600360159054906101000a900460ff161515156118f257600080fd5b6118fc8383612ff4565b905092915050565b600061190e613657565b6000808411151561191e57600080fd5b6020600b60003373ffffffffffffffffffffffffffffffffffffffff1673ffffffffffffffffffffffffffffffffffffffff16815260200190815260200160002060400160009054906101000a900460ff1660ff1610151561197c57fe5b6119f084600a60003373ffffffffffffffffffffffffffffffffffffffff1673ffffffffffffffffffffffffffffffffffffffff16815260200190815260200160002060008060028111156119cd57fe5b60ff1660ff16815260200190815260200160002054612fdb90919063ffffffff16565b600a60003373ffffffffffffffffffffffffffffffffffffffff1673ffffffffffffffffffffffffffffffffffffffff1681526020019081526020016000206000806002811115611a3d57fe5b60ff1660ff16815260200190815260200160002081905550611aca84600a60003373ffffffffffffffffffffffffffffffffffffffff1673ffffffffffffffffffffffffffffffffffffffff168152602001908152602001600020600060016002811115611aa757fe5b60ff1660ff16815260200190815260200160002054612fbd90919063ffffffff16565b600a60003373ffffffffffffffffffffffffffffffffffffffff1673ffffffffffffffffffffffffffffffffffffffff168152602001908152602001600020600060016002811115611b1857fe5b60ff1660ff1681526020019081526020016000208190555060408051908101604052808581526020016007544201815250915081600b60003373ffffffffffffffffffffffffffffffffffffffff1673ffffffffffffffffffffffffffffffffffffffff168152602001908152602001600020600001600b60003373ffffffffffffffffffffffffffffffffffffffff1673ffffffffffffffffffffffffffffffffffffffff16815260200190815260200160002060400160009054906101000a900460ff1660ff16602081101515611bed57fe5b600202016000820151816000015560208201518160010155905050601f600b60003373ffffffffffffffffffffffffffffffffffffffff1673ffffffffffffffffffffffffffffffffffffffff16815260200190815260200160002060400160009054906101000a900460ff1660ff161415611cc4576000600b60003373ffffffffffffffffffffffffffffffffffffffff1673ffffffffffffffffffffffffffffffffffffffff16815260200190815260200160002060400160006101000a81548160ff021916908360ff160217905550611d37565b600b60003373ffffffffffffffffffffffffffffffffffffffff1673ffffffffffffffffffffffffffffffffffffffff168152602001908152602001600020604001600081819054906101000a900460ff168092919060010191906101000a81548160ff021916908360ff160217905550505b600090505b6020600b60003373ffffffffffffffffffffffffffffffffffffffff1673ffffffffffffffffffffffffffffffffffffffff16815260200190815260200160002060400160009054906101000a900460ff1660ff161015611ec8576000600b60003373ffffffffffffffffffffffffffffffffffffffff1673ffffffffffffffffffffffffffffffffffffffff168152602001908152602001600020600001600b60003373ffffffffffffffffffffffffffffffffffffffff1673ffffffffffffffffffffffffffffffffffffffff16815260200190815260200160002060400160009054906101000a900460ff1660ff16602081101515611e3a57fe5b60020201600101541415611e515760019050611ec8565b600b60003373ffffffffffffffffffffffffffffffffffffffff1673ffffffffffffffffffffffffffffffffffffffff168152602001908152602001600020604001600081819054906101000a900460ff168092919060010191906101000a81548160ff021916908360ff16021790555050611d3c565b7f0f30aa5a186db94018a20857f8cbe6f1156cb35de19b2f988e78733e44f6590f33600186604051808473ffffffffffffffffffffffffffffffffffffffff1673ffffffffffffffffffffffffffffffffffffffff168152602001836002811115611f2f57fe5b60ff168152602001828152602001935050505060405180910390a1600192505050919050565b6000600a60008373ffffffffffffffffffffffffffffffffffffffff1673ffffffffffffffffffffffffffffffffffffffff168152602001908152602001600020600060016002811115611fa557fe5b60ff1660ff168152602001908152602001600020549050919050565b6000600160008373ffffffffffffffffffffffffffffffffffffffff1673ffffffffffffffffffffffffffffffffffffffff168152602001908152602001600020549050919050565b6000600360009054906101000a900473ffffffffffffffffffffffffffffffffffffffff1673ffffffffffffffffffffffffffffffffffffffff163373ffffffffffffffffffffffffffffffffffffffff1614151561206857600080fd5b6001600360146101000a81548160ff0219169083151502179055507fae5184fba832cb2b1f702aca6117b8d265eaf03ad33eb133f19dde0f5920fa0860405160405180910390a16001905090565b600360009054906101000a900473ffffffffffffffffffffffffffffffffffffffff1673ffffffffffffffffffffffffffffffffffffffff163373ffffffffffffffffffffffffffffffffffffffff1614151561211257600080fd5b600360159054906101000a900460ff1615151561212e57600080fd5b6001600360156101000a81548160ff0219169083151502179055507f6985a02210a168e66602d3235cb6db0e70f92b3ba4d376a33c0f3d9434bff62560405160405180910390a1565b60008060008411806121895750600034115b151561219457600080fd5b600960009054906101000a900473ffffffffffffffffffffffffffffffffffffffff1673ffffffffffffffffffffffffffffffffffffffff1663e30bd740866000604051602001526040518263ffffffff167c0100000000000000000000000000000000000000000000000000000000028152600401808273ffffffffffffffffffffffffffffffffffffffff1673ffffffffffffffffffffffffffffffffffffffff168152602001915050602060405180830381600087803b151561225957600080fd5b6102c65a03f1151561226a57600080fd5b505050604051805190509050600060010260001916816000191614151561235357600960009054906101000a900473ffffffffffffffffffffffffffffffffffffffff1673ffffffffffffffffffffffffffffffffffffffff1663c59315bf826000604051602001526040518263ffffffff167c0100000000000000000000000000000000000000000000000000000000028152600401808260001916600019168152602001915050602060405180830381600087803b151561232c57600080fd5b6102c65a03f1151561233d57600080fd5b50505060405180519050151561235257600080fd5b5b6000841115612372576123668585612602565b151561237157600080fd5b5b60003411156123bc578473ffffffffffffffffffffffffffffffffffffffff166108fc349081150290604051600060405180830381858888f1935050505015156123bb57600080fd5b5b8473ffffffffffffffffffffffffffffffffffffffff163373ffffffffffffffffffffffffffffffffffffffff167ff0867503c5147c27b10a8e12f7c0ca20f597dc2174d3a6b51a25cb7c5191460a8634876040518084815260200183815260200180602001828103825283818151815260200191508051906020019080838360005b8381101561245a57808201518184015260208101905061243f565b50505050905090810190601f1680156124875780820380516001836020036101000a031916815260200191505b5094505050505060405180910390a3509392505050565b600360009054906101000a900473ffffffffffffffffffffffffffffffffffffffff1681565b600360009054906101000a900473ffffffffffffffffffffffffffffffffffffffff1673ffffffffffffffffffffffffffffffffffffffff163373ffffffffffffffffffffffffffffffffffffffff1614151561252057600080fd5b80600860006101000a81548173ffffffffffffffffffffffffffffffffffffffff021916908373ffffffffffffffffffffffffffffffffffffffff16021790555050565b60058054600181600116156101000203166002900480601f0160208091040260200160405190810160405280929190818152602001828054600181600116156101000203166002900480156125fa5780601f106125cf576101008083540402835291602001916125fa565b820191906000526020600020905b8154815290600101906020018083116125dd57829003601f168201915b505050505081565b6000600360159054906101000a900460ff1615151561262057600080fd5b61262a8383613285565b905092915050565b600360009054906101000a900473ffffffffffffffffffffffffffffffffffffffff1673ffffffffffffffffffffffffffffffffffffffff163373ffffffffffffffffffffffffffffffffffffffff1614151561268e57600080fd5b8060078190555050565b6000600360159054906101000a900460ff161515156126b657600080fd5b6126c0838361345b565b905092915050565b6000600260008473ffffffffffffffffffffffffffffffffffffffff1673ffffffffffffffffffffffffffffffffffffffff16815260200190815260200160002060008373ffffffffffffffffffffffffffffffffffffffff1673ffffffffffffffffffffffffffffffffffffffff16815260200190815260200160002054905092915050565b6000600a60008373ffffffffffffffffffffffffffffffffffffffff1673ffffffffffffffffffffffffffffffffffffffff168152602001908152602001600020600080600281111561279e57fe5b60ff1660ff168152602001908152602001600020549050919050565b6000806000600160008573ffffffffffffffffffffffffffffffffffffffff1673ffffffffffffffffffffffffffffffffffffffff168152602001908152602001600020549250600a60008573ffffffffffffffffffffffffffffffffffffffff1673ffffffffffffffffffffffffffffffffffffffff168152602001908152602001600020600080600281111561284e57fe5b60ff1660ff168152602001908152602001600020549150600a60008573ffffffffffffffffffffffffffffffffffffffff1673ffffffffffffffffffffffffffffffffffffffff1681526020019081526020016000206000600160028111156128b357fe5b60ff1660ff1681526020019081526020016000205490509193909250565b600360009054906101000a900473ffffffffffffffffffffffffffffffffffffffff1673ffffffffffffffffffffffffffffffffffffffff163373ffffffffffffffffffffffffffffffffffffffff1614151561292d57600080fd5b600073ffffffffffffffffffffffffffffffffffffffff168173ffffffffffffffffffffffffffffffffffffffff161415151561296957600080fd5b8073ffffffffffffffffffffffffffffffffffffffff16600360009054906101000a900473ffffffffffffffffffffffffffffffffffffffff1673ffffffffffffffffffffffffffffffffffffffff167f8be0079c531659141344cd1fd0a4f28419497f9722a3daafe3b4186f6b6457e060405160405180910390a380600360006101000a81548173ffffffffffffffffffffffffffffffffffffffff021916908373ffffffffffffffffffffffffffffffffffffffff16021790555050565b6000600860009054906101000a900473ffffffffffffffffffffffffffffffffffffffff1673ffffffffffffffffffffffffffffffffffffffff163373ffffffffffffffffffffffffffffffffffffffff16141515612a8757600080fd5b612a9c82600054612fbd90919063ffffffff16565b600081905550612af482600160008673ffffffffffffffffffffffffffffffffffffffff1673ffffffffffffffffffffffffffffffffffffffff16815260200190815260200160002054612fbd90919063ffffffff16565b600160008573ffffffffffffffffffffffffffffffffffffffff1673ffffffffffffffffffffffffffffffffffffffff168152602001908152602001600020819055508273ffffffffffffffffffffffffffffffffffffffff167f0f6798a560793a54c3bcfe86a93cde1e73087d944c0ea20544137d4121396885836040518082815260200191505060405180910390a28273ffffffffffffffffffffffffffffffffffffffff1660007fddf252ad1be2c89b69c2b068fc378daa952ba7f163c4a11628f55a4df523b3ef846040518082815260200191505060405180910390a36001905092915050565b600081600260003373ffffffffffffffffffffffffffffffffffffffff1673ffffffffffffffffffffffffffffffffffffffff16815260200190815260200160002060008573ffffffffffffffffffffffffffffffffffffffff1673ffffffffffffffffffffffffffffffffffffffff168152602001908152602001600020819055508273ffffffffffffffffffffffffffffffffffffffff163373ffffffffffffffffffffffffffffffffffffffff167f8c5be1e5ebec7d5bd14f71427d1e84f3dd0314c0f7b2291e5b200ac8c7c3b925846040518082815260200191505060405180910390a36001905092915050565b600080600073ffffffffffffffffffffffffffffffffffffffff168473ffffffffffffffffffffffffffffffffffffffff1614151515612d1057600080fd5b600260008673ffffffffffffffffffffffffffffffffffffffff1673ffffffffffffffffffffffffffffffffffffffff16815260200190815260200160002060003373ffffffffffffffffffffffffffffffffffffffff1673ffffffffffffffffffffffffffffffffffffffff168152602001908152602001600020549050612de183600160008873ffffffffffffffffffffffffffffffffffffffff1673ffffffffffffffffffffffffffffffffffffffff16815260200190815260200160002054612fdb90919063ffffffff16565b600160008773ffffffffffffffffffffffffffffffffffffffff1673ffffffffffffffffffffffffffffffffffffffff16815260200190815260200160002081905550612e7683600160008773ffffffffffffffffffffffffffffffffffffffff1673ffffffffffffffffffffffffffffffffffffffff16815260200190815260200160002054612fbd90919063ffffffff16565b600160008673ffffffffffffffffffffffffffffffffffffffff1673ffffffffffffffffffffffffffffffffffffffff16815260200190815260200160002081905550612ecc8382612fdb90919063ffffffff16565b600260008773ffffffffffffffffffffffffffffffffffffffff1673ffffffffffffffffffffffffffffffffffffffff16815260200190815260200160002060003373ffffffffffffffffffffffffffffffffffffffff1673ffffffffffffffffffffffffffffffffffffffff168152602001908152602001600020819055508373ffffffffffffffffffffffffffffffffffffffff168573ffffffffffffffffffffffffffffffffffffffff167fddf252ad1be2c89b69c2b068fc378daa952ba7f163c4a11628f55a4df523b3ef856040518082815260200191505060405180910390a360019150509392505050565b6000808284019050838110151515612fd157fe5b8091505092915050565b6000828211151515612fe957fe5b818303905092915050565b600080600260003373ffffffffffffffffffffffffffffffffffffffff1673ffffffffffffffffffffffffffffffffffffffff16815260200190815260200160002060008573ffffffffffffffffffffffffffffffffffffffff1673ffffffffffffffffffffffffffffffffffffffff16815260200190815260200160002054905080831115613105576000600260003373ffffffffffffffffffffffffffffffffffffffff1673ffffffffffffffffffffffffffffffffffffffff16815260200190815260200160002060008673ffffffffffffffffffffffffffffffffffffffff1673ffffffffffffffffffffffffffffffffffffffff16815260200190815260200160002081905550613199565b6131188382612fdb90919063ffffffff16565b600260003373ffffffffffffffffffffffffffffffffffffffff1673ffffffffffffffffffffffffffffffffffffffff16815260200190815260200160002060008673ffffffffffffffffffffffffffffffffffffffff1673ffffffffffffffffffffffffffffffffffffffff168152602001908152602001600020819055505b8373ffffffffffffffffffffffffffffffffffffffff163373ffffffffffffffffffffffffffffffffffffffff167f8c5be1e5ebec7d5bd14f71427d1e84f3dd0314c0f7b2291e5b200ac8c7c3b925600260003373ffffffffffffffffffffffffffffffffffffffff1673ffffffffffffffffffffffffffffffffffffffff16815260200190815260200160002060008873ffffffffffffffffffffffffffffffffffffffff1673ffffffffffffffffffffffffffffffffffffffff168152602001908152602001600020546040518082815260200191505060405180910390a3600191505092915050565b60008073ffffffffffffffffffffffffffffffffffffffff168373ffffffffffffffffffffffffffffffffffffffff16141515156132c257600080fd5b61331482600160003373ffffffffffffffffffffffffffffffffffffffff1673ffffffffffffffffffffffffffffffffffffffff16815260200190815260200160002054612fdb90919063ffffffff16565b600160003373ffffffffffffffffffffffffffffffffffffffff1673ffffffffffffffffffffffffffffffffffffffff168152602001908152602001600020819055506133a982600160008673ffffffffffffffffffffffffffffffffffffffff1673ffffffffffffffffffffffffffffffffffffffff16815260200190815260200160002054612fbd90919063ffffffff16565b600160008573ffffffffffffffffffffffffffffffffffffffff1673ffffffffffffffffffffffffffffffffffffffff168152602001908152602001600020819055508273ffffffffffffffffffffffffffffffffffffffff163373ffffffffffffffffffffffffffffffffffffffff167fddf252ad1be2c89b69c2b068fc378daa952ba7f163c4a11628f55a4df523b3ef846040518082815260200191505060405180910390a36001905092915050565b60006134ec82600260003373ffffffffffffffffffffffffffffffffffffffff1673ffffffffffffffffffffffffffffffffffffffff16815260200190815260200160002060008673ffffffffffffffffffffffffffffffffffffffff1673ffffffffffffffffffffffffffffffffffffffff16815260200190815260200160002054612fbd90919063ffffffff16565b600260003373ffffffffffffffffffffffffffffffffffffffff1673ffffffffffffffffffffffffffffffffffffffff16815260200190815260200160002060008573ffffffffffffffffffffffffffffffffffffffff1673ffffffffffffffffffffffffffffffffffffffff168152602001908152602001600020819055508273ffffffffffffffffffffffffffffffffffffffff163373ffffffffffffffffffffffffffffffffffffffff167f8c5be1e5ebec7d5bd14f71427d1e84f3dd0314c0f7b2291e5b200ac8c7c3b925600260003373ffffffffffffffffffffffffffffffffffffffff1673ffffffffffffffffffffffffffffffffffffffff16815260200190815260200160002060008773ffffffffffffffffffffffffffffffffffffffff1673ffffffffffffffffffffffffffffffffffffffff168152602001908152602001600020546040518082815260200191505060405180910390a36001905092915050565b6040805190810160405280600081526020016000815250905600a165627a7a72305820b61df28a60cba745c98f4f3782c56a957983acf04a0310cb402a9fa01dcec18b0029",
  "source": "pragma solidity ^0.4.0;\n\n\nimport 'zeppelin-solidity/contracts/ownership/Ownable.sol';\nimport 'zeppelin-solidity/contracts/crowdsale/CappedCrowdsale.sol';\nimport './AETH.sol';\n\n\ncontract OngoingSale is CappedCrowdsale, Ownable {\n\n    bool public isFinalized = false;\n\n    event Finalized();\n\n    function OngoingSale(uint256 _startBlock, uint256 _endBlock, uint256 _rate, address _wallet, uint256 _cap)\n    public\n    Crowdsale(_startBlock, _endBlock, _rate, _wallet)\n    CappedCrowdsale(_cap)\n    {\n\n    }\n\n    /**\n    * @dev overwrites default method with AETH token deployment\n    */\n    function createTokenContract()\n    internal\n    returns (MintableToken)\n    {\n        return new AETH();\n    }\n\n    // mark crowdsale as finished\n    function finalize()\n    public\n    onlyOwner\n    {\n        require(!isFinalized);\n        require(hasEnded());\n\n        finalization();\n        Finalized();\n\n        isFinalized = true;\n        token.transferOwnership(msg.sender);\n    }\n\n\n    // mark token minting as finished and prevent tokens to be minted\n    function finalization()\n    internal\n    {\n        token.finishMinting();\n    }\n}\n",
  "sourcePath": "/home/kenshyx/projects/contracts.alpha/contracts/token/OngoingSale.sol",
  "compiler": {
    "name": "solc",
    "version": "0.4.18+commit.9cf6e910.Emscripten.clang"
  },
  "schemaVersion": "1.0.1",
  "updatedAt": "2017-11-16T14:45:11.829Z"
}