{
  "contractName": "ProfileRegistrar",
  "abi": [
    {
      "constant": false,
      "inputs": [
        {
          "name": "token",
          "type": "address"
        }
      ],
      "name": "reclaimToken",
      "outputs": [],
      "payable": false,
      "stateMutability": "nonpayable",
      "type": "function"
    },
    {
      "constant": false,
      "inputs": [
        {
          "name": "_subNode",
          "type": "bytes32"
        },
        {
          "name": "_enableDonations",
          "type": "bool"
        },
        {
          "name": "_hash",
          "type": "bytes32"
        },
        {
          "name": "_fn",
          "type": "uint8"
        },
        {
          "name": "_digestSize",
          "type": "uint8"
        }
      ],
      "name": "register",
      "outputs": [
        {
          "name": "",
          "type": "bool"
        }
      ],
      "payable": false,
      "stateMutability": "nonpayable",
      "type": "function"
    },
    {
      "constant": true,
      "inputs": [],
      "name": "ens",
      "outputs": [
        {
          "name": "",
          "type": "address"
        }
      ],
      "payable": false,
      "stateMutability": "view",
      "type": "function"
    },
    {
      "constant": false,
      "inputs": [
        {
          "name": "_resolver",
          "type": "address"
        }
      ],
      "name": "setResolver",
      "outputs": [],
      "payable": false,
      "stateMutability": "nonpayable",
      "type": "function"
    },
    {
      "constant": true,
      "inputs": [],
      "name": "version",
      "outputs": [
        {
          "name": "",
          "type": "uint256"
        }
      ],
      "payable": false,
      "stateMutability": "view",
      "type": "function"
    },
    {
      "constant": true,
      "inputs": [
        {
          "name": "_subNode",
          "type": "bytes32"
        }
      ],
      "name": "check_format",
      "outputs": [
        {
          "name": "",
          "type": "bool"
        }
      ],
      "payable": false,
      "stateMutability": "pure",
      "type": "function"
    },
    {
      "constant": false,
      "inputs": [
        {
          "name": "_ens",
          "type": "address"
        }
      ],
      "name": "setEns",
      "outputs": [
        {
          "name": "",
          "type": "bool"
        }
      ],
      "payable": false,
      "stateMutability": "nonpayable",
      "type": "function"
    },
    {
      "constant": false,
      "inputs": [],
      "name": "destroy",
      "outputs": [],
      "payable": false,
      "stateMutability": "nonpayable",
      "type": "function"
    },
    {
      "constant": true,
      "inputs": [],
      "name": "owner",
      "outputs": [
        {
          "name": "",
          "type": "address"
        }
      ],
      "payable": false,
      "stateMutability": "view",
      "type": "function"
    },
    {
      "constant": true,
      "inputs": [],
      "name": "moduleName",
      "outputs": [
        {
          "name": "",
          "type": "string"
        }
      ],
      "payable": false,
      "stateMutability": "view",
      "type": "function"
    },
    {
      "constant": false,
      "inputs": [],
      "name": "reclaimEther",
      "outputs": [],
      "payable": false,
      "stateMutability": "nonpayable",
      "type": "function"
    },
    {
      "constant": false,
      "inputs": [
        {
          "name": "_newOwner",
          "type": "address"
        }
      ],
      "name": "changeRootOwner",
      "outputs": [
        {
          "name": "",
          "type": "bool"
        }
      ],
      "payable": false,
      "stateMutability": "nonpayable",
      "type": "function"
    },
    {
      "constant": false,
      "inputs": [
        {
          "name": "from_",
          "type": "address"
        },
        {
          "name": "value_",
          "type": "uint256"
        },
        {
          "name": "data_",
          "type": "bytes"
        }
      ],
      "name": "tokenFallback",
      "outputs": [],
      "payable": false,
      "stateMutability": "nonpayable",
      "type": "function"
    },
    {
      "constant": false,
      "inputs": [
        {
          "name": "_newRoot",
          "type": "bytes32"
        }
      ],
      "name": "setRootNode",
      "outputs": [
        {
          "name": "",
          "type": "bool"
        }
      ],
      "payable": false,
      "stateMutability": "nonpayable",
      "type": "function"
    },
    {
      "constant": true,
      "inputs": [
        {
          "name": "_subNode",
          "type": "bytes32"
        }
      ],
      "name": "hash",
      "outputs": [
        {
          "name": "nameHash",
          "type": "bytes32"
        }
      ],
      "payable": false,
      "stateMutability": "view",
      "type": "function"
    },
    {
      "constant": false,
      "inputs": [
        {
          "name": "_subNode",
          "type": "bytes32"
        },
        {
          "name": "_newOwner",
          "type": "address"
        }
      ],
      "name": "adminSetSubNode",
      "outputs": [
        {
          "name": "",
          "type": "bool"
        }
      ],
      "payable": false,
      "stateMutability": "nonpayable",
      "type": "function"
    },
    {
      "constant": false,
      "inputs": [
        {
          "name": "newOwner",
          "type": "address"
        }
      ],
      "name": "transferOwnership",
      "outputs": [],
      "payable": false,
      "stateMutability": "nonpayable",
      "type": "function"
    },
    {
      "constant": true,
      "inputs": [],
      "name": "rootNode",
      "outputs": [
        {
          "name": "",
          "type": "bytes32"
        }
      ],
      "payable": false,
      "stateMutability": "view",
      "type": "function"
    },
    {
      "inputs": [
        {
          "name": "_ens",
          "type": "address"
        },
        {
          "name": "_rootNode",
          "type": "bytes32"
        }
      ],
      "payable": false,
      "stateMutability": "nonpayable",
      "type": "constructor"
    },
    {
      "payable": false,
      "stateMutability": "nonpayable",
      "type": "fallback"
    },
    {
      "anonymous": false,
      "inputs": [
        {
          "indexed": true,
          "name": "label",
          "type": "bytes32"
        },
        {
          "indexed": true,
          "name": "version",
          "type": "uint256"
        }
      ],
      "name": "Register",
      "type": "event"
    },
    {
      "anonymous": false,
      "inputs": [
        {
          "indexed": true,
          "name": "previousOwner",
          "type": "address"
        },
        {
          "indexed": true,
          "name": "newOwner",
          "type": "address"
        }
      ],
      "name": "OwnershipTransferred",
      "type": "event"
    }
  ],
  "bytecode": "0x606060405234156200001057600080fd5b60405160408062001b8b833981016040528080519060200190919080519060200190919050506040805190810160405280600881526020017f70726f66696c65730000000000000000000000000000000000000000000000008152506001336000806101000a81548173ffffffffffffffffffffffffffffffffffffffff021916908373ffffffffffffffffffffffffffffffffffffffff160217905550600034141515620000be57600080fd5b600081111515620000ce57600080fd5b8160029080519060200190620000e692919062000144565b5080600181905550505081600360006101000a81548173ffffffffffffffffffffffffffffffffffffffff021916908373ffffffffffffffffffffffffffffffffffffffff16021790555080600581600019169055505050620001f3565b828054600181600116156101000203166002900490600052602060002090601f016020900481019282601f106200018757805160ff1916838001178555620001b8565b82800160010185558215620001b8579182015b82811115620001b75782518255916020019190600101906200019a565b5b509050620001c79190620001cb565b5090565b620001f091905b80821115620001ec576000816000905550600101620001d2565b5090565b90565b61198880620002036000396000f3006060604052600436106100fc576000357c0100000000000000000000000000000000000000000000000000000000900463ffffffff16806317ffc320146101095780633a4217ba146101425780633f15457f146101b15780634e543b261461020657806354fd4d501461023f5780636b4316db146102685780636e8f2be0146102a757806383197ef0146102f85780638da5cb5b1461030d57806393f0899a146103625780639f727c27146103f0578063b5f5aad214610405578063c0ee0b8a14610456578063d20ab1d7146104ac578063d8389dc5146104eb578063e3650b301461052e578063f2fde38b1461058c578063faff50a8146105c5575b341561010757600080fd5b005b341561011457600080fd5b610140600480803573ffffffffffffffffffffffffffffffffffffffff169060200190919050506105f6565b005b341561014d57600080fd5b61019760048080356000191690602001909190803515159060200190919080356000191690602001909190803560ff1690602001909190803560ff16906020019091905050610763565b604051808215151515815260200191505060405180910390f35b34156101bc57600080fd5b6101c4610d3b565b604051808273ffffffffffffffffffffffffffffffffffffffff1673ffffffffffffffffffffffffffffffffffffffff16815260200191505060405180910390f35b341561021157600080fd5b61023d600480803573ffffffffffffffffffffffffffffffffffffffff16906020019091905050610d61565b005b341561024a57600080fd5b610252610e00565b6040518082815260200191505060405180910390f35b341561027357600080fd5b61028d600480803560001916906020019091905050610e06565b604051808215151515815260200191505060405180910390f35b34156102b257600080fd5b6102de600480803573ffffffffffffffffffffffffffffffffffffffff169060200190919050506110cf565b604051808215151515815260200191505060405180910390f35b341561030357600080fd5b61030b61117e565b005b341561031857600080fd5b610320611213565b604051808273ffffffffffffffffffffffffffffffffffffffff1673ffffffffffffffffffffffffffffffffffffffff16815260200191505060405180910390f35b341561036d57600080fd5b610375611238565b6040518080602001828103825283818151815260200191508051906020019080838360005b838110156103b557808201518184015260208101905061039a565b50505050905090810190601f1680156103e25780820380516001836020036101000a031916815260200191505b509250505060405180910390f35b34156103fb57600080fd5b6104036112d6565b005b341561041057600080fd5b61043c600480803573ffffffffffffffffffffffffffffffffffffffff169060200190919050506113a8565b604051808215151515815260200191505060405180910390f35b341561046157600080fd5b6104aa600480803573ffffffffffffffffffffffffffffffffffffffff1690602001909190803590602001909190803590602001908201803590602001919091929050506114f8565b005b34156104b757600080fd5b6104d16004808035600019169060200190919050506114fd565b604051808215151515815260200191505060405180910390f35b34156104f657600080fd5b610510600480803560001916906020019091905050611576565b60405180826000191660001916815260200191505060405180910390f35b341561053957600080fd5b61057260048080356000191690602001909190803573ffffffffffffffffffffffffffffffffffffffff169060200190919050506115af565b604051808215151515815260200191505060405180910390f35b341561059757600080fd5b6105c3600480803573ffffffffffffffffffffffffffffffffffffffff1690602001909190505061171c565b005b34156105d057600080fd5b6105d8611871565b60405180826000191660001916815260200191505060405180910390f35b60008060009054906101000a900473ffffffffffffffffffffffffffffffffffffffff1673ffffffffffffffffffffffffffffffffffffffff163373ffffffffffffffffffffffffffffffffffffffff1614151561065357600080fd5b8173ffffffffffffffffffffffffffffffffffffffff166370a08231306000604051602001526040518263ffffffff167c0100000000000000000000000000000000000000000000000000000000028152600401808273ffffffffffffffffffffffffffffffffffffffff1673ffffffffffffffffffffffffffffffffffffffff168152602001915050602060405180830381600087803b15156106f657600080fd5b6102c65a03f1151561070757600080fd5b50505060405180519050905061075f6000809054906101000a900473ffffffffffffffffffffffffffffffffffffffff16828473ffffffffffffffffffffffffffffffffffffffff166118779092919063ffffffff16565b5050565b6000856000806005548360405180836000191660001916815260200182600019166000191681526020019250505060405180910390209150600360009054906101000a900473ffffffffffffffffffffffffffffffffffffffff1673ffffffffffffffffffffffffffffffffffffffff166302571be3836000604051602001526040518263ffffffff167c0100000000000000000000000000000000000000000000000000000000028152600401808260001916600019168152602001915050602060405180830381600087803b151561083c57600080fd5b6102c65a03f1151561084d57600080fd5b50505060405180519050905060008173ffffffffffffffffffffffffffffffffffffffff1614806108a957503373ffffffffffffffffffffffffffffffffffffffff168173ffffffffffffffffffffffffffffffffffffffff16145b15156108b457600080fd5b6108bd89610e06565b15156108c857600080fd5b600360009054906101000a900473ffffffffffffffffffffffffffffffffffffffff1673ffffffffffffffffffffffffffffffffffffffff166306ab59236005548b306040518463ffffffff167c010000000000000000000000000000000000000000000000000000000002815260040180846000191660001916815260200183600019166000191681526020018273ffffffffffffffffffffffffffffffffffffffff1673ffffffffffffffffffffffffffffffffffffffff1681526020019350505050600060405180830381600087803b15156109a657600080fd5b6102c65a03f115156109b757600080fd5b505050600360009054906101000a900473ffffffffffffffffffffffffffffffffffffffff1673ffffffffffffffffffffffffffffffffffffffff16631896f70a610a018b611576565b600460009054906101000a900473ffffffffffffffffffffffffffffffffffffffff166040518363ffffffff167c01000000000000000000000000000000000000000000000000000000000281526004018083600019166000191681526020018273ffffffffffffffffffffffffffffffffffffffff1673ffffffffffffffffffffffffffffffffffffffff16815260200192505050600060405180830381600087803b1515610ab057600080fd5b6102c65a03f11515610ac157600080fd5b505050600360009054906101000a900473ffffffffffffffffffffffffffffffffffffffff1673ffffffffffffffffffffffffffffffffffffffff166306ab59236005548b336040518463ffffffff167c010000000000000000000000000000000000000000000000000000000002815260040180846000191660001916815260200183600019166000191681526020018273ffffffffffffffffffffffffffffffffffffffff1673ffffffffffffffffffffffffffffffffffffffff1681526020019350505050600060405180830381600087803b1515610ba257600080fd5b6102c65a03f11515610bb357600080fd5b505050600460009054906101000a900473ffffffffffffffffffffffffffffffffffffffff1673ffffffffffffffffffffffffffffffffffffffff166317a65f4c8a610bfe8c611576565b338c8c8c8c6000604051602001526040518863ffffffff167c010000000000000000000000000000000000000000000000000000000002815260040180886000191660001916815260200187600019166000191681526020018673ffffffffffffffffffffffffffffffffffffffff1673ffffffffffffffffffffffffffffffffffffffff1681526020018515151515815260200184600019166000191681526020018360ff1660ff1681526020018260ff1660ff168152602001975050505050505050602060405180830381600087803b1515610cdb57600080fd5b6102c65a03f11515610cec57600080fd5b505050604051805190505060015489600019167fd5fa0e9a716b3ec4895a48223ad309e2d3fa5e27f04d8dc9b3c33cc738a50eb060405160405180910390a36001935050505095945050505050565b600360009054906101000a900473ffffffffffffffffffffffffffffffffffffffff1681565b6000809054906101000a900473ffffffffffffffffffffffffffffffffffffffff1673ffffffffffffffffffffffffffffffffffffffff163373ffffffffffffffffffffffffffffffffffffffff16141515610dbc57600080fd5b80600460006101000a81548173ffffffffffffffffffffffffffffffffffffffff021916908373ffffffffffffffffffffffffffffffffffffffff16021790555050565b60015481565b600080600090505b602060ff168160ff1610156110bf5760007f010000000000000000000000000000000000000000000000000000000000000002838260ff16602081101515610e5257fe5b1a7f0100000000000000000000000000000000000000000000000000000000000000027effffffffffffffffffffffffffffffffffffffffffffffffffffffffffffff19161415610ea2576110bf565b607a7f010000000000000000000000000000000000000000000000000000000000000002838260ff16602081101515610ed757fe5b1a7f0100000000000000000000000000000000000000000000000000000000000000027effffffffffffffffffffffffffffffffffffffffffffffffffffffffffffff19161180611022575060617f010000000000000000000000000000000000000000000000000000000000000002838260ff16602081101515610f5857fe5b1a7f0100000000000000000000000000000000000000000000000000000000000000027effffffffffffffffffffffffffffffffffffffffffffffffffffffffffffff1916108015611021575060397f010000000000000000000000000000000000000000000000000000000000000002838260ff16602081101515610fda57fe5b1a7f0100000000000000000000000000000000000000000000000000000000000000027effffffffffffffffffffffffffffffffffffffffffffffffffffffffffffff1916115b5b806110a4575060307f010000000000000000000000000000000000000000000000000000000000000002838260ff1660208110151561105d57fe5b1a7f0100000000000000000000000000000000000000000000000000000000000000027effffffffffffffffffffffffffffffffffffffffffffffffffffffffffffff1916105b156110b257600091506110c9565b8080600101915050610e0e565b60018160ff161191505b50919050565b60008060009054906101000a900473ffffffffffffffffffffffffffffffffffffffff1673ffffffffffffffffffffffffffffffffffffffff163373ffffffffffffffffffffffffffffffffffffffff1614151561112c57600080fd5b81600360006101000a81548173ffffffffffffffffffffffffffffffffffffffff021916908373ffffffffffffffffffffffffffffffffffffffff16021790555061117561194a565b60019050919050565b6000809054906101000a900473ffffffffffffffffffffffffffffffffffffffff1673ffffffffffffffffffffffffffffffffffffffff163373ffffffffffffffffffffffffffffffffffffffff161415156111d957600080fd5b6000809054906101000a900473ffffffffffffffffffffffffffffffffffffffff1673ffffffffffffffffffffffffffffffffffffffff16ff5b6000809054906101000a900473ffffffffffffffffffffffffffffffffffffffff1681565b60028054600181600116156101000203166002900480601f0160208091040260200160405190810160405280929190818152602001828054600181600116156101000203166002900480156112ce5780601f106112a3576101008083540402835291602001916112ce565b820191906000526020600020905b8154815290600101906020018083116112b157829003601f168201915b505050505081565b6000809054906101000a900473ffffffffffffffffffffffffffffffffffffffff1673ffffffffffffffffffffffffffffffffffffffff163373ffffffffffffffffffffffffffffffffffffffff1614151561133157600080fd5b6000809054906101000a900473ffffffffffffffffffffffffffffffffffffffff1673ffffffffffffffffffffffffffffffffffffffff166108fc3073ffffffffffffffffffffffffffffffffffffffff16319081150290604051600060405180830381858888f1935050505015156113a657fe5b565b60008060009054906101000a900473ffffffffffffffffffffffffffffffffffffffff1673ffffffffffffffffffffffffffffffffffffffff163373ffffffffffffffffffffffffffffffffffffffff1614151561140557600080fd5b600360009054906101000a900473ffffffffffffffffffffffffffffffffffffffff1673ffffffffffffffffffffffffffffffffffffffff16635b0fc9c3600554846040518363ffffffff167c01000000000000000000000000000000000000000000000000000000000281526004018083600019166000191681526020018273ffffffffffffffffffffffffffffffffffffffff1673ffffffffffffffffffffffffffffffffffffffff16815260200192505050600060405180830381600087803b15156114d357600080fd5b6102c65a03f115156114e457600080fd5b5050506114ef61194a565b60019050919050565b600080fd5b60008060009054906101000a900473ffffffffffffffffffffffffffffffffffffffff1673ffffffffffffffffffffffffffffffffffffffff163373ffffffffffffffffffffffffffffffffffffffff1614151561155a57600080fd5b816005816000191690555061156d61194a565b60019050919050565b60006005548260405180836000191660001916815260200182600019166000191681526020019250505060405180910390209050919050565b60008060009054906101000a900473ffffffffffffffffffffffffffffffffffffffff1673ffffffffffffffffffffffffffffffffffffffff163373ffffffffffffffffffffffffffffffffffffffff1614151561160c57600080fd5b61161583610e06565b151561162057600080fd5b600360009054906101000a900473ffffffffffffffffffffffffffffffffffffffff1673ffffffffffffffffffffffffffffffffffffffff166306ab592360055485856040518463ffffffff167c010000000000000000000000000000000000000000000000000000000002815260040180846000191660001916815260200183600019166000191681526020018273ffffffffffffffffffffffffffffffffffffffff1673ffffffffffffffffffffffffffffffffffffffff1681526020019350505050600060405180830381600087803b15156116fe57600080fd5b6102c65a03f1151561170f57600080fd5b5050506001905092915050565b6000809054906101000a900473ffffffffffffffffffffffffffffffffffffffff1673ffffffffffffffffffffffffffffffffffffffff163373ffffffffffffffffffffffffffffffffffffffff1614151561177757600080fd5b600073ffffffffffffffffffffffffffffffffffffffff168173ffffffffffffffffffffffffffffffffffffffff16141515156117b357600080fd5b8073ffffffffffffffffffffffffffffffffffffffff166000809054906101000a900473ffffffffffffffffffffffffffffffffffffffff1673ffffffffffffffffffffffffffffffffffffffff167f8be0079c531659141344cd1fd0a4f28419497f9722a3daafe3b4186f6b6457e060405160405180910390a3806000806101000a81548173ffffffffffffffffffffffffffffffffffffffff021916908373ffffffffffffffffffffffffffffffffffffffff16021790555050565b60055481565b8273ffffffffffffffffffffffffffffffffffffffff1663a9059cbb83836000604051602001526040518363ffffffff167c0100000000000000000000000000000000000000000000000000000000028152600401808373ffffffffffffffffffffffffffffffffffffffff1673ffffffffffffffffffffffffffffffffffffffff16815260200182815260200192505050602060405180830381600087803b151561192257600080fd5b6102c65a03f1151561193357600080fd5b50505060405180519050151561194557fe5b505050565b600180600082825401925050819055505600a165627a7a723058207b3b5104195d7e8875fd4d7df6ad383ca2f1d75a0a25db759716e9d86fbb4cf50029",
  "source": "pragma solidity ^0.4.0;\n\n\nimport './ProfileResolver.sol';\nimport './AkashaModule.sol';\nimport 'ens/contracts/ENS.sol';\nimport 'ens/contracts/FIFSRegistrar.sol';\n\n\n// also has Registrar functionality\ncontract ProfileRegistrar is AkashaModule {\n\n    ENS public ens;\n\n    ProfileResolver resolver;\n\n    bytes32 public rootNode;\n\n    event Register(bytes32 indexed label, uint indexed version);\n\n    function ProfileRegistrar(ENS _ens, bytes32 _rootNode) public AkashaModule(\"profiles\", 1)\n    {\n        ens = _ens;\n        rootNode = _rootNode;\n    }\n\n    modifier only_subNode_owner(bytes32 subNode)\n    {\n        var node = keccak256(rootNode, subNode);\n        var currentOwner = ens.owner(node);\n\n        require(currentOwner == 0 || currentOwner == msg.sender);\n        _;\n    }\n\n    // change ENS address\n    function setEns(address _ens)\n    public\n    onlyOwner\n    returns (bool)\n    {\n        ens = ENS(_ens);\n        incrementVersion();\n        return true;\n    }\n\n    function setResolver(address _resolver)\n    public\n    onlyOwner\n    {\n        resolver = ProfileResolver(_resolver);\n    }\n\n    // AKASHA users can claim a subdomain *.${rootNode}.eth\n    //    function register(bytes32 _subNode, address owner)\n    //    only_subNode_owner(_subNode)\n    //    {\n    //        require(check_format(_subNode));\n    //        ens.setSubnodeOwner(rootNode, _subNode, owner);\n    //    }\n\n    function register(bytes32 _subNode, bool _enableDonations, bytes32 _hash, uint8 _fn, uint8 _digestSize)\n    public\n    only_subNode_owner(_subNode)\n    returns (bool)\n    {\n        require(check_format(_subNode));\n\n        ens.setSubnodeOwner(rootNode, _subNode, this);\n        ens.setResolver(hash(_subNode), resolver);\n\n        ens.setSubnodeOwner(rootNode, _subNode, msg.sender);\n        resolver.registerHash(_subNode, hash(_subNode), msg.sender, _enableDonations, _hash, _fn, _digestSize);\n        Register(_subNode, version);\n        return true;\n    }\n\n    // fk squatters\n    function adminSetSubNode(bytes32 _subNode, address _newOwner)\n    public\n    onlyOwner\n    returns (bool)\n    {\n        require(check_format(_subNode));\n        ens.setSubnodeOwner(rootNode, _subNode, _newOwner);\n        return true;\n    }\n\n    // in case something goes wrong :D\n    function changeRootOwner(address _newOwner)\n    public\n    onlyOwner\n    returns (bool)\n    {\n        ens.setOwner(rootNode, _newOwner);\n        incrementVersion();\n        return true;\n    }\n\n    // change domain\n    function setRootNode(bytes32 _newRoot)\n    public\n    onlyOwner\n    returns (bool)\n    {\n        rootNode = _newRoot;\n        incrementVersion();\n        return true;\n    }\n\n    function check_format(bytes32 _subNode)\n    public\n    pure\n    returns (bool)\n    {\n        // enforce alpha first\n        //if (_subNode[0] < 58) {\n        //   return false;\n        //}\n\n        for (uint8 i = 0; i < _subNode.length; i++)\n        {\n            if (_subNode[i] == 0) break;\n\n            // ^[a-z0-9]\n            if (_subNode[i] > 122 || (_subNode[i] < 97 && _subNode[i] > 57) || _subNode[i] < 48)\n            {\n                return false;\n            }\n        }\n\n        return i > 1;\n    }\n\n    function hash(bytes32 _subNode)\n    public\n    view\n    returns (bytes32 nameHash)\n    {\n        nameHash = keccak256(rootNode, _subNode);\n    }\n}\n",
  "sourcePath": "/home/kenshyx/projects/contracts.alpha/contracts/ProfileRegistrar.sol",
  "compiler": {
    "name": "solc",
    "version": "0.4.18+commit.9cf6e910.Emscripten.clang"
  },
  "schemaVersion": "1.0.1",
  "updatedAt": "2017-11-16T15:03:35.952Z"
}