{
  "contractName": "ProfileRegistrar",
  "abi": [
    {
      "constant": false,
      "inputs": [
        {
          "name": "token",
          "type": "address"
        }
      ],
      "name": "reclaimToken",
      "outputs": [],
      "payable": false,
      "stateMutability": "nonpayable",
      "type": "function"
    },
    {
      "constant": false,
      "inputs": [
        {
          "name": "_subNode",
          "type": "bytes32"
        },
        {
          "name": "_enableDonations",
          "type": "bool"
        },
        {
          "name": "_hash",
          "type": "bytes32"
        },
        {
          "name": "_fn",
          "type": "uint8"
        },
        {
          "name": "_digestSize",
          "type": "uint8"
        }
      ],
      "name": "register",
      "outputs": [
        {
          "name": "",
          "type": "bool"
        }
      ],
      "payable": false,
      "stateMutability": "nonpayable",
      "type": "function"
    },
    {
      "constant": true,
      "inputs": [],
      "name": "ens",
      "outputs": [
        {
          "name": "",
          "type": "address"
        }
      ],
      "payable": false,
      "stateMutability": "view",
      "type": "function"
    },
    {
      "constant": false,
      "inputs": [
        {
          "name": "_resolver",
          "type": "address"
        }
      ],
      "name": "setResolver",
      "outputs": [],
      "payable": false,
      "stateMutability": "nonpayable",
      "type": "function"
    },
    {
      "constant": true,
      "inputs": [],
      "name": "version",
      "outputs": [
        {
          "name": "",
          "type": "uint256"
        }
      ],
      "payable": false,
      "stateMutability": "view",
      "type": "function"
    },
    {
      "constant": true,
      "inputs": [
        {
          "name": "_subNode",
          "type": "bytes32"
        }
      ],
      "name": "check_format",
      "outputs": [
        {
          "name": "",
          "type": "bool"
        }
      ],
      "payable": false,
      "stateMutability": "pure",
      "type": "function"
    },
    {
      "constant": false,
      "inputs": [
        {
          "name": "_ens",
          "type": "address"
        }
      ],
      "name": "setEns",
      "outputs": [
        {
          "name": "",
          "type": "bool"
        }
      ],
      "payable": false,
      "stateMutability": "nonpayable",
      "type": "function"
    },
    {
      "constant": false,
      "inputs": [],
      "name": "destroy",
      "outputs": [],
      "payable": false,
      "stateMutability": "nonpayable",
      "type": "function"
    },
    {
      "constant": true,
      "inputs": [],
      "name": "owner",
      "outputs": [
        {
          "name": "",
          "type": "address"
        }
      ],
      "payable": false,
      "stateMutability": "view",
      "type": "function"
    },
    {
      "constant": true,
      "inputs": [],
      "name": "moduleName",
      "outputs": [
        {
          "name": "",
          "type": "string"
        }
      ],
      "payable": false,
      "stateMutability": "view",
      "type": "function"
    },
    {
      "constant": false,
      "inputs": [],
      "name": "reclaimEther",
      "outputs": [],
      "payable": false,
      "stateMutability": "nonpayable",
      "type": "function"
    },
    {
      "constant": false,
      "inputs": [
        {
          "name": "_newOwner",
          "type": "address"
        }
      ],
      "name": "changeRootOwner",
      "outputs": [
        {
          "name": "",
          "type": "bool"
        }
      ],
      "payable": false,
      "stateMutability": "nonpayable",
      "type": "function"
    },
    {
      "constant": false,
      "inputs": [
        {
          "name": "from_",
          "type": "address"
        },
        {
          "name": "value_",
          "type": "uint256"
        },
        {
          "name": "data_",
          "type": "bytes"
        }
      ],
      "name": "tokenFallback",
      "outputs": [],
      "payable": false,
      "stateMutability": "nonpayable",
      "type": "function"
    },
    {
      "constant": false,
      "inputs": [
        {
          "name": "_newRoot",
          "type": "bytes32"
        }
      ],
      "name": "setRootNode",
      "outputs": [
        {
          "name": "",
          "type": "bool"
        }
      ],
      "payable": false,
      "stateMutability": "nonpayable",
      "type": "function"
    },
    {
      "constant": false,
      "inputs": [
        {
          "name": "_subNode",
          "type": "bytes32"
        },
        {
          "name": "_enableDonations",
          "type": "bool"
        },
        {
          "name": "_alphaUser",
          "type": "address"
        }
      ],
      "name": "adminRegisterFor",
      "outputs": [
        {
          "name": "",
          "type": "bool"
        }
      ],
      "payable": false,
      "stateMutability": "nonpayable",
      "type": "function"
    },
    {
      "constant": true,
      "inputs": [
        {
          "name": "_subNode",
          "type": "bytes32"
        }
      ],
      "name": "hash",
      "outputs": [
        {
          "name": "nameHash",
          "type": "bytes32"
        }
      ],
      "payable": false,
      "stateMutability": "view",
      "type": "function"
    },
    {
      "constant": false,
      "inputs": [
        {
          "name": "_subNode",
          "type": "bytes32"
        },
        {
          "name": "_newOwner",
          "type": "address"
        }
      ],
      "name": "adminSetSubNode",
      "outputs": [
        {
          "name": "",
          "type": "bool"
        }
      ],
      "payable": false,
      "stateMutability": "nonpayable",
      "type": "function"
    },
    {
      "constant": false,
      "inputs": [
        {
          "name": "newOwner",
          "type": "address"
        }
      ],
      "name": "transferOwnership",
      "outputs": [],
      "payable": false,
      "stateMutability": "nonpayable",
      "type": "function"
    },
    {
      "constant": true,
      "inputs": [],
      "name": "rootNode",
      "outputs": [
        {
          "name": "",
          "type": "bytes32"
        }
      ],
      "payable": false,
      "stateMutability": "view",
      "type": "function"
    },
    {
      "inputs": [
        {
          "name": "_ens",
          "type": "address"
        },
        {
          "name": "_rootNode",
          "type": "bytes32"
        }
      ],
      "payable": false,
      "stateMutability": "nonpayable",
      "type": "constructor"
    },
    {
      "payable": false,
      "stateMutability": "nonpayable",
      "type": "fallback"
    },
    {
      "anonymous": false,
      "inputs": [
        {
          "indexed": true,
          "name": "label",
          "type": "bytes32"
        },
        {
          "indexed": true,
          "name": "version",
          "type": "uint256"
        }
      ],
      "name": "Register",
      "type": "event"
    },
    {
      "anonymous": false,
      "inputs": [
        {
          "indexed": true,
          "name": "previousOwner",
          "type": "address"
        },
        {
          "indexed": true,
          "name": "newOwner",
          "type": "address"
        }
      ],
      "name": "OwnershipTransferred",
      "type": "event"
    }
  ],
  "bytecode": "0x606060405234156200001057600080fd5b60405160408062002063833981016040528080519060200190919080519060200190919050506040805190810160405280600881526020017f70726f66696c65730000000000000000000000000000000000000000000000008152506001336000806101000a81548173ffffffffffffffffffffffffffffffffffffffff021916908373ffffffffffffffffffffffffffffffffffffffff160217905550600034141515620000be57600080fd5b600081111515620000ce57600080fd5b8160029080519060200190620000e692919062000144565b5080600181905550505081600360006101000a81548173ffffffffffffffffffffffffffffffffffffffff021916908373ffffffffffffffffffffffffffffffffffffffff16021790555080600581600019169055505050620001f3565b828054600181600116156101000203166002900490600052602060002090601f016020900481019282601f106200018757805160ff1916838001178555620001b8565b82800160010185558215620001b8579182015b82811115620001b75782518255916020019190600101906200019a565b5b509050620001c79190620001cb565b5090565b620001f091905b80821115620001ec576000816000905550600101620001d2565b5090565b90565b611e6080620002036000396000f300606060405260043610610107576000357c0100000000000000000000000000000000000000000000000000000000900463ffffffff16806317ffc320146101145780633a4217ba1461014d5780633f15457f146101b85780634e543b26146101e157806354fd4d501461021a5780636b4316db146102435780636e8f2be01461027e57806383197ef0146102cb5780638da5cb5b146102e057806393f0899a146103095780639f727c2714610332578063b5f5aad214610347578063c0ee0b8a14610394578063d20ab1d7146103ea578063d20fdeec14610425578063d8389dc51461048a578063e3650b30146104c5578063f2fde38b1461051f578063faff50a814610558575b341561011257600080fd5b005b341561011f57600080fd5b61014b600480803573ffffffffffffffffffffffffffffffffffffffff16906020019091905050610581565b005b341561015857600080fd5b6101a260048080356000191690602001909190803515159060200190919080356000191690602001909190803560ff1690602001909190803560ff169060200190919050506106c2565b6040516101af9190611b61565b60405180910390f35b34156101c357600080fd5b6101cb610b50565b6040516101d89190611ce1565b60405180910390f35b34156101ec57600080fd5b610218600480803573ffffffffffffffffffffffffffffffffffffffff16906020019091905050610b76565b005b341561022557600080fd5b61022d610c15565b60405161023a9190611d1e565b60405180910390f35b341561024e57600080fd5b610268600480803560001916906020019091905050610c1b565b6040516102759190611b61565b60405180910390f35b341561028957600080fd5b6102b5600480803573ffffffffffffffffffffffffffffffffffffffff16906020019091905050610ee4565b6040516102c29190611b61565b60405180910390f35b34156102d657600080fd5b6102de610f93565b005b34156102eb57600080fd5b6102f3611028565b6040516103009190611b1d565b60405180910390f35b341561031457600080fd5b61031c61104d565b6040516103299190611cfc565b60405180910390f35b341561033d57600080fd5b6103456110eb565b005b341561035257600080fd5b61037e600480803573ffffffffffffffffffffffffffffffffffffffff169060200190919050506111bd565b60405161038b9190611b61565b60405180910390f35b341561039f57600080fd5b6103e8600480803573ffffffffffffffffffffffffffffffffffffffff1690602001909190803590602001909190803590602001908201803590602001919091929050506112d3565b005b34156103f557600080fd5b61040f6004808035600019169060200190919050506112d8565b60405161041c9190611b61565b60405180910390f35b341561043057600080fd5b610474600480803560001916906020019091908035151590602001909190803573ffffffffffffffffffffffffffffffffffffffff16906020019091905050611351565b6040516104819190611b61565b60405180910390f35b341561049557600080fd5b6104af6004808035600019169060200190919050506116f4565b6040516104bc9190611b7c565b60405180910390f35b34156104d057600080fd5b61050960048080356000191690602001909190803573ffffffffffffffffffffffffffffffffffffffff1690602001909190505061172d565b6040516105169190611b61565b60405180910390f35b341561052a57600080fd5b610556600480803573ffffffffffffffffffffffffffffffffffffffff16906020019091905050611852565b005b341561056357600080fd5b61056b6119a7565b6040516105789190611b7c565b60405180910390f35b60008060009054906101000a900473ffffffffffffffffffffffffffffffffffffffff1673ffffffffffffffffffffffffffffffffffffffff163373ffffffffffffffffffffffffffffffffffffffff161415156105de57600080fd5b8173ffffffffffffffffffffffffffffffffffffffff166370a08231306000604051602001526040518263ffffffff167c010000000000000000000000000000000000000000000000000000000002815260040161063c9190611cc6565b602060405180830381600087803b151561065557600080fd5b6102c65a03f1151561066657600080fd5b5050506040518051905090506106be6000809054906101000a900473ffffffffffffffffffffffffffffffffffffffff16828473ffffffffffffffffffffffffffffffffffffffff166119ad9092919063ffffffff16565b5050565b6000856000806005548360405180836000191660001916815260200182600019166000191681526020019250505060405180910390209150600360009054906101000a900473ffffffffffffffffffffffffffffffffffffffff1673ffffffffffffffffffffffffffffffffffffffff166302571be3836000604051602001526040518263ffffffff167c010000000000000000000000000000000000000000000000000000000002815260040161077a9190611b7c565b602060405180830381600087803b151561079357600080fd5b6102c65a03f115156107a457600080fd5b50505060405180519050905060008173ffffffffffffffffffffffffffffffffffffffff16148061080057503373ffffffffffffffffffffffffffffffffffffffff168173ffffffffffffffffffffffffffffffffffffffff16145b151561080b57600080fd5b61081489610c1b565b151561081f57600080fd5b600360009054906101000a900473ffffffffffffffffffffffffffffffffffffffff1673ffffffffffffffffffffffffffffffffffffffff166306ab59236005548b306040518463ffffffff167c010000000000000000000000000000000000000000000000000000000002815260040161089c93929190611c66565b600060405180830381600087803b15156108b557600080fd5b6102c65a03f115156108c657600080fd5b505050600360009054906101000a900473ffffffffffffffffffffffffffffffffffffffff1673ffffffffffffffffffffffffffffffffffffffff16631896f70a6109108b6116f4565b600460009054906101000a900473ffffffffffffffffffffffffffffffffffffffff166040518363ffffffff167c010000000000000000000000000000000000000000000000000000000002815260040161096c929190611c9d565b600060405180830381600087803b151561098557600080fd5b6102c65a03f1151561099657600080fd5b505050600360009054906101000a900473ffffffffffffffffffffffffffffffffffffffff1673ffffffffffffffffffffffffffffffffffffffff166306ab59236005548b336040518463ffffffff167c0100000000000000000000000000000000000000000000000000000000028152600401610a1693929190611bc0565b600060405180830381600087803b1515610a2f57600080fd5b6102c65a03f11515610a4057600080fd5b505050600460009054906101000a900473ffffffffffffffffffffffffffffffffffffffff1673ffffffffffffffffffffffffffffffffffffffff166317a65f4c8a610a8b8c6116f4565b338c8c8c8c6000604051602001526040518863ffffffff167c0100000000000000000000000000000000000000000000000000000000028152600401610ad79796959493929190611bf7565b602060405180830381600087803b1515610af057600080fd5b6102c65a03f11515610b0157600080fd5b505050604051805190505060015489600019167fd5fa0e9a716b3ec4895a48223ad309e2d3fa5e27f04d8dc9b3c33cc738a50eb060405160405180910390a36001935050505095945050505050565b600360009054906101000a900473ffffffffffffffffffffffffffffffffffffffff1681565b6000809054906101000a900473ffffffffffffffffffffffffffffffffffffffff1673ffffffffffffffffffffffffffffffffffffffff163373ffffffffffffffffffffffffffffffffffffffff16141515610bd157600080fd5b80600460006101000a81548173ffffffffffffffffffffffffffffffffffffffff021916908373ffffffffffffffffffffffffffffffffffffffff16021790555050565b60015481565b600080600090505b602060ff168160ff161015610ed45760007f010000000000000000000000000000000000000000000000000000000000000002838260ff16602081101515610c6757fe5b1a7f0100000000000000000000000000000000000000000000000000000000000000027effffffffffffffffffffffffffffffffffffffffffffffffffffffffffffff19161415610cb757610ed4565b607a7f010000000000000000000000000000000000000000000000000000000000000002838260ff16602081101515610cec57fe5b1a7f0100000000000000000000000000000000000000000000000000000000000000027effffffffffffffffffffffffffffffffffffffffffffffffffffffffffffff19161180610e37575060617f010000000000000000000000000000000000000000000000000000000000000002838260ff16602081101515610d6d57fe5b1a7f0100000000000000000000000000000000000000000000000000000000000000027effffffffffffffffffffffffffffffffffffffffffffffffffffffffffffff1916108015610e36575060397f010000000000000000000000000000000000000000000000000000000000000002838260ff16602081101515610def57fe5b1a7f0100000000000000000000000000000000000000000000000000000000000000027effffffffffffffffffffffffffffffffffffffffffffffffffffffffffffff1916115b5b80610eb9575060307f010000000000000000000000000000000000000000000000000000000000000002838260ff16602081101515610e7257fe5b1a7f0100000000000000000000000000000000000000000000000000000000000000027effffffffffffffffffffffffffffffffffffffffffffffffffffffffffffff1916105b15610ec75760009150610ede565b8080600101915050610c23565b60018160ff161191505b50919050565b60008060009054906101000a900473ffffffffffffffffffffffffffffffffffffffff1673ffffffffffffffffffffffffffffffffffffffff163373ffffffffffffffffffffffffffffffffffffffff16141515610f4157600080fd5b81600360006101000a81548173ffffffffffffffffffffffffffffffffffffffff021916908373ffffffffffffffffffffffffffffffffffffffff160217905550610f8a611a4e565b60019050919050565b6000809054906101000a900473ffffffffffffffffffffffffffffffffffffffff1673ffffffffffffffffffffffffffffffffffffffff163373ffffffffffffffffffffffffffffffffffffffff16141515610fee57600080fd5b6000809054906101000a900473ffffffffffffffffffffffffffffffffffffffff1673ffffffffffffffffffffffffffffffffffffffff16ff5b6000809054906101000a900473ffffffffffffffffffffffffffffffffffffffff1681565b60028054600181600116156101000203166002900480601f0160208091040260200160405190810160405280929190818152602001828054600181600116156101000203166002900480156110e35780601f106110b8576101008083540402835291602001916110e3565b820191906000526020600020905b8154815290600101906020018083116110c657829003601f168201915b505050505081565b6000809054906101000a900473ffffffffffffffffffffffffffffffffffffffff1673ffffffffffffffffffffffffffffffffffffffff163373ffffffffffffffffffffffffffffffffffffffff1614151561114657600080fd5b6000809054906101000a900473ffffffffffffffffffffffffffffffffffffffff1673ffffffffffffffffffffffffffffffffffffffff166108fc3073ffffffffffffffffffffffffffffffffffffffff16319081150290604051600060405180830381858888f1935050505015156111bb57fe5b565b60008060009054906101000a900473ffffffffffffffffffffffffffffffffffffffff1673ffffffffffffffffffffffffffffffffffffffff163373ffffffffffffffffffffffffffffffffffffffff1614151561121a57600080fd5b600360009054906101000a900473ffffffffffffffffffffffffffffffffffffffff1673ffffffffffffffffffffffffffffffffffffffff16635b0fc9c3600554846040518363ffffffff167c0100000000000000000000000000000000000000000000000000000000028152600401611295929190611b97565b600060405180830381600087803b15156112ae57600080fd5b6102c65a03f115156112bf57600080fd5b5050506112ca611a4e565b60019050919050565b600080fd5b60008060009054906101000a900473ffffffffffffffffffffffffffffffffffffffff1673ffffffffffffffffffffffffffffffffffffffff163373ffffffffffffffffffffffffffffffffffffffff1614151561133557600080fd5b8160058160001916905550611348611a4e565b60019050919050565b60008060009054906101000a900473ffffffffffffffffffffffffffffffffffffffff1673ffffffffffffffffffffffffffffffffffffffff163373ffffffffffffffffffffffffffffffffffffffff161415156113ae57600080fd5b6113b784610c1b565b15156113c257600080fd5b600360009054906101000a900473ffffffffffffffffffffffffffffffffffffffff1673ffffffffffffffffffffffffffffffffffffffff166306ab592360055486306040518463ffffffff167c010000000000000000000000000000000000000000000000000000000002815260040161143f93929190611c66565b600060405180830381600087803b151561145857600080fd5b6102c65a03f1151561146957600080fd5b505050600360009054906101000a900473ffffffffffffffffffffffffffffffffffffffff1673ffffffffffffffffffffffffffffffffffffffff16631896f70a6114b3866116f4565b600460009054906101000a900473ffffffffffffffffffffffffffffffffffffffff166040518363ffffffff167c010000000000000000000000000000000000000000000000000000000002815260040161150f929190611c9d565b600060405180830381600087803b151561152857600080fd5b6102c65a03f1151561153957600080fd5b505050600360009054906101000a900473ffffffffffffffffffffffffffffffffffffffff1673ffffffffffffffffffffffffffffffffffffffff166306ab592360055486856040518463ffffffff167c01000000000000000000000000000000000000000000000000000000000281526004016115b993929190611bc0565b600060405180830381600087803b15156115d257600080fd5b6102c65a03f115156115e357600080fd5b505050600460009054906101000a900473ffffffffffffffffffffffffffffffffffffffff1673ffffffffffffffffffffffffffffffffffffffff166317a65f4c8561162e876116f4565b85600160006001026000806000604051602001526040518863ffffffff167c01000000000000000000000000000000000000000000000000000000000281526004016116809796959493929190611bf7565b602060405180830381600087803b151561169957600080fd5b6102c65a03f115156116aa57600080fd5b505050604051805190505060015484600019167fd5fa0e9a716b3ec4895a48223ad309e2d3fa5e27f04d8dc9b3c33cc738a50eb060405160405180910390a3600190509392505050565b60006005548260405180836000191660001916815260200182600019166000191681526020019250505060405180910390209050919050565b60008060009054906101000a900473ffffffffffffffffffffffffffffffffffffffff1673ffffffffffffffffffffffffffffffffffffffff163373ffffffffffffffffffffffffffffffffffffffff1614151561178a57600080fd5b61179383610c1b565b151561179e57600080fd5b600360009054906101000a900473ffffffffffffffffffffffffffffffffffffffff1673ffffffffffffffffffffffffffffffffffffffff166306ab592360055485856040518463ffffffff167c010000000000000000000000000000000000000000000000000000000002815260040161181b93929190611bc0565b600060405180830381600087803b151561183457600080fd5b6102c65a03f1151561184557600080fd5b5050506001905092915050565b6000809054906101000a900473ffffffffffffffffffffffffffffffffffffffff1673ffffffffffffffffffffffffffffffffffffffff163373ffffffffffffffffffffffffffffffffffffffff161415156118ad57600080fd5b600073ffffffffffffffffffffffffffffffffffffffff168173ffffffffffffffffffffffffffffffffffffffff16141515156118e957600080fd5b8073ffffffffffffffffffffffffffffffffffffffff166000809054906101000a900473ffffffffffffffffffffffffffffffffffffffff1673ffffffffffffffffffffffffffffffffffffffff167f8be0079c531659141344cd1fd0a4f28419497f9722a3daafe3b4186f6b6457e060405160405180910390a3806000806101000a81548173ffffffffffffffffffffffffffffffffffffffff021916908373ffffffffffffffffffffffffffffffffffffffff16021790555050565b60055481565b8273ffffffffffffffffffffffffffffffffffffffff1663a9059cbb83836000604051602001526040518363ffffffff167c0100000000000000000000000000000000000000000000000000000000028152600401611a0d929190611b38565b602060405180830381600087803b1515611a2657600080fd5b6102c65a03f11515611a3757600080fd5b505050604051805190501515611a4957fe5b505050565b60018060008282540192505081905550565b611a6981611d44565b82525050565b611a7881611d64565b82525050565b611a8781611d70565b82525050565b611a9681611d91565b82525050565b611aa581611da3565b82525050565b611ab481611db5565b82525050565b611ac381611dc7565b82525050565b6000611ad482611d39565b808452611ae8816020860160208601611dd9565b611af181611e15565b602085010191505092915050565b611b0881611d7a565b82525050565b611b1781611d84565b82525050565b6000602082019050611b326000830184611a60565b92915050565b6000604082019050611b4d6000830185611a60565b611b5a6020830184611aff565b9392505050565b6000602082019050611b766000830184611a6f565b92915050565b6000602082019050611b916000830184611a7e565b92915050565b6000604082019050611bac6000830185611a7e565b611bb96020830184611a60565b9392505050565b6000606082019050611bd56000830186611a7e565b611be26020830185611a7e565b611bef6040830184611a60565b949350505050565b600060e082019050611c0c600083018a611a7e565b611c196020830189611a7e565b611c266040830188611a60565b611c336060830187611a6f565b611c406080830186611a7e565b611c4d60a0830185611b0e565b611c5a60c0830184611b0e565b98975050505050505050565b6000606082019050611c7b6000830186611a7e565b611c886020830185611a7e565b611c956040830184611aab565b949350505050565b6000604082019050611cb26000830185611a7e565b611cbf6020830184611aba565b9392505050565b6000602082019050611cdb6000830184611a8d565b92915050565b6000602082019050611cf66000830184611a9c565b92915050565b60006020820190508181036000830152611d168184611ac9565b905092915050565b6000602082019050611d336000830184611aff565b92915050565b600081519050919050565b600073ffffffffffffffffffffffffffffffffffffffff82169050919050565b60008115159050919050565b6000819050919050565b6000819050919050565b600060ff82169050919050565b6000611d9c82611d44565b9050919050565b6000611dae82611d44565b9050919050565b6000611dc082611d44565b9050919050565b6000611dd282611d44565b9050919050565b60005b83811015611df7578082015181840152602081019050611ddc565b83811460008114611e0757611e0e565b6000858501525b5050505050565b6000601f19601f83011690509190505600a265627a7a723058208491d9d55ceb832e992d34286f44455b6e3f86ab4a949c5dfe8bc427ed81b8566c6578706572696d656e74616cf50037",
  "source": "",
  "sourcePath": "contracts/ProfileRegistrar.sol",
  "compiler": {
    "name": "solc",
    "version": "0.4.18+commit.9cf6e910.Emscripten.clang"
  },
  "schemaVersion": "1.0.1",
  "updatedAt": "2017-12-22T12:20:09.391Z"
}