{
  "contractName": "Votes",
  "abi": [
    {
      "constant": true,
      "inputs": [
        {
          "name": "_voter",
          "type": "address"
        }
      ],
      "name": "totalVotesOf",
      "outputs": [
        {
          "name": "weight",
          "type": "uint256"
        },
        {
          "name": "count",
          "type": "uint256"
        }
      ],
      "payable": false,
      "stateMutability": "view",
      "type": "function"
    },
    {
      "constant": false,
      "inputs": [
        {
          "name": "token",
          "type": "address"
        }
      ],
      "name": "reclaimToken",
      "outputs": [],
      "payable": false,
      "stateMutability": "nonpayable",
      "type": "function"
    },
    {
      "constant": true,
      "inputs": [
        {
          "name": "_id",
          "type": "bytes32"
        }
      ],
      "name": "getRecord",
      "outputs": [
        {
          "name": "_totalVotes",
          "type": "uint256"
        },
        {
          "name": "_score",
          "type": "int256"
        },
        {
          "name": "_endPeriod",
          "type": "uint256"
        },
        {
          "name": "_totalKarma",
          "type": "uint256"
        },
        {
          "name": "_claimed",
          "type": "bool"
        }
      ],
      "payable": false,
      "stateMutability": "view",
      "type": "function"
    },
    {
      "constant": true,
      "inputs": [
        {
          "name": "_voter",
          "type": "address"
        },
        {
          "name": "_id",
          "type": "bytes32"
        }
      ],
      "name": "karmaOf",
      "outputs": [
        {
          "name": "_karma",
          "type": "uint256"
        },
        {
          "name": "_claimed",
          "type": "bool"
        }
      ],
      "payable": false,
      "stateMutability": "view",
      "type": "function"
    },
    {
      "constant": true,
      "inputs": [],
      "name": "VOTE_KARMA",
      "outputs": [
        {
          "name": "",
          "type": "uint8"
        }
      ],
      "payable": false,
      "stateMutability": "view",
      "type": "function"
    },
    {
      "constant": false,
      "inputs": [
        {
          "name": "_max",
          "type": "uint8"
        }
      ],
      "name": "setMax",
      "outputs": [],
      "payable": false,
      "stateMutability": "nonpayable",
      "type": "function"
    },
    {
      "constant": false,
      "inputs": [
        {
          "name": "_id",
          "type": "bytes32"
        }
      ],
      "name": "claimKarmaVote",
      "outputs": [
        {
          "name": "",
          "type": "bool"
        }
      ],
      "payable": false,
      "stateMutability": "nonpayable",
      "type": "function"
    },
    {
      "constant": true,
      "inputs": [],
      "name": "owner",
      "outputs": [
        {
          "name": "",
          "type": "address"
        }
      ],
      "payable": false,
      "stateMutability": "view",
      "type": "function"
    },
    {
      "constant": false,
      "inputs": [
        {
          "name": "_essence",
          "type": "address"
        }
      ],
      "name": "setEssence",
      "outputs": [],
      "payable": false,
      "stateMutability": "nonpayable",
      "type": "function"
    },
    {
      "constant": true,
      "inputs": [
        {
          "name": "_weight",
          "type": "uint256"
        }
      ],
      "name": "getEssenceCost",
      "outputs": [
        {
          "name": "",
          "type": "uint256"
        }
      ],
      "payable": false,
      "stateMutability": "view",
      "type": "function"
    },
    {
      "constant": false,
      "inputs": [],
      "name": "reclaimEther",
      "outputs": [],
      "payable": false,
      "stateMutability": "nonpayable",
      "type": "function"
    },
    {
      "constant": false,
      "inputs": [
        {
          "name": "_tags",
          "type": "address"
        }
      ],
      "name": "setTags",
      "outputs": [],
      "payable": false,
      "stateMutability": "nonpayable",
      "type": "function"
    },
    {
      "constant": false,
      "inputs": [
        {
          "name": "_id",
          "type": "bytes32"
        },
        {
          "name": "_publisher",
          "type": "address"
        }
      ],
      "name": "claimEntry",
      "outputs": [
        {
          "name": "",
          "type": "bool"
        }
      ],
      "payable": false,
      "stateMutability": "nonpayable",
      "type": "function"
    },
    {
      "constant": true,
      "inputs": [
        {
          "name": "_id",
          "type": "bytes32"
        },
        {
          "name": "_timeStamp",
          "type": "uint256"
        }
      ],
      "name": "canClaimEntry",
      "outputs": [
        {
          "name": "",
          "type": "bool"
        }
      ],
      "payable": false,
      "stateMutability": "view",
      "type": "function"
    },
    {
      "constant": false,
      "inputs": [
        {
          "name": "from_",
          "type": "address"
        },
        {
          "name": "value_",
          "type": "uint256"
        },
        {
          "name": "data_",
          "type": "bytes"
        }
      ],
      "name": "tokenFallback",
      "outputs": [],
      "payable": false,
      "stateMutability": "nonpayable",
      "type": "function"
    },
    {
      "constant": false,
      "inputs": [
        {
          "name": "_entries",
          "type": "address"
        }
      ],
      "name": "setEntries",
      "outputs": [],
      "payable": false,
      "stateMutability": "nonpayable",
      "type": "function"
    },
    {
      "constant": false,
      "inputs": [
        {
          "name": "_weight",
          "type": "uint8"
        },
        {
          "name": "_source",
          "type": "bytes32"
        },
        {
          "name": "_negative",
          "type": "bool"
        },
        {
          "name": "_publisher",
          "type": "address"
        }
      ],
      "name": "voteEntry",
      "outputs": [
        {
          "name": "",
          "type": "bool"
        }
      ],
      "payable": false,
      "stateMutability": "nonpayable",
      "type": "function"
    },
    {
      "constant": false,
      "inputs": [
        {
          "name": "_weight",
          "type": "uint8"
        },
        {
          "name": "_source",
          "type": "bytes32"
        },
        {
          "name": "_negative",
          "type": "bool"
        }
      ],
      "name": "voteList",
      "outputs": [
        {
          "name": "",
          "type": "bool"
        }
      ],
      "payable": false,
      "stateMutability": "nonpayable",
      "type": "function"
    },
    {
      "constant": true,
      "inputs": [
        {
          "name": "_voter",
          "type": "address"
        },
        {
          "name": "_source",
          "type": "bytes32"
        }
      ],
      "name": "voteOf",
      "outputs": [
        {
          "name": "",
          "type": "int8"
        }
      ],
      "payable": false,
      "stateMutability": "view",
      "type": "function"
    },
    {
      "constant": false,
      "inputs": [
        {
          "name": "_contract",
          "type": "address"
        },
        {
          "name": "_status",
          "type": "bool"
        }
      ],
      "name": "whiteList",
      "outputs": [
        {
          "name": "",
          "type": "bool"
        }
      ],
      "payable": false,
      "stateMutability": "nonpayable",
      "type": "function"
    },
    {
      "constant": false,
      "inputs": [
        {
          "name": "_id",
          "type": "bytes32"
        },
        {
          "name": "_period",
          "type": "uint256"
        }
      ],
      "name": "registerResource",
      "outputs": [
        {
          "name": "",
          "type": "bool"
        }
      ],
      "payable": false,
      "stateMutability": "nonpayable",
      "type": "function"
    },
    {
      "constant": false,
      "inputs": [
        {
          "name": "_comments",
          "type": "address"
        }
      ],
      "name": "setComments",
      "outputs": [],
      "payable": false,
      "stateMutability": "nonpayable",
      "type": "function"
    },
    {
      "constant": true,
      "inputs": [],
      "name": "MAX_WEIGHT",
      "outputs": [
        {
          "name": "",
          "type": "uint8"
        }
      ],
      "payable": false,
      "stateMutability": "view",
      "type": "function"
    },
    {
      "constant": false,
      "inputs": [
        {
          "name": "_weight",
          "type": "uint8"
        },
        {
          "name": "_source",
          "type": "bytes32"
        },
        {
          "name": "_commentId",
          "type": "bytes32"
        },
        {
          "name": "_negative",
          "type": "bool"
        }
      ],
      "name": "voteComment",
      "outputs": [
        {
          "name": "",
          "type": "bool"
        }
      ],
      "payable": false,
      "stateMutability": "nonpayable",
      "type": "function"
    },
    {
      "constant": true,
      "inputs": [],
      "name": "required_essence",
      "outputs": [
        {
          "name": "",
          "type": "uint256"
        }
      ],
      "payable": false,
      "stateMutability": "view",
      "type": "function"
    },
    {
      "constant": false,
      "inputs": [
        {
          "name": "newOwner",
          "type": "address"
        }
      ],
      "name": "transferOwnership",
      "outputs": [],
      "payable": false,
      "stateMutability": "nonpayable",
      "type": "function"
    },
    {
      "constant": false,
      "inputs": [
        {
          "name": "_amount",
          "type": "uint8"
        }
      ],
      "name": "setVoteKarma",
      "outputs": [],
      "payable": false,
      "stateMutability": "nonpayable",
      "type": "function"
    },
    {
      "constant": true,
      "inputs": [
        {
          "name": "_id",
          "type": "bytes32"
        },
        {
          "name": "_voter",
          "type": "address"
        },
        {
          "name": "_timeStamp",
          "type": "uint256"
        }
      ],
      "name": "canClaimEntryVote",
      "outputs": [
        {
          "name": "",
          "type": "bool"
        }
      ],
      "payable": false,
      "stateMutability": "view",
      "type": "function"
    },
    {
      "constant": false,
      "inputs": [
        {
          "name": "_amount",
          "type": "uint256"
        }
      ],
      "name": "setRequiredEssence",
      "outputs": [],
      "payable": false,
      "stateMutability": "nonpayable",
      "type": "function"
    },
    {
      "inputs": [],
      "payable": false,
      "stateMutability": "nonpayable",
      "type": "constructor"
    },
    {
      "payable": false,
      "stateMutability": "nonpayable",
      "type": "fallback"
    },
    {
      "anonymous": false,
      "inputs": [
        {
          "indexed": true,
          "name": "voteType",
          "type": "uint8"
        },
        {
          "indexed": true,
          "name": "target",
          "type": "bytes32"
        },
        {
          "indexed": true,
          "name": "voter",
          "type": "address"
        },
        {
          "indexed": false,
          "name": "weight",
          "type": "uint8"
        },
        {
          "indexed": false,
          "name": "negative",
          "type": "bool"
        }
      ],
      "name": "Vote",
      "type": "event"
    },
    {
      "anonymous": false,
      "inputs": [
        {
          "indexed": true,
          "name": "previousOwner",
          "type": "address"
        },
        {
          "indexed": true,
          "name": "newOwner",
          "type": "address"
        }
      ],
      "name": "OwnershipTransferred",
      "type": "event"
    }
  ],
  "bytecode": "0x6060604052670de0b6b3a7640000600555600a600660006101000a81548160ff021916908360ff1602179055506001600660016101000a81548160ff021916908360ff160217905550341561005357600080fd5b336000806101000a81548173ffffffffffffffffffffffffffffffffffffffff021916908373ffffffffffffffffffffffffffffffffffffffff1602179055506000341415156100a257600080fd5b613118806100b16000396000f300606060405260043610610175576000357c0100000000000000000000000000000000000000000000000000000000900463ffffffff16806301a835b71461018257806317ffc320146101d6578063213681cd1461020f5780633051d1941461026a57806343b29ba1146102cf578063633b376c146102fe5780637ffe13bd146103245780638da5cb5b146103635780638f0ecae2146103b857806399a81149146103f15780639f727c2714610428578063a649eb9d1461043d578063bde7962514610476578063c0aae76e146104d4578063c0ee0b8a1461051c578063c42a7b5214610572578063c7c7d6ce146105ab578063ca7e29f914610620578063cf68e2d214610676578063d16baeb9146106d6578063d97995a014610732578063de60a9581461077a578063e4a28a52146107b3578063e54ccbc3146107e2578063ea75446914610845578063f2fde38b1461086e578063f6fc10c6146108a7578063fe288009146108cd578063fe4bc0f014610934575b341561018057600080fd5b005b341561018d57600080fd5b6101b9600480803573ffffffffffffffffffffffffffffffffffffffff16906020019091905050610957565b604051808381526020018281526020019250505060405180910390f35b34156101e157600080fd5b61020d600480803573ffffffffffffffffffffffffffffffffffffffff169060200190919050506109e9565b005b341561021a57600080fd5b610234600480803560001916906020019091905050610b56565b60405180868152602001858152602001848152602001838152602001821515151581526020019550505050505060405180910390f35b341561027557600080fd5b6102ae600480803573ffffffffffffffffffffffffffffffffffffffff1690602001909190803560001916906020019091905050610c19565b60405180838152602001821515151581526020019250505060405180910390f35b34156102da57600080fd5b6102e2610cf2565b604051808260ff1660ff16815260200191505060405180910390f35b341561030957600080fd5b610322600480803560ff16906020019091905050610d05565b005b341561032f57600080fd5b610349600480803560001916906020019091905050610d8d565b604051808215151515815260200191505060405180910390f35b341561036e57600080fd5b610376610fa5565b604051808273ffffffffffffffffffffffffffffffffffffffff1673ffffffffffffffffffffffffffffffffffffffff16815260200191505060405180910390f35b34156103c357600080fd5b6103ef600480803573ffffffffffffffffffffffffffffffffffffffff16906020019091905050610fca565b005b34156103fc57600080fd5b6104126004808035906020019091905050611069565b6040518082815260200191505060405180910390f35b341561043357600080fd5b61043b611087565b005b341561044857600080fd5b610474600480803573ffffffffffffffffffffffffffffffffffffffff16906020019091905050611159565b005b341561048157600080fd5b6104ba60048080356000191690602001909190803573ffffffffffffffffffffffffffffffffffffffff169060200190919050506111f8565b604051808215151515815260200191505060405180910390f35b34156104df57600080fd5b610502600480803560001916906020019091908035906020019091905050611464565b604051808215151515815260200191505060405180910390f35b341561052757600080fd5b610570600480803573ffffffffffffffffffffffffffffffffffffffff1690602001909190803590602001909190803590602001908201803590602001919091929050506114ef565b005b341561057d57600080fd5b6105a9600480803573ffffffffffffffffffffffffffffffffffffffff169060200190919050506114f4565b005b34156105b657600080fd5b610606600480803560ff1690602001909190803560001916906020019091908035151590602001909190803573ffffffffffffffffffffffffffffffffffffffff16906020019091905050611593565b604051808215151515815260200191505060405180910390f35b341561062b57600080fd5b61065c600480803560ff16906020019091908035600019169060200190919080351515906020019091905050611977565b604051808215151515815260200191505060405180910390f35b341561068157600080fd5b6106ba600480803573ffffffffffffffffffffffffffffffffffffffff1690602001909190803560001916906020019091905050611ed1565b604051808260000b60000b815260200191505060405180910390f35b34156106e157600080fd5b610718600480803573ffffffffffffffffffffffffffffffffffffffff169060200190919080351515906020019091905050611f44565b604051808215151515815260200191505060405180910390f35b341561073d57600080fd5b610760600480803560001916906020019091908035906020019091905050612002565b604051808215151515815260200191505060405180910390f35b341561078557600080fd5b6107b1600480803573ffffffffffffffffffffffffffffffffffffffff16906020019091905050612089565b005b34156107be57600080fd5b6107c6612128565b604051808260ff1660ff16815260200191505060405180910390f35b34156107ed57600080fd5b61082b600480803560ff169060200190919080356000191690602001909190803560001916906020019091908035151590602001909190505061213b565b604051808215151515815260200191505060405180910390f35b341561085057600080fd5b6108586127cf565b6040518082815260200191505060405180910390f35b341561087957600080fd5b6108a5600480803573ffffffffffffffffffffffffffffffffffffffff169060200190919050506127d5565b005b34156108b257600080fd5b6108cb600480803560ff1690602001909190505061292a565b005b34156108d857600080fd5b61091a60048080356000191690602001909190803573ffffffffffffffffffffffffffffffffffffffff169060200190919080359060200190919050506129a3565b604051808215151515815260200191505060405180910390f35b341561093f57600080fd5b6109556004808035906020019091905050612ba1565b005b600080600860008473ffffffffffffffffffffffffffffffffffffffff1673ffffffffffffffffffffffffffffffffffffffff16815260200190815260200160002060000154600860008573ffffffffffffffffffffffffffffffffffffffff1673ffffffffffffffffffffffffffffffffffffffff1681526020019081526020016000206001015491509150915091565b60008060009054906101000a900473ffffffffffffffffffffffffffffffffffffffff1673ffffffffffffffffffffffffffffffffffffffff163373ffffffffffffffffffffffffffffffffffffffff16141515610a4657600080fd5b8173ffffffffffffffffffffffffffffffffffffffff166370a08231306000604051602001526040518263ffffffff167c0100000000000000000000000000000000000000000000000000000000028152600401808273ffffffffffffffffffffffffffffffffffffffff1673ffffffffffffffffffffffffffffffffffffffff168152602001915050602060405180830381600087803b1515610ae957600080fd5b6102c65a03f11515610afa57600080fd5b505050604051805190509050610b526000809054906101000a900473ffffffffffffffffffffffffffffffffffffffff16828473ffffffffffffffffffffffffffffffffffffffff16612c069092919063ffffffff16565b5050565b600080600080600060096000876000191660001916815260200190815260200160002060020154945060096000876000191660001916815260200190815260200160002060040154935060096000876000191660001916815260200190815260200160002060010154925060096000876000191660001916815260200190815260200160002060030154915060096000876000191660001916815260200190815260200160002060000160009054906101000a900460ff16905091939590929450565b60008060096000846000191660001916815260200190815260200160002060060160008573ffffffffffffffffffffffffffffffffffffffff1673ffffffffffffffffffffffffffffffffffffffff16815260200190815260200160002060000154915060096000846000191660001916815260200190815260200160002060060160008573ffffffffffffffffffffffffffffffffffffffff1673ffffffffffffffffffffffffffffffffffffffff16815260200190815260200160002060010160009054906101000a900460ff1690509250929050565b600660019054906101000a900460ff1681565b6000809054906101000a900473ffffffffffffffffffffffffffffffffffffffff1673ffffffffffffffffffffffffffffffffffffffff163373ffffffffffffffffffffffffffffffffffffffff16141515610d6057600080fd5b60008160ff16111515610d6f57fe5b80600660006101000a81548160ff021916908360ff16021790555050565b6000610d9a8233426129a3565b1515610da557600080fd5b600160096000846000191660001916815260200190815260200160002060060160003373ffffffffffffffffffffffffffffffffffffffff1673ffffffffffffffffffffffffffffffffffffffff16815260200190815260200160002060010160006101000a81548160ff021916908315150217905550600360009054906101000a900473ffffffffffffffffffffffffffffffffffffffff1673ffffffffffffffffffffffffffffffffffffffff166310e32b043360096000866000191660001916815260200190815260200160002060060160003373ffffffffffffffffffffffffffffffffffffffff1673ffffffffffffffffffffffffffffffffffffffff168152602001908152602001600020600001546f656e7472793a766f74653a636c61696d866000604051602001526040518563ffffffff167c0100000000000000000000000000000000000000000000000000000000028152600401808573ffffffffffffffffffffffffffffffffffffffff1673ffffffffffffffffffffffffffffffffffffffff168152602001848152602001836001026000191681526020018260001916600019168152602001945050505050602060405180830381600087803b1515610f7657600080fd5b6102c65a03f11515610f8757600080fd5b505050604051805190501515610f9c57600080fd5b60019050919050565b6000809054906101000a900473ffffffffffffffffffffffffffffffffffffffff1681565b6000809054906101000a900473ffffffffffffffffffffffffffffffffffffffff1673ffffffffffffffffffffffffffffffffffffffff163373ffffffffffffffffffffffffffffffffffffffff1614151561102557600080fd5b80600360006101000a81548173ffffffffffffffffffffffffffffffffffffffff021916908373ffffffffffffffffffffffffffffffffffffffff16021790555050565b600061108082600554612cd990919063ffffffff16565b9050919050565b6000809054906101000a900473ffffffffffffffffffffffffffffffffffffffff1673ffffffffffffffffffffffffffffffffffffffff163373ffffffffffffffffffffffffffffffffffffffff161415156110e257600080fd5b6000809054906101000a900473ffffffffffffffffffffffffffffffffffffffff1673ffffffffffffffffffffffffffffffffffffffff166108fc3073ffffffffffffffffffffffffffffffffffffffff16319081150290604051600060405180830381858888f19350505050151561115757fe5b565b6000809054906101000a900473ffffffffffffffffffffffffffffffffffffffff1673ffffffffffffffffffffffffffffffffffffffff163373ffffffffffffffffffffffffffffffffffffffff161415156111b457600080fd5b80600260006101000a81548173ffffffffffffffffffffffffffffffffffffffff021916908373ffffffffffffffffffffffffffffffffffffffff16021790555050565b6000600160009054906101000a900473ffffffffffffffffffffffffffffffffffffffff1673ffffffffffffffffffffffffffffffffffffffff163373ffffffffffffffffffffffffffffffffffffffff1614151561125657600080fd5b426009600085600019166000191681526020019081526020016000206001015410151561128257600080fd5b600060096000856000191660001916815260200190815260200160002060040154121515156112b057600080fd5b60096000846000191660001916815260200190815260200160002060000160009054906101000a900460ff161515156112e857600080fd5b600160096000856000191660001916815260200190815260200160002060000160006101000a81548160ff021916908315150217905550600360009054906101000a900473ffffffffffffffffffffffffffffffffffffffff1673ffffffffffffffffffffffffffffffffffffffff166310e32b0483600960008760001916600019168152602001908152602001600020600301546a656e7472793a636c61696d876000604051602001526040518563ffffffff167c0100000000000000000000000000000000000000000000000000000000028152600401808573ffffffffffffffffffffffffffffffffffffffff1673ffffffffffffffffffffffffffffffffffffffff168152602001848152602001836001026000191681526020018260001916600019168152602001945050505050602060405180830381600087803b151561143457600080fd5b6102c65a03f1151561144557600080fd5b50505060405180519050151561145a57600080fd5b6001905092915050565b600081600960008560001916600019168152602001908152602001600020600101541080156114b2575060006009600085600019166000191681526020019081526020016000206004015412155b80156114e7575060096000846000191660001916815260200190815260200160002060000160009054906101000a900460ff16155b905092915050565b600080fd5b6000809054906101000a900473ffffffffffffffffffffffffffffffffffffffff1673ffffffffffffffffffffffffffffffffffffffff163373ffffffffffffffffffffffffffffffffffffffff1614151561154f57600080fd5b80600160006101000a81548173ffffffffffffffffffffffffffffffffffffffff021916908373ffffffffffffffffffffffffffffffffffffffff16021790555050565b6000806000600160009054906101000a900473ffffffffffffffffffffffffffffffffffffffff1673ffffffffffffffffffffffffffffffffffffffff16634512051185886000604051602001526040518363ffffffff167c0100000000000000000000000000000000000000000000000000000000028152600401808373ffffffffffffffffffffffffffffffffffffffff1673ffffffffffffffffffffffffffffffffffffffff168152602001826000191660001916815260200192505050602060405180830381600087803b151561166d57600080fd5b6102c65a03f1151561167e57600080fd5b50505060405180519050151561169357600080fd5b8373ffffffffffffffffffffffffffffffffffffffff163373ffffffffffffffffffffffffffffffffffffffff16141515156116ce57600080fd5b8660ff169150600360009054906101000a900473ffffffffffffffffffffffffffffffffffffffff1673ffffffffffffffffffffffffffffffffffffffff1663da5ecde03361172885600554612cd990919063ffffffff16565b69656e7472793a766f74656000604051602001526040518463ffffffff167c0100000000000000000000000000000000000000000000000000000000028152600401808473ffffffffffffffffffffffffffffffffffffffff1673ffffffffffffffffffffffffffffffffffffffff168152602001838152602001826001026000191681526020019350505050602060405180830381600087803b15156117ce57600080fd5b6102c65a03f115156117df57600080fd5b50505060405180519050506117f8878787336000612d14565b151561180357600080fd5b61180c8761308a565b905042600960008860001916600019168152602001908152602001600020600101541015156118f4578415156118905761186d81600960008960001916600019168152602001908152602001600020600301546130ce90919063ffffffff16565b600960008860001916600019168152602001908152602001600020600301819055505b8060096000886000191660001916815260200190815260200160002060060160003373ffffffffffffffffffffffffffffffffffffffff1673ffffffffffffffffffffffffffffffffffffffff168152602001908152602001600020600001819055505b3373ffffffffffffffffffffffffffffffffffffffff1686600019166000600281111561191d57fe5b60ff167f814f582154e3b8f0c6501aaa50b3b940c5c270310aa1c7b3470eb7896da73d918a89604051808360ff1660ff168152602001821515151581526020019250505060405180910390a4600192505050949350505050565b600080600260009054906101000a900473ffffffffffffffffffffffffffffffffffffffff1673ffffffffffffffffffffffffffffffffffffffff16634716cd6d856000604051602001526040518263ffffffff167c0100000000000000000000000000000000000000000000000000000000028152600401808260001916600019168152602001915050602060405180830381600087803b1515611a1b57600080fd5b6102c65a03f11515611a2c57600080fd5b505050604051805190501515611a4157600080fd5b3373ffffffffffffffffffffffffffffffffffffffff16600260009054906101000a900473ffffffffffffffffffffffffffffffffffffffff1673ffffffffffffffffffffffffffffffffffffffff1663ccc21164866000604051602001526040518263ffffffff167c0100000000000000000000000000000000000000000000000000000000028152600401808260001916600019168152602001915050602060405180830381600087803b1515611af957600080fd5b6102c65a03f11515611b0a57600080fd5b5050506040518051905073ffffffffffffffffffffffffffffffffffffffff1614151515611b3757600080fd5b8460ff169050600360009054906101000a900473ffffffffffffffffffffffffffffffffffffffff1673ffffffffffffffffffffffffffffffffffffffff1663da5ecde033611b9184600554612cd990919063ffffffff16565b686c6973743a766f74656000604051602001526040518463ffffffff167c0100000000000000000000000000000000000000000000000000000000028152600401808473ffffffffffffffffffffffffffffffffffffffff1673ffffffffffffffffffffffffffffffffffffffff168152602001838152602001826001026000191681526020019350505050602060405180830381600087803b1515611c3657600080fd5b6102c65a03f11515611c4757600080fd5b5050506040518051905050611c60858585336002612d14565b1515611c6b57600080fd5b821515611e5157600360009054906101000a900473ffffffffffffffffffffffffffffffffffffffff1673ffffffffffffffffffffffffffffffffffffffff166310e32b04600260009054906101000a900473ffffffffffffffffffffffffffffffffffffffff1673ffffffffffffffffffffffffffffffffffffffff1663ccc21164876000604051602001526040518263ffffffff167c0100000000000000000000000000000000000000000000000000000000028152600401808260001916600019168152602001915050602060405180830381600087803b1515611d5157600080fd5b6102c65a03f11515611d6257600080fd5b50505060405180519050611d758861308a565b686c6973743a766f7465886000604051602001526040518563ffffffff167c0100000000000000000000000000000000000000000000000000000000028152600401808573ffffffffffffffffffffffffffffffffffffffff1673ffffffffffffffffffffffffffffffffffffffff168152602001848152602001836001026000191681526020018260001916600019168152602001945050505050602060405180830381600087803b1515611e2a57600080fd5b6102c65a03f11515611e3b57600080fd5b505050604051805190501515611e5057600080fd5b5b3373ffffffffffffffffffffffffffffffffffffffff168460001916600280811115611e7957fe5b60ff167f814f582154e3b8f0c6501aaa50b3b940c5c270310aa1c7b3470eb7896da73d918887604051808360ff1660ff168152602001821515151581526020019250505060405180910390a460019150509392505050565b600060096000836000191660001916815260200190815260200160002060050160008473ffffffffffffffffffffffffffffffffffffffff1673ffffffffffffffffffffffffffffffffffffffff16815260200190815260200160002060009054906101000a900460000b905092915050565b60008060009054906101000a900473ffffffffffffffffffffffffffffffffffffffff1673ffffffffffffffffffffffffffffffffffffffff163373ffffffffffffffffffffffffffffffffffffffff16141515611fa157600080fd5b81600760008573ffffffffffffffffffffffffffffffffffffffff1673ffffffffffffffffffffffffffffffffffffffff16815260200190815260200160002060006101000a81548160ff0219169083151502179055506001905092915050565b6000600760003373ffffffffffffffffffffffffffffffffffffffff1673ffffffffffffffffffffffffffffffffffffffff16815260200190815260200160002060009054906101000a900460ff16151561205c57600080fd5b81600960008560001916600019168152602001908152602001600020600101819055506001905092915050565b6000809054906101000a900473ffffffffffffffffffffffffffffffffffffffff1673ffffffffffffffffffffffffffffffffffffffff163373ffffffffffffffffffffffffffffffffffffffff161415156120e457600080fd5b80600460006101000a81548173ffffffffffffffffffffffffffffffffffffffff021916908373ffffffffffffffffffffffffffffffffffffffff16021790555050565b600660009054906101000a900460ff1681565b6000808560ff169050600460009054906101000a900473ffffffffffffffffffffffffffffffffffffffff1673ffffffffffffffffffffffffffffffffffffffff16638683612b86866000604051602001526040518363ffffffff167c0100000000000000000000000000000000000000000000000000000000028152600401808360001916600019168152602001826000191660001916815260200192505050602060405180830381600087803b15156121f557600080fd5b6102c65a03f1151561220657600080fd5b50505060405180519050151561221b57600080fd5b600460009054906101000a900473ffffffffffffffffffffffffffffffffffffffff1673ffffffffffffffffffffffffffffffffffffffff1663bbd34ac086866000604051602001526040518363ffffffff167c0100000000000000000000000000000000000000000000000000000000028152600401808360001916600019168152602001826000191660001916815260200192505050602060405180830381600087803b15156122cc57600080fd5b6102c65a03f115156122dd57600080fd5b5050506040518051905073ffffffffffffffffffffffffffffffffffffffff163373ffffffffffffffffffffffffffffffffffffffff161415151561232157600080fd5b600460009054906101000a900473ffffffffffffffffffffffffffffffffffffffff1673ffffffffffffffffffffffffffffffffffffffff16631026418a86866000604051602001526040518363ffffffff167c0100000000000000000000000000000000000000000000000000000000028152600401808360001916600019168152602001826000191660001916815260200192505050602060405180830381600087803b15156123d257600080fd5b6102c65a03f115156123e357600080fd5b505050604051805190501515156123f957600080fd5b600360009054906101000a900473ffffffffffffffffffffffffffffffffffffffff1673ffffffffffffffffffffffffffffffffffffffff1663da5ecde03361244d84600554612cd990919063ffffffff16565b6b636f6d6d656e743a766f74656000604051602001526040518463ffffffff167c0100000000000000000000000000000000000000000000000000000000028152600401808473ffffffffffffffffffffffffffffffffffffffff1673ffffffffffffffffffffffffffffffffffffffff168152602001838152602001826001026000191681526020019350505050602060405180830381600087803b15156124f557600080fd5b6102c65a03f1151561250657600080fd5b505050604051805190505061251f868585336001612d14565b151561252a57600080fd5b821580156125565750426009600087600019166000191681526020019081526020016000206001015410155b1561274d57600360009054906101000a900473ffffffffffffffffffffffffffffffffffffffff1673ffffffffffffffffffffffffffffffffffffffff166310e32b04600460009054906101000a900473ffffffffffffffffffffffffffffffffffffffff1673ffffffffffffffffffffffffffffffffffffffff1663bbd34ac088886000604051602001526040518363ffffffff167c0100000000000000000000000000000000000000000000000000000000028152600401808360001916600019168152602001826000191660001916815260200192505050602060405180830381600087803b151561264a57600080fd5b6102c65a03f1151561265b57600080fd5b5050506040518051905061266e8961308a565b6b636f6d6d656e743a766f7465886000604051602001526040518563ffffffff167c0100000000000000000000000000000000000000000000000000000000028152600401808573ffffffffffffffffffffffffffffffffffffffff1673ffffffffffffffffffffffffffffffffffffffff168152602001848152602001836001026000191681526020018260001916600019168152602001945050505050602060405180830381600087803b151561272657600080fd5b6102c65a03f1151561273757600080fd5b50505060405180519050151561274c57600080fd5b5b3373ffffffffffffffffffffffffffffffffffffffff1684600019166001600281111561277657fe5b60ff167f814f582154e3b8f0c6501aaa50b3b940c5c270310aa1c7b3470eb7896da73d918987604051808360ff1660ff168152602001821515151581526020019250505060405180910390a46001915050949350505050565b60055481565b6000809054906101000a900473ffffffffffffffffffffffffffffffffffffffff1673ffffffffffffffffffffffffffffffffffffffff163373ffffffffffffffffffffffffffffffffffffffff1614151561283057600080fd5b600073ffffffffffffffffffffffffffffffffffffffff168173ffffffffffffffffffffffffffffffffffffffff161415151561286c57600080fd5b8073ffffffffffffffffffffffffffffffffffffffff166000809054906101000a900473ffffffffffffffffffffffffffffffffffffffff1673ffffffffffffffffffffffffffffffffffffffff167f8be0079c531659141344cd1fd0a4f28419497f9722a3daafe3b4186f6b6457e060405160405180910390a3806000806101000a81548173ffffffffffffffffffffffffffffffffffffffff021916908373ffffffffffffffffffffffffffffffffffffffff16021790555050565b6000809054906101000a900473ffffffffffffffffffffffffffffffffffffffff1673ffffffffffffffffffffffffffffffffffffffff163373ffffffffffffffffffffffffffffffffffffffff1614151561298557600080fd5b80600660016101000a81548160ff021916908360ff16021790555050565b600081600960008660001916600019168152602001908152602001600020600101541180612a39575060096000856000191660001916815260200190815260200160002060060160008473ffffffffffffffffffffffffffffffffffffffff1673ffffffffffffffffffffffffffffffffffffffff16815260200190815260200160002060010160009054906101000a900460ff165b15612a475760009050612b9a565b600060096000866000191660001916815260200190815260200160002060040154128015612ae05750600060096000866000191660001916815260200190815260200160002060050160008573ffffffffffffffffffffffffffffffffffffffff1673ffffffffffffffffffffffffffffffffffffffff16815260200190815260200160002060009054906101000a900460000b60000b125b15612aee5760019050612b9a565b600060096000866000191660001916815260200190815260200160002060040154138015612b875750600060096000866000191660001916815260200190815260200160002060050160008573ffffffffffffffffffffffffffffffffffffffff1673ffffffffffffffffffffffffffffffffffffffff16815260200190815260200160002060009054906101000a900460000b60000b135b15612b955760019050612b9a565b600090505b9392505050565b6000809054906101000a900473ffffffffffffffffffffffffffffffffffffffff1673ffffffffffffffffffffffffffffffffffffffff163373ffffffffffffffffffffffffffffffffffffffff16141515612bfc57600080fd5b8060058190555050565b8273ffffffffffffffffffffffffffffffffffffffff1663a9059cbb83836000604051602001526040518363ffffffff167c0100000000000000000000000000000000000000000000000000000000028152600401808373ffffffffffffffffffffffffffffffffffffffff1673ffffffffffffffffffffffffffffffffffffffff16815260200182815260200192505050602060405180830381600087803b1515612cb157600080fd5b6102c65a03f11515612cc257600080fd5b505050604051805190501515612cd457fe5b505050565b6000806000841415612cee5760009150612d0d565b8284029050828482811515612cff57fe5b04141515612d0957fe5b8091505b5092915050565b6000808660ff16111515612d2757600080fd5b600660009054906101000a900460ff1660ff168660ff1611151515612d4b57600080fd5b600060096000876000191660001916815260200190815260200160002060050160008573ffffffffffffffffffffffffffffffffffffffff1673ffffffffffffffffffffffffffffffffffffffff16815260200190815260200160002060009054906101000a900460000b60000b141515612dc557600080fd5b8160096000876000191660001916815260200190815260200160002060000160016101000a81548160ff02191690836002811115612dff57fe5b02179055508315612eb8578560ff16600960008760001916600019168152602001908152602001600020600401600082825403925050819055508560000360096000876000191660001916815260200190815260200160002060050160008573ffffffffffffffffffffffffffffffffffffffff1673ffffffffffffffffffffffffffffffffffffffff16815260200190815260200160002060006101000a81548160ff021916908360000b60ff160217905550612f5f565b8560ff16600960008760001916600019168152602001908152602001600020600401600082825401925050819055508560096000876000191660001916815260200190815260200160002060050160008573ffffffffffffffffffffffffffffffffffffffff1673ffffffffffffffffffffffffffffffffffffffff16815260200190815260200160002060006101000a81548160ff021916908360000b60ff1602179055505b600860008473ffffffffffffffffffffffffffffffffffffffff1673ffffffffffffffffffffffffffffffffffffffff168152602001908152602001600020600101600081548092919060010191905055506130098660ff16600860008673ffffffffffffffffffffffffffffffffffffffff1673ffffffffffffffffffffffffffffffffffffffff168152602001908152602001600020600001546130ce90919063ffffffff16565b600860008573ffffffffffffffffffffffffffffffffffffffff1673ffffffffffffffffffffffffffffffffffffffff16815260200190815260200160002060000181905550600960008660001916600019168152602001908152602001600020600201600081548092919060010191905055506001905095945050505050565b600080600080600a92508460ff1691506130ad8284612cd990919063ffffffff16565b90506130c460055482612cd990919063ffffffff16565b9350505050919050565b60008082840190508381101515156130e257fe5b80915050929150505600a165627a7a72305820a18f558a7c4f4a838a60c8f7f9ea5ab7d83230bc4a737c1d2a36d19c6958648f0029",
  "source": "pragma solidity ^0.4.0;\n\n\nimport 'zeppelin-solidity/contracts/ownership/HasNoEther.sol';\nimport 'zeppelin-solidity/contracts/ownership/HasNoTokens.sol';\nimport 'zeppelin-solidity/contracts/math/SafeMath.sol';\nimport './Entries.sol';\nimport './Tags.sol';\nimport './token/Essence.sol';\nimport './Comments.sol';\n\n\ncontract Votes is HasNoEther, HasNoTokens {\n    using SafeMath for uint256;\n\n    Entries entries;\n\n    Tags tags;\n\n    Essence essence;\n\n    Comments comments;\n\n    uint256 public required_essence = 10**18;\n\n    uint8 public MAX_WEIGHT = 10; // (MIN_WEIGHT, MAX_WEIGHT) interval\n    uint8 public VOTE_KARMA = 1;\n\n    struct Counter {\n        uint256 weight;\n        uint256 count;\n    }\n    mapping (address => bool) whitelist;\n    mapping (address => Counter) totalVotes;\n    enum Target {Entry, Comment, List}\n    event Vote(uint8 indexed voteType, bytes32 indexed target, address indexed voter, uint8 weight, bool negative);\n\n    struct VoteKarma {\n    uint256 amount;\n    bool claimed;\n    }\n\n    struct Record {\n    bool claimed;\n    Target target;\n    uint256 endPeriod;\n    uint256 totalVotes;\n    uint256 totalKarma;\n    int score;\n    mapping (address => int8) votes;\n    mapping (address => VoteKarma) karma;\n    }\n\n    mapping (bytes32 => Record) records;\n\n    function Votes()\n    public\n    HasNoEther()\n    HasNoTokens()\n    {\n\n    }\n\n    function setEntries(Entries _entries)\n    public\n    onlyOwner\n    {\n        entries = _entries;\n    }\n\n    function setComments(Comments _comments)\n    public\n    onlyOwner\n    {\n        comments = _comments;\n    }\n\n    modifier onlyFromEntries () {\n        require(msg.sender == address(entries));\n        _;\n    }\n\n    modifier onlyWhitelisted () {\n        require(whitelist[msg.sender]);\n        _;\n    }\n\n    function setTags(Tags _tags)\n    public\n    onlyOwner\n    {\n        tags = _tags;\n    }\n\n    function setVoteKarma(uint8 _amount)\n    public\n    onlyOwner\n    {\n        VOTE_KARMA = _amount;\n    }\n\n    function setEssence(Essence _essence)\n    public\n    onlyOwner\n    {\n        essence = _essence;\n    }\n\n    function setRequiredEssence(uint256 _amount)\n    public\n    onlyOwner\n    {\n        required_essence = _amount;\n    }\n\n    function whiteList(address _contract, bool _status)\n    public\n    onlyOwner\n    returns (bool)\n    {\n        whitelist[_contract] = _status;\n        return true;\n    }\n\n    function voteEntry(uint8 _weight, bytes32 _source, bool _negative, address _publisher)\n    public\n    returns (bool)\n    {\n        require(entries.exists(_publisher, _source));\n        require(msg.sender != _publisher);\n        uint256 weight = uint256(_weight);\n        essence.spendMana(msg.sender, required_essence.mul(weight), 0x656e7472793a766f7465);\n        require(registerVote(_weight, _source, _negative, msg.sender, Target.Entry));\n        uint256 karmaGenerated = calcKarmaFrom(_weight);\n        if (records[_source].endPeriod >= now) {\n            if (!_negative) {\n                records[_source].totalKarma = records[_source].totalKarma.add(karmaGenerated);\n            }\n            records[_source].karma[msg.sender].amount = karmaGenerated;\n        }\n\n        Vote(uint8(Target.Entry), _source, msg.sender, _weight, _negative);\n        return true;\n    }\n\n    function calcKarmaFrom(uint8 _weight)\n    view\n    internal\n    returns (uint256 _total)\n    {\n        uint256 base = 10;\n        uint256 factor = uint256(_weight);\n        uint256 initial = base.mul(factor);\n        _total = initial.mul(required_essence);\n    }\n\n    function registerResource(bytes32 _id, uint256 _period)\n    public\n    onlyWhitelisted\n    returns (bool)\n    {\n        records[_id].endPeriod = _period;\n        return true;\n    }\n\n    function voteComment(uint8 _weight, bytes32 _source, bytes32 _commentId, bool _negative)\n    public\n    returns (bool)\n    {\n        uint256 weight = uint256(_weight);\n        require(comments.exists(_source, _commentId));\n        require(msg.sender != comments.commentAuthor(_source, _commentId));\n        require(!comments.isDeleted(_source, _commentId));\n\n        essence.spendMana(msg.sender, required_essence.mul(weight), 0x636f6d6d656e743a766f7465);\n\n        require(registerVote(_weight, _commentId, _negative, msg.sender, Target.Comment));\n\n        if ((!_negative) && (records[_source].endPeriod >= now)) {\n            require(essence.collectFor(comments.commentAuthor(_source, _commentId), calcKarmaFrom(_weight), 0x636f6d6d656e743a766f7465, _commentId));\n        }\n\n        Vote(uint8(Target.Comment), _commentId, msg.sender, _weight, _negative);\n        return true;\n    }\n\n    function voteList(uint8 _weight, bytes32 _source, bool _negative)\n    public\n    returns (bool)\n    {\n        require(tags.list_exists(_source));\n        require(tags.list_creator(_source) != msg.sender);\n        uint256 weight = uint256(_weight);\n        essence.spendMana(msg.sender, required_essence.mul(weight), 0x6c6973743a766f7465);\n\n        require(registerVote(_weight, _source, _negative, msg.sender, Target.List));\n\n        if (!_negative) {\n            require(essence.collectFor(tags.list_creator(_source), calcKarmaFrom(_weight), 0x6c6973743a766f7465, _source));\n        }\n\n        Vote(uint8(Target.List), _source, msg.sender, _weight, _negative);\n        return true;\n    }\n\n    function registerVote(uint8 _weight, bytes32 _source, bool _negative, address _voter, Target _target)\n    internal\n    returns (bool)\n    {\n        // require(records[_source].endPeriod <= now);\n        require(_weight > 0);\n        require(_weight <= MAX_WEIGHT);\n        require(records[_source].votes[_voter] == 0);\n        records[_source].target = _target;\n        if (_negative) {\n            records[_source].score -= int(_weight);\n            records[_source].votes[_voter] = int8(- _weight);\n        }\n        else {\n            records[_source].score += int(_weight);\n            records[_source].votes[_voter] = int8(_weight);\n        }\n        totalVotes[_voter].count++;\n        totalVotes[_voter].weight = totalVotes[_voter].weight.add(_weight);\n        records[_source].totalVotes++;\n        return true;\n    }\n\n    function voteOf(address _voter, bytes32 _source)\n    public\n    view\n    returns (int8)\n    {\n        return records[_source].votes[_voter];\n    }\n\n    function setMax(uint8 _max)\n    public\n    onlyOwner\n    {\n        assert(_max > 0);\n        MAX_WEIGHT = _max;\n    }\n\n    function claimEntry(bytes32 _id, address _publisher)\n    external\n    onlyFromEntries\n    returns (bool)\n    {\n        require(records[_id].endPeriod < now);\n        require(records[_id].score >= 0);\n        require(!records[_id].claimed);\n\n        records[_id].claimed = true;\n        require(essence.collectFor(_publisher, records[_id].totalKarma, 0x656e7472793a636c61696d, _id));\n        return true;\n    }\n\n    function canClaimEntry(bytes32 _id, uint256 _timeStamp)\n    public\n    view\n    returns (bool)\n    {\n        return (records[_id].endPeriod < _timeStamp && records[_id].score >= 0 && !records[_id].claimed);\n    }\n\n    function canClaimEntryVote(bytes32 _id, address _voter, uint256 _timeStamp)\n    public\n    view\n    returns (bool)\n    {\n        if ((records[_id].endPeriod > _timeStamp) || records[_id].karma[_voter].claimed) {\n            return false;\n        }\n\n        if (records[_id].score < 0 && (records[_id].votes[_voter] < 0)) {\n            return true;\n        }\n\n        if (records[_id].score > 0 && (records[_id].votes[_voter] > 0)) {\n            return true;\n        }\n        // voters cant claim if entry score = 0;\n        return false;\n    }\n\n    function claimKarmaVote(bytes32 _id)\n    returns (bool)\n    {\n        require(canClaimEntryVote(_id, msg.sender, now));\n        records[_id].karma[msg.sender].claimed = true;\n        require(essence.collectFor(msg.sender, records[_id].karma[msg.sender].amount, 0x656e7472793a766f74653a636c61696d, _id));\n        return true;\n    }\n\n    function getRecord(bytes32 _id)\n    public\n    view\n    returns (uint256 _totalVotes, int _score, uint256 _endPeriod, uint256 _totalKarma, bool _claimed)\n    {\n        _totalVotes = records[_id].totalVotes;\n        _score = records[_id].score;\n        _endPeriod = records[_id].endPeriod;\n        _totalKarma = records[_id].totalKarma;\n        _claimed = records[_id].claimed;\n    }\n\n    function karmaOf(address _voter, bytes32 _id)\n    public\n    view\n    returns (uint _karma, bool _claimed)\n    {\n        _karma = records[_id].karma[_voter].amount;\n        _claimed = records[_id].karma[_voter].claimed;\n    }\n\n    function getEssenceCost(uint _weight)\n    public\n    view\n    returns (uint)\n    {\n        return required_essence.mul(_weight);\n    }\n\n    function totalVotesOf(address _voter)\n    public\n    view\n    returns (uint weight, uint count)\n    {\n        return (totalVotes[_voter].weight, totalVotes[_voter].count);\n    }\n\n}\n",
  "sourcePath": "/home/kenshyx/projects/contracts.alpha/contracts/Votes.sol",
  "compiler": {
    "name": "solc",
    "version": "0.4.18+commit.9cf6e910.Emscripten.clang"
  },
  "schemaVersion": "1.0.1",
  "updatedAt": "2017-12-19T15:35:25.442Z"
}